{"contracts/BridgePixel.sol":{"BridgePixel":{"abi":[{"inputs":[{"internalType":"string","name":"_name","type":"string"}],"stateMutability":"nonpayable","type":"constructor"},{"inputs":[{"internalType":"address","name":"target","type":"address"}],"name":"AddressEmptyCode","type":"error"},{"inputs":[{"internalType":"address","name":"account","type":"address"}],"name":"AddressInsufficientBalance","type":"error"},{"inputs":[],"name":"FailedInnerCall","type":"error"},{"inputs":[{"internalType":"address","name":"owner","type":"address"}],"name":"OwnableInvalidOwner","type":"error"},{"inputs":[{"internalType":"address","name":"account","type":"address"}],"name":"OwnableUnauthorizedAccount","type":"error"},{"inputs":[],"name":"ReentrancyGuardReentrantCall","type":"error"},{"inputs":[{"internalType":"address","name":"token","type":"address"}],"name":"SafeERC20FailedOperation","type":"error"},{"anonymous":false,"inputs":[{"indexed":true,"internalType":"address","name":"_initiator","type":"address"},{"indexed":false,"internalType":"uint256","name":"_value","type":"uint256"}],"name":"NativeBridgeTrasnfer","type":"event"},{"anonymous":false,"inputs":[{"indexed":true,"internalType":"address","name":"previousOwner","type":"address"},{"indexed":true,"internalType":"address","name":"newOwner","type":"address"}],"name":"OwnershipTransferred","type":"event"},{"stateMutability":"payable","type":"fallback"},{"inputs":[{"internalType":"bytes32","name":"_attestationType","type":"bytes32"}],"name":"SetAttestationTypeEVM","outputs":[],"stateMutability":"nonpayable","type":"function"},{"inputs":[{"internalType":"uint64","name":"_currentLowestUsedTimestamp","type":"uint64"}],"name":"SetCurrentLowestUsedTimestamp","outputs":[],"stateMutability":"nonpayable","type":"function"},{"inputs":[{"internalType":"bytes32","name":"_sourceId","type":"bytes32"}],"name":"SetCurrentSourceId","outputs":[],"stateMutability":"nonpayable","type":"function"},{"inputs":[{"internalType":"uint256","name":"_price","type":"uint256"}],"name":"SetFeeBridge","outputs":[],"stateMutability":"nonpayable","type":"function"},{"inputs":[{"internalType":"address","name":"_oppositeBridge","type":"address"}],"name":"SetOppositeBridgeContractAddress","outputs":[],"stateMutability":"nonpayable","type":"function"},{"inputs":[{"internalType":"address","name":"_oppositePixelBridgeContract","type":"address"}],"name":"SetOppositePixelBridgeContract","outputs":[],"stateMutability":"nonpayable","type":"function"},{"inputs":[{"internalType":"bytes32","name":"_sourceId","type":"bytes32"}],"name":"SetOppositeSourceId","outputs":[],"stateMutability":"nonpayable","type":"function"},{"inputs":[{"internalType":"address","name":"_oppositePixelBridgeToken","type":"address"}],"name":"SetOppostePixelBridgeToken","outputs":[],"stateMutability":"nonpayable","type":"function"},{"inputs":[{"internalType":"address","name":"_pixelBridgeToken","type":"address"}],"name":"SetPixelBridgeToken","outputs":[],"stateMutability":"nonpayable","type":"function"},{"inputs":[{"internalType":"uint16","name":"_requiredConfirmation","type":"uint16"}],"name":"SetRequiredConfirmation","outputs":[],"stateMutability":"nonpayable","type":"function"},{"inputs":[{"internalType":"address","name":"_stateConnector","type":"address"}],"name":"SetStateConnectorAddress","outputs":[],"stateMutability":"nonpayable","type":"function"},{"inputs":[],"name":"attestationTypeEVM","outputs":[{"internalType":"bytes32","name":"","type":"bytes32"}],"stateMutability":"view","type":"function"},{"inputs":[{"internalType":"uint64","name":"_submissionRoundID","type":"uint64"}],"name":"checkIfRoundAttestationReady","outputs":[{"internalType":"bool","name":"_readyStatus","type":"bool"}],"stateMutability":"view","type":"function"},{"inputs":[{"internalType":"bytes32","name":"","type":"bytes32"}],"name":"closedCheckHashForSecuityFromCollision","outputs":[{"internalType":"bool","name":"","type":"bool"}],"stateMutability":"view","type":"function"},{"inputs":[{"internalType":"uint256","name":"_value","type":"uint256"}],"name":"convertUint256ToUint64","outputs":[{"internalType":"uint64","name":"","type":"uint64"}],"stateMutability":"pure","type":"function"},{"inputs":[],"name":"currentLowestUsedTimestamp","outputs":[{"internalType":"uint64","name":"","type":"uint64"}],"stateMutability":"view","type":"function"},{"inputs":[],"name":"currentSourseID","outputs":[{"internalType":"bytes32","name":"","type":"bytes32"}],"stateMutability":"view","type":"function"},{"inputs":[{"internalType":"uint256","name":"_amount","type":"uint256"}],"name":"depositNativeTokenForBridgeTransfer","outputs":[],"stateMutability":"payable","type":"function"},{"inputs":[{"internalType":"uint256","name":"_amount","type":"uint256"}],"name":"depositPixelTokenForBridgeTransfer","outputs":[],"stateMutability":"payable","type":"function"},{"inputs":[{"internalType":"address","name":"","type":"address"}],"name":"deposits","outputs":[{"internalType":"address","name":"","type":"address"}],"stateMutability":"view","type":"function"},{"inputs":[],"name":"fee","outputs":[{"internalType":"uint256","name":"","type":"uint256"}],"stateMutability":"view","type":"function"},{"inputs":[{"components":[{"internalType":"bytes32","name":"attestationType","type":"bytes32"},{"internalType":"bytes32","name":"sourceId","type":"bytes32"},{"internalType":"bytes32","name":"messageIntegrityCode","type":"bytes32"},{"components":[{"internalType":"bytes32","name":"transactionHash","type":"bytes32"},{"internalType":"uint16","name":"requiredConfirmations","type":"uint16"},{"internalType":"bool","name":"provideInput","type":"bool"},{"internalType":"bool","name":"listEvents","type":"bool"},{"internalType":"uint32[]","name":"logIndices","type":"uint32[]"}],"internalType":"struct BridgePixel.RequestBody","name":"requestBody","type":"tuple"}],"internalType":"struct BridgePixel.Request","name":"_request","type":"tuple"}],"name":"hashRequest","outputs":[{"internalType":"bytes32","name":"","type":"bytes32"}],"stateMutability":"pure","type":"function"},{"inputs":[{"components":[{"internalType":"bytes32","name":"attestationType","type":"bytes32"},{"internalType":"bytes32","name":"sourceId","type":"bytes32"},{"internalType":"uint64","name":"votingRound","type":"uint64"},{"internalType":"uint64","name":"lowestUsedTimestamp","type":"uint64"},{"components":[{"internalType":"bytes32","name":"transactionHash","type":"bytes32"},{"internalType":"uint16","name":"requiredConfirmations","type":"uint16"},{"internalType":"bool","name":"provideInput","type":"bool"},{"internalType":"bool","name":"listEvents","type":"bool"},{"internalType":"uint32[]","name":"logIndices","type":"uint32[]"}],"internalType":"struct BridgePixel.RequestBody","name":"requestBody","type":"tuple"},{"components":[{"internalType":"uint256","name":"blockNumber","type":"uint256"},{"internalType":"uint256","name":"timestamp","type":"uint256"},{"internalType":"address","name":"sourceAddress","type":"address"},{"internalType":"bool","name":"isDeployment","type":"bool"},{"internalType":"address","name":"receivingAddress","type":"address"},{"internalType":"uint256","name":"value","type":"uint256"},{"internalType":"bytes","name":"input","type":"bytes"},{"internalType":"uint8","name":"status","type":"uint8"},{"components":[{"internalType":"uint32","name":"logIndex","type":"uint32"},{"internalType":"address","name":"emitterAddress","type":"address"},{"internalType":"bytes32[]","name":"topics","type":"bytes32[]"},{"internalType":"bytes","name":"data","type":"bytes"},{"internalType":"bool","name":"removed","type":"bool"}],"internalType":"struct BridgePixel.Event[]","name":"events","type":"tuple[]"}],"internalType":"struct BridgePixel.ResponseBody","name":"responseBody","type":"tuple"}],"internalType":"struct BridgePixel.Response","name":"_response","type":"tuple"}],"name":"hashResponse","outputs":[{"internalType":"bytes32","name":"","type":"bytes32"}],"stateMutability":"pure","type":"function"},{"inputs":[],"name":"name","outputs":[{"internalType":"string","name":"","type":"string"}],"stateMutability":"view","type":"function"},{"inputs":[{"internalType":"bytes32","name":"","type":"bytes32"}],"name":"openCheckHashForSecuityFromCollision","outputs":[{"internalType":"bool","name":"","type":"bool"}],"stateMutability":"view","type":"function"},{"inputs":[],"name":"oppositeBridge","outputs":[{"internalType":"address","name":"","type":"address"}],"stateMutability":"view","type":"function"},{"inputs":[],"name":"oppositePixelBridgeContract","outputs":[{"internalType":"address","name":"","type":"address"}],"stateMutability":"view","type":"function"},{"inputs":[],"name":"oppositePixelTokenAddress","outputs":[{"internalType":"address","name":"","type":"address"}],"stateMutability":"view","type":"function"},{"inputs":[],"name":"oppositeRequiredConfirmation","outputs":[{"internalType":"uint16","name":"","type":"uint16"}],"stateMutability":"view","type":"function"},{"inputs":[],"name":"oppositeSourseID","outputs":[{"internalType":"bytes32","name":"","type":"bytes32"}],"stateMutability":"view","type":"function"},{"inputs":[],"name":"oppositepixelBridgeToken","outputs":[{"internalType":"contract iBridgePixelToken","name":"","type":"address"}],"stateMutability":"view","type":"function"},{"inputs":[],"name":"owner","outputs":[{"internalType":"address","name":"","type":"address"}],"stateMutability":"view","type":"function"},{"inputs":[],"name":"pixelBridgeToken","outputs":[{"internalType":"contract iBridgePixelToken","name":"","type":"address"}],"stateMutability":"view","type":"function"},{"inputs":[],"name":"pixelBridgeTokenAddress","outputs":[{"internalType":"address","name":"","type":"address"}],"stateMutability":"view","type":"function"},{"inputs":[],"name":"renounceOwnership","outputs":[],"stateMutability":"nonpayable","type":"function"},{"inputs":[{"internalType":"bool","name":"isNative","type":"bool"},{"internalType":"bytes32","name":"_txHash","type":"bytes32"},{"internalType":"uint256","name":"_blockNumber","type":"uint256"},{"internalType":"uint256","name":"_timestamp","type":"uint256"},{"internalType":"uint256","name":"_valueTotal","type":"uint256"},{"internalType":"uint256","name":"_valueToWithdraw","type":"uint256"}],"name":"requestWithdraw","outputs":[],"stateMutability":"payable","type":"function"},{"inputs":[],"name":"stateConnector","outputs":[{"internalType":"address","name":"","type":"address"}],"stateMutability":"view","type":"function"},{"inputs":[],"name":"thisChainID","outputs":[{"internalType":"uint256","name":"","type":"uint256"}],"stateMutability":"view","type":"function"},{"inputs":[],"name":"totalBalanceNative","outputs":[{"internalType":"uint256","name":"","type":"uint256"}],"stateMutability":"view","type":"function"},{"inputs":[{"internalType":"address","name":"newOwner","type":"address"}],"name":"transferOwnership","outputs":[],"stateMutability":"nonpayable","type":"function"},{"inputs":[{"internalType":"bytes32[]","name":"proof","type":"bytes32[]"},{"internalType":"bytes32","name":"root","type":"bytes32"},{"internalType":"bytes32","name":"leaf","type":"bytes32"},{"internalType":"uint256","name":"index","type":"uint256"}],"name":"verify","outputs":[{"internalType":"bool","name":"","type":"bool"}],"stateMutability":"pure","type":"function"},{"inputs":[{"internalType":"bool","name":"isNative","type":"bool"},{"internalType":"bytes32[]","name":"_proof","type":"bytes32[]"},{"internalType":"uint256","name":"_index","type":"uint256"},{"internalType":"uint256","name":"_submissionRoundID","type":"uint256"},{"internalType":"bytes32","name":"_txHash","type":"bytes32"},{"internalType":"uint256","name":"_blockNumber","type":"uint256"},{"internalType":"uint256","name":"_timestamp","type":"uint256"},{"internalType":"uint256","name":"_valueTotal","type":"uint256"},{"internalType":"uint256","name":"_valueToWithdraw","type":"uint256"}],"name":"withdrawFromBridge","outputs":[],"stateMutability":"payable","type":"function"},{"inputs":[{"internalType":"uint256","name":"msgValue","type":"uint256"},{"internalType":"address","name":"to","type":"address"}],"name":"withdrawNative","outputs":[],"stateMutability":"payable","type":"function"},{"inputs":[{"internalType":"address","name":"token","type":"address"},{"internalType":"uint256","name":"amount","type":"uint256"},{"internalType":"address","name":"to","type":"address"}],"name":"withdrawToken","outputs":[],"stateMutability":"nonpayable","type":"function"},{"stateMutability":"payable","type":"receive"}],"evm":{"bytecode":{"linkReferences":{},"object":"60806040523480156200001157600080fd5b506040516200593838038062005938833981810160405281019062000037919062000336565b33600073ffffffffffffffffffffffffffffffffffffffff168173ffffffffffffffffffffffffffffffffffffffff1603620000ad5760006040517f1e4fbdf7000000000000000000000000000000000000000000000000000000008152600401620000a49190620003cc565b60405180910390fd5b620000be81620000df60201b60201c565b50600180819055508060029081620000d7919062000634565b50506200071b565b60008060009054906101000a900473ffffffffffffffffffffffffffffffffffffffff169050816000806101000a81548173ffffffffffffffffffffffffffffffffffffffff021916908373ffffffffffffffffffffffffffffffffffffffff1602179055508173ffffffffffffffffffffffffffffffffffffffff168173ffffffffffffffffffffffffffffffffffffffff167f8be0079c531659141344cd1fd0a4f28419497f9722a3daafe3b4186f6b6457e060405160405180910390a35050565b6000604051905090565b600080fd5b600080fd5b600080fd5b600080fd5b6000601f19601f8301169050919050565b7f4e487b7100000000000000000000000000000000000000000000000000000000600052604160045260246000fd5b6200020c82620001c1565b810181811067ffffffffffffffff821117156200022e576200022d620001d2565b5b80604052505050565b600062000243620001a3565b905062000251828262000201565b919050565b600067ffffffffffffffff821115620002745762000273620001d2565b5b6200027f82620001c1565b9050602081019050919050565b60005b83811015620002ac5780820151818401526020810190506200028f565b60008484015250505050565b6000620002cf620002c98462000256565b62000237565b905082815260208101848484011115620002ee57620002ed620001bc565b5b620002fb8482856200028c565b509392505050565b600082601f8301126200031b576200031a620001b7565b5b81516200032d848260208601620002b8565b91505092915050565b6000602082840312156200034f576200034e620001ad565b5b600082015167ffffffffffffffff81111562000370576200036f620001b2565b5b6200037e8482850162000303565b91505092915050565b600073ffffffffffffffffffffffffffffffffffffffff82169050919050565b6000620003b48262000387565b9050919050565b620003c681620003a7565b82525050565b6000602082019050620003e36000830184620003bb565b92915050565b600081519050919050565b7f4e487b7100000000000000000000000000000000000000000000000000000000600052602260045260246000fd5b600060028204905060018216806200043c57607f821691505b602082108103620004525762000451620003f4565b5b50919050565b60008190508160005260206000209050919050565b60006020601f8301049050919050565b600082821b905092915050565b600060088302620004bc7fffffffffffffffffffffffffffffffffffffffffffffffffffffffffffffffff826200047d565b620004c886836200047d565b95508019841693508086168417925050509392505050565b6000819050919050565b6000819050919050565b6000620005156200050f6200050984620004e0565b620004ea565b620004e0565b9050919050565b6000819050919050565b6200053183620004f4565b6200054962000540826200051c565b8484546200048a565b825550505050565b600090565b6200056062000551565b6200056d81848462000526565b505050565b5b8181101562000595576200058960008262000556565b60018101905062000573565b5050565b601f821115620005e457620005ae8162000458565b620005b9846200046d565b81016020851015620005c9578190505b620005e1620005d8856200046d565b83018262000572565b50505b505050565b600082821c905092915050565b60006200060960001984600802620005e9565b1980831691505092915050565b6000620006248383620005f6565b9150826002028217905092915050565b6200063f82620003e9565b67ffffffffffffffff8111156200065b576200065a620001d2565b5b62000667825462000423565b6200067482828562000599565b600060209050601f831160018114620006ac576000841562000697578287015190505b620006a3858262000616565b86555062000713565b601f198416620006bc8662000458565b60005b82811015620006e657848901518255600182019150602085019450602081019050620006bf565b8683101562000706578489015162000702601f891682620005f6565b8355505b6001600288020188555050505b505050505050565b61520d806200072b6000396000f3fe60806040526004361061026b5760003560e01c806384be137411610144578063bb96ea2d116100b6578063d2eff49c1161007a578063d2eff49c146108da578063ddca3f4314610905578063f2fde38b14610930578063f4b1e1d014610959578063f9e6a6a414610996578063fc7e286d146109b257610272565b8063bb96ea2d146107f3578063bf11231c1461081e578063c0ef49b21461085b578063c1d693c614610886578063cad1699d146108b157610272565b806396ecb7e71161010857806396ecb7e7146106ff5780639b8040241461073c5780639ce0e1f314610758578063b84b3de414610783578063b8ca8dd8146107ae578063ba66d59b146107ca57610272565b806384be1374146106135780638ab935fe146106505780638da5cb5b1461067b5780638fdd5aad146106a657806394a19c8e146106c257610272565b8063323b52d7116101dd578063665905bd116101a1578063665905bd146105155780636ff5ede314610540578063701ca40e1461056b578063715018a61461059657806372ea6f62146105ad578063825747cb146105d657610272565b8063323b52d714610446578063353308851461046f5780633ccdbb281461049a578063595b8487146104c357806364e53547146104ec57610272565b80631f0457641161022f5780631f0457641461034557806321003bce146103705780632183f52d1461039957806321fb335c146103c4578063254eaca814610401578063298fc1781461041d57610272565b8063025ecb321461027457806302cd9d071461029f57806305cf4abd146102c857806306fdde03146102f15780631d112f431461031c57610272565b3661027257005b005b34801561028057600080fd5b506102896109ef565b6040516102969190612e5e565b60405180910390f35b3480156102ab57600080fd5b506102c660048036038101906102c19190612ec3565b610a15565b005b3480156102d457600080fd5b506102ef60048036038101906102ea9190612f26565b610a27565b005b3480156102fd57600080fd5b50610306610a39565b6040516103139190612fe3565b60405180910390f35b34801561032857600080fd5b50610343600480360381019061033e9190613031565b610ac7565b005b34801561035157600080fd5b5061035a610b54565b604051610367919061306d565b60405180910390f35b34801561037c57600080fd5b5061039760048036038101906103929190612f26565b610b5a565b005b3480156103a557600080fd5b506103ae610b6c565b6040516103bb9190612e5e565b60405180910390f35b3480156103d057600080fd5b506103eb60048036038101906103e691906131d0565b610b92565b6040516103f8919061326e565b60405180910390f35b61041b60048036038101906104169190612ec3565b610c65565b005b34801561042957600080fd5b50610444600480360381019061043f9190613031565b610e43565b005b34801561045257600080fd5b5061046d600480360381019061046891906132c3565b610e8f565b005b34801561047b57600080fd5b50610484610eb7565b60405161049191906132ff565b60405180910390f35b3480156104a657600080fd5b506104c160048036038101906104bc919061331a565b610ebd565b005b3480156104cf57600080fd5b506104ea60048036038101906104e591906133ad565b610ed5565b005b3480156104f857600080fd5b50610513600480360381019061050e9190613031565b610f09565b005b34801561052157600080fd5b5061052a610f96565b6040516105379190612e5e565b60405180910390f35b34801561054c57600080fd5b50610555610fbc565b6040516105629190613439565b60405180910390f35b34801561057757600080fd5b50610580610fe2565b60405161058d9190613463565b60405180910390f35b3480156105a257600080fd5b506105ab610ffc565b005b3480156105b957600080fd5b506105d460048036038101906105cf9190612f26565b611010565b005b3480156105e257600080fd5b506105fd60048036038101906105f89190612ec3565b611022565b60405161060a9190613463565b60405180910390f35b34801561061f57600080fd5b5061063a60048036038101906106359190613ade565b611079565b604051610647919061306d565b60405180910390f35b34801561065c57600080fd5b506106656110db565b60405161067291906132ff565b60405180910390f35b34801561068757600080fd5b506106906110e1565b60405161069d9190612e5e565b60405180910390f35b6106c060048036038101906106bb9190612ec3565b61110a565b005b3480156106ce57600080fd5b506106e960048036038101906106e491906133ad565b61121f565b6040516106f6919061326e565b60405180910390f35b34801561070b57600080fd5b5061072660048036038101906107219190612f26565b6112db565b604051610733919061326e565b60405180910390f35b61075660048036038101906107519190613b27565b6112fb565b005b34801561076457600080fd5b5061076d611590565b60405161077a9190612e5e565b60405180910390f35b34801561078f57600080fd5b506107986115b6565b6040516107a5919061306d565b60405180910390f35b6107c860048036038101906107c39190613c0d565b6115bc565b005b3480156107d657600080fd5b506107f160048036038101906107ec9190613031565b61169f565b005b3480156107ff57600080fd5b506108086116eb565b6040516108159190613c5c565b60405180910390f35b34801561082a57600080fd5b5061084560048036038101906108409190612f26565b6116ff565b604051610852919061326e565b60405180910390f35b34801561086757600080fd5b5061087061171f565b60405161087d9190612e5e565b60405180910390f35b34801561089257600080fd5b5061089b611745565b6040516108a8919061306d565b60405180910390f35b3480156108bd57600080fd5b506108d860048036038101906108d39190613031565b61174b565b005b3480156108e657600080fd5b506108ef611797565b6040516108fc9190613439565b60405180910390f35b34801561091157600080fd5b5061091a6117bd565b60405161092791906132ff565b60405180910390f35b34801561093c57600080fd5b5061095760048036038101906109529190613031565b6117c3565b005b34801561096557600080fd5b50610980600480360381019061097b9190613d0b565b611849565b60405161098d919061306d565b60405180910390f35b6109b060048036038101906109ab9190613d54565b611897565b005b3480156109be57600080fd5b506109d960048036038101906109d49190613031565b61204d565b6040516109e69190612e5e565b60405180910390f35b600f60009054906101000a900473ffffffffffffffffffffffffffffffffffffffff1681565b610a1d612080565b8060118190555050565b610a2f612080565b80600a8190555050565b60028054610a4690613e10565b80601f0160208091040260200160405190810160405280929190818152602001828054610a7290613e10565b8015610abf5780601f10610a9457610100808354040283529160200191610abf565b820191906000526020600020905b815481529060010190602001808311610aa257829003601f168201915b505050505081565b610acf612080565b80600460006101000a81548173ffffffffffffffffffffffffffffffffffffffff021916908373ffffffffffffffffffffffffffffffffffffffff16021790555080600560006101000a81548173ffffffffffffffffffffffffffffffffffffffff021916908373ffffffffffffffffffffffffffffffffffffffff16021790555050565b600a5481565b610b62612080565b8060098190555050565b600460009054906101000a900473ffffffffffffffffffffffffffffffffffffffff1681565b60008083905060005b8651811015610c56576000878281518110610bb957610bb8613e41565b5b602002602001015190506000600286610bd29190613e9f565b03610c07578281604051602001610bea929190613ef1565b604051602081830303815290604052805190602001209250610c33565b8083604051602001610c1a929190613ef1565b6040516020818303038152906040528051906020012092505b600285610c409190613f4c565b9450508080610c4e90613f7d565b915050610b9b565b50848114915050949350505050565b610c6d612107565b60008061271083601154610c819190613fc5565b610c8b9190613e9f565b03610c995760009050610c9e565b600190505b60008161271084601154610cb29190613fc5565b610cbc9190613f4c565b610cc69190614007565b905060008111610d0b576040517f08c379a0000000000000000000000000000000000000000000000000000000008152600401610d0290614087565b60405180910390fd5b3373ffffffffffffffffffffffffffffffffffffffff167fe515410dffdf5490351286176f64882b88706ff8412d9a5248380c3b0a0b005e8285610d4f91906140a7565b604051610d5c91906132ff565b60405180910390a2610d9c600460009054906101000a900473ffffffffffffffffffffffffffffffffffffffff16308386610d9791906140a7565b61214d565b600460009054906101000a900473ffffffffffffffffffffffffffffffffffffffff1673ffffffffffffffffffffffffffffffffffffffff16639dc29fac308386610de791906140a7565b6040518363ffffffff1660e01b8152600401610e049291906140db565b600060405180830381600087803b158015610e1e57600080fd5b505af1158015610e32573d6000803e3d6000fd5b505050505050610e406121cc565b50565b610e4b612080565b80600f60006101000a81548173ffffffffffffffffffffffffffffffffffffffff021916908373ffffffffffffffffffffffffffffffffffffffff16021790555050565b610e97612080565b80600c60006101000a81548161ffff021916908361ffff16021790555050565b60035481565b610ec5612080565b610ed083828461214d565b505050565b610edd612080565b80600c60026101000a81548167ffffffffffffffff021916908367ffffffffffffffff16021790555050565b610f11612080565b80600660006101000a81548173ffffffffffffffffffffffffffffffffffffffff021916908373ffffffffffffffffffffffffffffffffffffffff16021790555080600760006101000a81548173ffffffffffffffffffffffffffffffffffffffff021916908373ffffffffffffffffffffffffffffffffffffffff16021790555050565b600860009054906101000a900473ffffffffffffffffffffffffffffffffffffffff1681565b600760009054906101000a900473ffffffffffffffffffffffffffffffffffffffff1681565b600c60029054906101000a900467ffffffffffffffff1681565b611004612080565b61100e60006121d5565b565b611018612080565b80600b8190555050565b600067ffffffffffffffff8016821115611071576040517f08c379a000000000000000000000000000000000000000000000000000000000815260040161106890614150565b60405180910390fd5b819050919050565b6000816000015182602001518360400151846060015161109c8660800151612299565b6110a98760a001516122e5565b6040516020016110be969594939291906141a6565b604051602081830303815290604052805190602001209050919050565b60125481565b60008060009054906101000a900473ffffffffffffffffffffffffffffffffffffffff16905090565b611112612107565b600080612710836011546111269190613fc5565b6111309190613e9f565b0361113e5760009050611143565b600190505b600081612710846011546111579190613fc5565b6111619190613f4c565b61116b9190614007565b905080833461117a91906140a7565b10156111bb576040517f08c379a00000000000000000000000000000000000000000000000000000000081526004016111b290614087565b60405180910390fd5b600081116111fe576040517f08c379a00000000000000000000000000000000000000000000000000000000081526004016111f590614087565b60405180910390fd5b8260125461120c9190614007565b601281905550505061121c6121cc565b50565b600080600f60009054906101000a900473ffffffffffffffffffffffffffffffffffffffff1673ffffffffffffffffffffffffffffffffffffffff1663dd8621576040518163ffffffff1660e01b8152600401602060405180830381865afa15801561128f573d6000803e3d6000fd5b505050506040513d601f19601f820116820180604052508101906112b3919061422b565b90508267ffffffffffffffff168110156112d057600091506112d5565b600191505b50919050565b600d6020528060005260406000206000915054906101000a900460ff1681565b611303612107565b611311898686868686612352565b6000600f60009054906101000a900473ffffffffffffffffffffffffffffffffffffffff1673ffffffffffffffffffffffffffffffffffffffff16633c70b357886040518263ffffffff1660e01b815260040161136e91906132ff565b602060405180830381865afa15801561138b573d6000803e3d6000fd5b505050506040513d601f19601f820116820180604052508101906113af919061426d565b90506113c28a8a8a8a8a8a8a8a8a6125b2565b60006113ea8a838c8c815181106113dc576113db613e41565b5b60200260200101518c610b92565b90506001151581151514611433576040517f08c379a000000000000000000000000000000000000000000000000000000000815260040161142a906142e6565b60405180910390fd5b8a156114cd57600460009054906101000a900473ffffffffffffffffffffffffffffffffffffffff1673ffffffffffffffffffffffffffffffffffffffff166340c10f1933856040518363ffffffff1660e01b81526004016114969291906140db565b600060405180830381600087803b1580156114b057600080fd5b505af11580156114c4573d6000803e3d6000fd5b5050505061157b565b60003373ffffffffffffffffffffffffffffffffffffffff16846040516114f390614337565b60006040518083038185875af1925050503d8060008114611530576040519150601f19603f3d011682016040523d82523d6000602084013e611535565b606091505b5050905080611579576040517f08c379a000000000000000000000000000000000000000000000000000000000815260040161157090614398565b60405180910390fd5b505b50506115856121cc565b505050505050505050565b601060009054906101000a900473ffffffffffffffffffffffffffffffffffffffff1681565b600b5481565b6115c4612080565b6115cc612107565b601254476115da91906140a7565b8211156115e657600080fd5b60008173ffffffffffffffffffffffffffffffffffffffff168360405161160c90614337565b60006040518083038185875af1925050503d8060008114611649576040519150601f19603f3d011682016040523d82523d6000602084013e61164e565b606091505b5050905080611692576040517f08c379a000000000000000000000000000000000000000000000000000000000815260040161168990614398565b60405180910390fd5b5061169b6121cc565b5050565b6116a7612080565b80601060006101000a81548173ffffffffffffffffffffffffffffffffffffffff021916908373ffffffffffffffffffffffffffffffffffffffff16021790555050565b600c60009054906101000a900461ffff1681565b600e6020528060005260406000206000915054906101000a900460ff1681565b600660009054906101000a900473ffffffffffffffffffffffffffffffffffffffff1681565b60095481565b611753612080565b80600860006101000a81548173ffffffffffffffffffffffffffffffffffffffff021916908373ffffffffffffffffffffffffffffffffffffffff16021790555050565b600560009054906101000a900473ffffffffffffffffffffffffffffffffffffffff1681565b60115481565b6117cb612080565b600073ffffffffffffffffffffffffffffffffffffffff168173ffffffffffffffffffffffffffffffffffffffff160361183d5760006040517f1e4fbdf70000000000000000000000000000000000000000000000000000000081526004016118349190612e5e565b60405180910390fd5b611846816121d5565b50565b60008160000151826020015183604001516118678560600151612299565b60405160200161187a94939291906143b8565b604051602081830303815290604052805190602001209050919050565b61189f612107565b6000866040516020016118b2919061444e565b60405160208183030381529060405280519060200120866040516020016118d99190614469565b604051602081830303815290604052805190602001208660405160200161190091906144a5565b604051602081830303815290604052805190602001208660405160200161192791906144a5565b604051602081830303815290604052805190602001208660405160200161194e91906144a5565b604051602081830303815290604052805190602001208660405160200161197591906144a5565b604051602081830303815290604052805190602001203360405160200161199c9190614508565b604051602081830303815290604052805190602001206040516020016119c89796959493929190614523565b60405160208183030381529060405280519060200120905060001515600d600083815260200190815260200160002060009054906101000a900460ff16151514611a47576040517f08c379a0000000000000000000000000000000000000000000000000000000008152600401611a3e906145f0565b60405180910390fd5b60011515600d600083815260200190815260200160002060009054906101000a9050505060001515600e600083815260200190815260200160002060009054906101000a900460ff16151514611ad2576040517f08c379a0000000000000000000000000000000000000000000000000000000008152600401611ac990614682565b60405180910390fd5b606080600080600167ffffffffffffffff811115611af357611af261308d565b5b604051908082528060200260200182016040528015611b215781602001602082028036833780820191505090505b5090503373ffffffffffffffffffffffffffffffffffffffff1660001b81600081518110611b5257611b51613e41565b5b6020026020010181815250508a15611c105760009150600067ffffffffffffffff811115611b8357611b8261308d565b5b604051908082528060200260200182016040528015611bb15781602001602082028036833780820191505090505b509350600067ffffffffffffffff811115611bcf57611bce61308d565b5b604051908082528060200260200182016040528015611c0857816020015b611bf5612dd0565b815260200190600190039081611bed5790505b509250611d95565b60019150600167ffffffffffffffff811115611c2f57611c2e61308d565b5b604051908082528060200260200182016040528015611c5d5781602001602082028036833780820191505090505b509350600084600081518110611c7657611c75613e41565b5b602002602001019063ffffffff16908163ffffffff1681525050600167ffffffffffffffff811115611cab57611caa61308d565b5b604051908082528060200260200182016040528015611ce457816020015b611cd1612dd0565b815260200190600190039081611cc95790505b50925060006040518060a00160405280600063ffffffff168152602001600860009054906101000a900473ffffffffffffffffffffffffffffffffffffffff1673ffffffffffffffffffffffffffffffffffffffff16815260200183815260200188604051602001611d5691906144a5565b60405160208183030381529060405281526020016000151581525090508084600081518110611d8857611d87613e41565b5b6020026020010181905250505b60006040518060a001604052808c8152602001600c60009054906101000a900461ffff1661ffff168152602001600115158152602001841515815260200186815250905060006040518061012001604052808c81526020018b81526020013373ffffffffffffffffffffffffffffffffffffffff168152602001600015158152602001600860009054906101000a900473ffffffffffffffffffffffffffffffffffffffff1673ffffffffffffffffffffffffffffffffffffffff1681526020018a815260200189604051602001611e6d91906144a5565b6040516020818303038152906040528152602001600160ff16815260200186815250905060006040518060c001604052806009548152602001600a548152602001600067ffffffffffffffff168152602001600c60029054906101000a900467ffffffffffffffff1667ffffffffffffffff168152602001848152602001838152509050600081604051602001611f049190614c2a565b604051602081830303815290604052805190602001209050600060405180608001604052806009548152602001600a548152602001838152602001868152509050600081600001518260200151836060015160000151846060015160200151856060015160400151866060015160600151876060015160800151604051602001611f949796959493929190614cce565b6040516020818303038152906040529050600f60009054906101000a900473ffffffffffffffffffffffffffffffffffffffff1673ffffffffffffffffffffffffffffffffffffffff1663f64b6fda826040518263ffffffff1660e01b81526004016120009190614d8e565b600060405180830381600087803b15801561201a57600080fd5b505af115801561202e573d6000803e3d6000fd5b5050505050505050505050505050506120456121cc565b505050505050565b60136020528060005260406000206000915054906101000a900473ffffffffffffffffffffffffffffffffffffffff1681565b612088612a4e565b73ffffffffffffffffffffffffffffffffffffffff166120a66110e1565b73ffffffffffffffffffffffffffffffffffffffff1614612105576120c9612a4e565b6040517f118cdaa70000000000000000000000000000000000000000000000000000000081526004016120fc9190612e5e565b60405180910390fd5b565b600260015403612143576040517f3ee5aeb500000000000000000000000000000000000000000000000000000000815260040160405180910390fd5b6002600181905550565b6121c7838473ffffffffffffffffffffffffffffffffffffffff1663a9059cbb85856040516024016121809291906140db565b604051602081830303815290604052915060e01b6020820180517bffffffffffffffffffffffffffffffffffffffffffffffffffffffff8381831617835250505050612a56565b505050565b60018081905550565b60008060009054906101000a900473ffffffffffffffffffffffffffffffffffffffff169050816000806101000a81548173ffffffffffffffffffffffffffffffffffffffff021916908373ffffffffffffffffffffffffffffffffffffffff1602179055508173ffffffffffffffffffffffffffffffffffffffff168173ffffffffffffffffffffffffffffffffffffffff167f8be0079c531659141344cd1fd0a4f28419497f9722a3daafe3b4186f6b6457e060405160405180910390a35050565b6000816000015182602001518360400151846060015185608001516040516020016122c8959493929190614e76565b604051602081830303815290604052805190602001209050919050565b6000816000015182602001518360400151846060015185608001518660a001518760c001518860e0015161231d8a6101000151612aed565b60405160200161233599989796959493929190614f19565b604051602081830303815290604052805190602001209050919050565b600086604051602001612365919061444e565b604051602081830303815290604052805190602001208660405160200161238c9190614469565b60405160208183030381529060405280519060200120866040516020016123b391906144a5565b60405160208183030381529060405280519060200120866040516020016123da91906144a5565b604051602081830303815290604052805190602001208660405160200161240191906144a5565b604051602081830303815290604052805190602001208660405160200161242891906144a5565b604051602081830303815290604052805190602001203360405160200161244f9190614508565b6040516020818303038152906040528051906020012060405160200161247b9796959493929190614523565b60405160208183030381529060405280519060200120905060011515600d600083815260200190815260200160002060009054906101000a900460ff161515146124fa576040517f08c379a00000000000000000000000000000000000000000000000000000000081526004016124f1906145f0565b60405180910390fd5b60011515600d600083815260200190815260200160002060009054906101000a9050505060001515600e600083815260200190815260200160002060009054906101000a900460ff16151514612585576040517f08c379a000000000000000000000000000000000000000000000000000000000815260040161257c90614682565b60405180910390fd5b60011515600e600083815260200190815260200160002060009054906101000a9050505050505050505050565b606080600080600167ffffffffffffffff8111156125d3576125d261308d565b5b6040519080825280602002602001820160405280156126015781602001602082028036833780820191505090505b5090503373ffffffffffffffffffffffffffffffffffffffff1660001b8160008151811061263257612631613e41565b5b6020026020010181815250508c156126f05760009150600067ffffffffffffffff8111156126635761266261308d565b5b6040519080825280602002602001820160405280156126915781602001602082028036833780820191505090505b509350600067ffffffffffffffff8111156126af576126ae61308d565b5b6040519080825280602002602001820160405280156126e857816020015b6126d5612dd0565b8152602001906001900390816126cd5790505b509250612875565b60019150600167ffffffffffffffff81111561270f5761270e61308d565b5b60405190808252806020026020018201604052801561273d5781602001602082028036833780820191505090505b50935060008460008151811061275657612755613e41565b5b602002602001019063ffffffff16908163ffffffff1681525050600167ffffffffffffffff81111561278b5761278a61308d565b5b6040519080825280602002602001820160405280156127c457816020015b6127b1612dd0565b8152602001906001900390816127a95790505b50925060006040518060a00160405280600063ffffffff168152602001600860009054906101000a900473ffffffffffffffffffffffffffffffffffffffff1673ffffffffffffffffffffffffffffffffffffffff1681526020018381526020018760405160200161283691906144a5565b6040516020818303038152906040528152602001600015158152509050808460008151811061286857612867613e41565b5b6020026020010181905250505b60006040518060a001604052808b8152602001600c60009054906101000a900461ffff1661ffff168152602001600115158152602001841515815260200186815250905060006040518061012001604052808b81526020018a81526020013373ffffffffffffffffffffffffffffffffffffffff168152602001600015158152602001600860009054906101000a900473ffffffffffffffffffffffffffffffffffffffff1673ffffffffffffffffffffffffffffffffffffffff1681526020018981526020018860405160200161294d91906144a5565b6040516020818303038152906040528152602001600160ff16815260200186815250905060006040518060c001604052806009548152602001600a5481526020016129978f611022565b67ffffffffffffffff168152602001600c60029054906101000a900467ffffffffffffffff1667ffffffffffffffff1681526020018481526020018381525090508e8e815181106129eb576129ea613e41565b5b60200260200101516129fc82611079565b14612a3c576040517f08c379a0000000000000000000000000000000000000000000000000000000008152600401612a339061502a565b60405180910390fd5b50505050505050505050505050505050565b600033905090565b6000612a81828473ffffffffffffffffffffffffffffffffffffffff16612bcd90919063ffffffff16565b90506000815114158015612aa6575080806020019051810190612aa4919061505f565b155b15612ae857826040517f5274afe7000000000000000000000000000000000000000000000000000000008152600401612adf9190612e5e565b60405180910390fd5b505050565b600080825167ffffffffffffffff811115612b0b57612b0a61308d565b5b604051908082528060200260200182016040528015612b395781602001602082028036833780820191505090505b50905060005b8351811015612b9d57612b6b848281518110612b5e57612b5d613e41565b5b6020026020010151612be3565b828281518110612b7e57612b7d613e41565b5b6020026020010181815250508080612b9590613f7d565b915050612b3f565b5080604051602001612baf919061511c565b60405160208183030381529060405280519060200120915050919050565b6060612bdb83836000612c2f565b905092915050565b600081600001518260200151836040015184606001518560800151604051602001612c12959493929190615169565b604051602081830303815290604052805190602001209050919050565b606081471015612c7657306040517fcd786059000000000000000000000000000000000000000000000000000000008152600401612c6d9190612e5e565b60405180910390fd5b6000808573ffffffffffffffffffffffffffffffffffffffff168486604051612c9f91906151c0565b60006040518083038185875af1925050503d8060008114612cdc576040519150601f19603f3d011682016040523d82523d6000602084013e612ce1565b606091505b5091509150612cf1868383612cfc565b925050509392505050565b606082612d1157612d0c82612d8b565b612d83565b60008251148015612d39575060008473ffffffffffffffffffffffffffffffffffffffff163b145b15612d7b57836040517f9996b315000000000000000000000000000000000000000000000000000000008152600401612d729190612e5e565b60405180910390fd5b819050612d84565b5b9392505050565b600081511115612d9e5780518082602001fd5b6040517f1425ea4200000000000000000000000000000000000000000000000000000000815260040160405180910390fd5b6040518060a00160405280600063ffffffff168152602001600073ffffffffffffffffffffffffffffffffffffffff16815260200160608152602001606081526020016000151581525090565b600073ffffffffffffffffffffffffffffffffffffffff82169050919050565b6000612e4882612e1d565b9050919050565b612e5881612e3d565b82525050565b6000602082019050612e736000830184612e4f565b92915050565b6000604051905090565b600080fd5b600080fd5b6000819050919050565b612ea081612e8d565b8114612eab57600080fd5b50565b600081359050612ebd81612e97565b92915050565b600060208284031215612ed957612ed8612e83565b5b6000612ee784828501612eae565b91505092915050565b6000819050919050565b612f0381612ef0565b8114612f0e57600080fd5b50565b600081359050612f2081612efa565b92915050565b600060208284031215612f3c57612f3b612e83565b5b6000612f4a84828501612f11565b91505092915050565b600081519050919050565b600082825260208201905092915050565b60005b83811015612f8d578082015181840152602081019050612f72565b60008484015250505050565b6000601f19601f8301169050919050565b6000612fb582612f53565b612fbf8185612f5e565b9350612fcf818560208601612f6f565b612fd881612f99565b840191505092915050565b60006020820190508181036000830152612ffd8184612faa565b905092915050565b61300e81612e3d565b811461301957600080fd5b50565b60008135905061302b81613005565b92915050565b60006020828403121561304757613046612e83565b5b60006130558482850161301c565b91505092915050565b61306781612ef0565b82525050565b6000602082019050613082600083018461305e565b92915050565b600080fd5b7f4e487b7100000000000000000000000000000000000000000000000000000000600052604160045260246000fd5b6130c582612f99565b810181811067ffffffffffffffff821117156130e4576130e361308d565b5b80604052505050565b60006130f7612e79565b905061310382826130bc565b919050565b600067ffffffffffffffff8211156131235761312261308d565b5b602082029050602081019050919050565b600080fd5b600061314c61314784613108565b6130ed565b9050808382526020820190506020840283018581111561316f5761316e613134565b5b835b8181101561319857806131848882612f11565b845260208401935050602081019050613171565b5050509392505050565b600082601f8301126131b7576131b6613088565b5b81356131c7848260208601613139565b91505092915050565b600080600080608085870312156131ea576131e9612e83565b5b600085013567ffffffffffffffff81111561320857613207612e88565b5b613214878288016131a2565b945050602061322587828801612f11565b935050604061323687828801612f11565b925050606061324787828801612eae565b91505092959194509250565b60008115159050919050565b61326881613253565b82525050565b6000602082019050613283600083018461325f565b92915050565b600061ffff82169050919050565b6132a081613289565b81146132ab57600080fd5b50565b6000813590506132bd81613297565b92915050565b6000602082840312156132d9576132d8612e83565b5b60006132e7848285016132ae565b91505092915050565b6132f981612e8d565b82525050565b600060208201905061331460008301846132f0565b92915050565b60008060006060848603121561333357613332612e83565b5b60006133418682870161301c565b935050602061335286828701612eae565b92505060406133638682870161301c565b9150509250925092565b600067ffffffffffffffff82169050919050565b61338a8161336d565b811461339557600080fd5b50565b6000813590506133a781613381565b92915050565b6000602082840312156133c3576133c2612e83565b5b60006133d184828501613398565b91505092915050565b6000819050919050565b60006133ff6133fa6133f584612e1d565b6133da565b612e1d565b9050919050565b6000613411826133e4565b9050919050565b600061342382613406565b9050919050565b61343381613418565b82525050565b600060208201905061344e600083018461342a565b92915050565b61345d8161336d565b82525050565b60006020820190506134786000830184613454565b92915050565b600080fd5b600080fd5b61349181613253565b811461349c57600080fd5b50565b6000813590506134ae81613488565b92915050565b600067ffffffffffffffff8211156134cf576134ce61308d565b5b602082029050602081019050919050565b600063ffffffff82169050919050565b6134f9816134e0565b811461350457600080fd5b50565b600081359050613516816134f0565b92915050565b600061352f61352a846134b4565b6130ed565b9050808382526020820190506020840283018581111561355257613551613134565b5b835b8181101561357b57806135678882613507565b845260208401935050602081019050613554565b5050509392505050565b600082601f83011261359a57613599613088565b5b81356135aa84826020860161351c565b91505092915050565b600060a082840312156135c9576135c861347e565b5b6135d360a06130ed565b905060006135e384828501612f11565b60008301525060206135f7848285016132ae565b602083015250604061360b8482850161349f565b604083015250606061361f8482850161349f565b606083015250608082013567ffffffffffffffff81111561364357613642613483565b5b61364f84828501613585565b60808301525092915050565b600080fd5b600067ffffffffffffffff82111561367b5761367a61308d565b5b61368482612f99565b9050602081019050919050565b82818337600083830152505050565b60006136b36136ae84613660565b6130ed565b9050828152602081018484840111156136cf576136ce61365b565b5b6136da848285613691565b509392505050565b600082601f8301126136f7576136f6613088565b5b81356137078482602086016136a0565b91505092915050565b600060ff82169050919050565b61372681613710565b811461373157600080fd5b50565b6000813590506137438161371d565b92915050565b600067ffffffffffffffff8211156137645761376361308d565b5b602082029050602081019050919050565b600060a0828403121561378b5761378a61347e565b5b61379560a06130ed565b905060006137a584828501613507565b60008301525060206137b98482850161301c565b602083015250604082013567ffffffffffffffff8111156137dd576137dc613483565b5b6137e9848285016131a2565b604083015250606082013567ffffffffffffffff81111561380d5761380c613483565b5b613819848285016136e2565b606083015250608061382d8482850161349f565b60808301525092915050565b600061384c61384784613749565b6130ed565b9050808382526020820190506020840283018581111561386f5761386e613134565b5b835b818110156138b657803567ffffffffffffffff81111561389457613893613088565b5b8086016138a18982613775565b85526020850194505050602081019050613871565b5050509392505050565b600082601f8301126138d5576138d4613088565b5b81356138e5848260208601613839565b91505092915050565b600061012082840312156139055761390461347e565b5b6139106101206130ed565b9050600061392084828501612eae565b600083015250602061393484828501612eae565b60208301525060406139488482850161301c565b604083015250606061395c8482850161349f565b60608301525060806139708482850161301c565b60808301525060a061398484828501612eae565b60a08301525060c082013567ffffffffffffffff8111156139a8576139a7613483565b5b6139b4848285016136e2565b60c08301525060e06139c884828501613734565b60e08301525061010082013567ffffffffffffffff8111156139ed576139ec613483565b5b6139f9848285016138c0565b6101008301525092915050565b600060c08284031215613a1c57613a1b61347e565b5b613a2660c06130ed565b90506000613a3684828501612f11565b6000830152506020613a4a84828501612f11565b6020830152506040613a5e84828501613398565b6040830152506060613a7284828501613398565b606083015250608082013567ffffffffffffffff811115613a9657613a95613483565b5b613aa2848285016135b3565b60808301525060a082013567ffffffffffffffff811115613ac657613ac5613483565b5b613ad2848285016138ee565b60a08301525092915050565b600060208284031215613af457613af3612e83565b5b600082013567ffffffffffffffff811115613b1257613b11612e88565b5b613b1e84828501613a06565b91505092915050565b60008060008060008060008060006101208a8c031215613b4a57613b49612e83565b5b6000613b588c828d0161349f565b99505060208a013567ffffffffffffffff811115613b7957613b78612e88565b5b613b858c828d016131a2565b9850506040613b968c828d01612eae565b9750506060613ba78c828d01612eae565b9650506080613bb88c828d01612f11565b95505060a0613bc98c828d01612eae565b94505060c0613bda8c828d01612eae565b93505060e0613beb8c828d01612eae565b925050610100613bfd8c828d01612eae565b9150509295985092959850929598565b60008060408385031215613c2457613c23612e83565b5b6000613c3285828601612eae565b9250506020613c438582860161301c565b9150509250929050565b613c5681613289565b82525050565b6000602082019050613c716000830184613c4d565b92915050565b600060808284031215613c8d57613c8c61347e565b5b613c9760806130ed565b90506000613ca784828501612f11565b6000830152506020613cbb84828501612f11565b6020830152506040613ccf84828501612f11565b604083015250606082013567ffffffffffffffff811115613cf357613cf2613483565b5b613cff848285016135b3565b60608301525092915050565b600060208284031215613d2157613d20612e83565b5b600082013567ffffffffffffffff811115613d3f57613d3e612e88565b5b613d4b84828501613c77565b91505092915050565b60008060008060008060c08789031215613d7157613d70612e83565b5b6000613d7f89828a0161349f565b9650506020613d9089828a01612f11565b9550506040613da189828a01612eae565b9450506060613db289828a01612eae565b9350506080613dc389828a01612eae565b92505060a0613dd489828a01612eae565b9150509295509295509295565b7f4e487b7100000000000000000000000000000000000000000000000000000000600052602260045260246000fd5b60006002820490506001821680613e2857607f821691505b602082108103613e3b57613e3a613de1565b5b50919050565b7f4e487b7100000000000000000000000000000000000000000000000000000000600052603260045260246000fd5b7f4e487b7100000000000000000000000000000000000000000000000000000000600052601260045260246000fd5b6000613eaa82612e8d565b9150613eb583612e8d565b925082613ec557613ec4613e70565b5b828206905092915050565b6000819050919050565b613eeb613ee682612ef0565b613ed0565b82525050565b6000613efd8285613eda565b602082019150613f0d8284613eda565b6020820191508190509392505050565b7f4e487b7100000000000000000000000000000000000000000000000000000000600052601160045260246000fd5b6000613f5782612e8d565b9150613f6283612e8d565b925082613f7257613f71613e70565b5b828204905092915050565b6000613f8882612e8d565b91507fffffffffffffffffffffffffffffffffffffffffffffffffffffffffffffffff8203613fba57613fb9613f1d565b5b600182019050919050565b6000613fd082612e8d565b9150613fdb83612e8d565b9250828202613fe981612e8d565b9150828204841483151761400057613fff613f1d565b5b5092915050565b600061401282612e8d565b915061401d83612e8d565b925082820190508082111561403557614034613f1d565b5b92915050565b7f6e6f7420656e6f75676820666565000000000000000000000000000000000000600082015250565b6000614071600e83612f5e565b915061407c8261403b565b602082019050919050565b600060208201905081810360008301526140a081614064565b9050919050565b60006140b282612e8d565b91506140bd83612e8d565b92508282039050818111156140d5576140d4613f1d565b5b92915050565b60006040820190506140f06000830185612e4f565b6140fd60208301846132f0565b9392505050565b7f56616c756520657863656564732075696e7436342072616e6765000000000000600082015250565b600061413a601a83612f5e565b915061414582614104565b602082019050919050565b600060208201905081810360008301526141698161412d565b9050919050565b60008160c01b9050919050565b600061418882614170565b9050919050565b6141a061419b8261336d565b61417d565b82525050565b60006141b28289613eda565b6020820191506141c28288613eda565b6020820191506141d2828761418f565b6008820191506141e2828661418f565b6008820191506141f28285613eda565b6020820191506142028284613eda565b602082019150819050979650505050505050565b60008151905061422581612e97565b92915050565b60006020828403121561424157614240612e83565b5b600061424f84828501614216565b91505092915050565b60008151905061426781612efa565b92915050565b60006020828403121561428357614282612e83565b5b600061429184828501614258565b91505092915050565b7f7472616e73616374696f6e206973206e6f742070726f6f766564000000000000600082015250565b60006142d0601a83612f5e565b91506142db8261429a565b602082019050919050565b600060208201905081810360008301526142ff816142c3565b9050919050565b600081905092915050565b50565b6000614321600083614306565b915061432c82614311565b600082019050919050565b600061434282614314565b9150819050919050565b7f4661696c656420746f2073656e64204574686572000000000000000000000000600082015250565b6000614382601483612f5e565b915061438d8261434c565b602082019050919050565b600060208201905081810360008301526143b181614375565b9050919050565b60006143c48287613eda565b6020820191506143d48286613eda565b6020820191506143e48285613eda565b6020820191506143f48284613eda565b60208201915081905095945050505050565b60008160f81b9050919050565b600061441e82614406565b9050919050565b600061443082614413565b9050919050565b61444861444382613253565b614425565b82525050565b600061445a8284614437565b60018201915081905092915050565b60006144758284613eda565b60208201915081905092915050565b6000819050919050565b61449f61449a82612e8d565b614484565b82525050565b60006144b1828461448e565b60208201915081905092915050565b60008160601b9050919050565b60006144d8826144c0565b9050919050565b60006144ea826144cd565b9050919050565b6145026144fd82612e3d565b6144df565b82525050565b600061451482846144f1565b60148201915081905092915050565b600061452f828a613eda565b60208201915061453f8289613eda565b60208201915061454f8288613eda565b60208201915061455f8287613eda565b60208201915061456f8286613eda565b60208201915061457f8285613eda565b60208201915061458f8284613eda565b60208201915081905098975050505050505050565b7f746865206461746120697320616c726561647920757365640000000000000000600082015250565b60006145da601883612f5e565b91506145e5826145a4565b602082019050919050565b60006020820190508181036000830152614609816145cd565b9050919050565b7f746865206461746120697320616c7265616479207573656420616e642077697460008201527f68646177616c2068617070656e64000000000000000000000000000000000000602082015250565b600061466c602e83612f5e565b915061467782614610565b604082019050919050565b6000602082019050818103600083015261469b8161465f565b9050919050565b6146ab81612ef0565b82525050565b6146ba8161336d565b82525050565b6146c981613289565b82525050565b6146d881613253565b82525050565b600081519050919050565b600082825260208201905092915050565b6000819050602082019050919050565b614713816134e0565b82525050565b6000614725838361470a565b60208301905092915050565b6000602082019050919050565b6000614749826146de565b61475381856146e9565b935061475e836146fa565b8060005b8381101561478f5781516147768882614719565b975061478183614731565b925050600181019050614762565b5085935050505092915050565b600060a0830160008301516147b460008601826146a2565b5060208301516147c760208601826146c0565b5060408301516147da60408601826146cf565b5060608301516147ed60608601826146cf565b5060808301518482036080860152614805828261473e565b9150508091505092915050565b61481b81612e8d565b82525050565b61482a81612e3d565b82525050565b600081519050919050565b600082825260208201905092915050565b600061485782614830565b614861818561483b565b9350614871818560208601612f6f565b61487a81612f99565b840191505092915050565b61488e81613710565b82525050565b600081519050919050565b600082825260208201905092915050565b6000819050602082019050919050565b600081519050919050565b600082825260208201905092915050565b6000819050602082019050919050565b60006148f883836146a2565b60208301905092915050565b6000602082019050919050565b600061491c826148c0565b61492681856148cb565b9350614931836148dc565b8060005b8381101561496257815161494988826148ec565b975061495483614904565b925050600181019050614935565b5085935050505092915050565b600060a083016000830151614987600086018261470a565b50602083015161499a6020860182614821565b50604083015184820360408601526149b28282614911565b915050606083015184820360608601526149cc828261484c565b91505060808301516149e160808601826146cf565b508091505092915050565b60006149f8838361496f565b905092915050565b6000602082019050919050565b6000614a1882614894565b614a22818561489f565b935083602082028501614a34856148b0565b8060005b85811015614a705784840389528151614a5185826149ec565b9450614a5c83614a00565b925060208a01995050600181019050614a38565b50829750879550505050505092915050565b600061012083016000830151614a9b6000860182614812565b506020830151614aae6020860182614812565b506040830151614ac16040860182614821565b506060830151614ad460608601826146cf565b506080830151614ae76080860182614821565b5060a0830151614afa60a0860182614812565b5060c083015184820360c0860152614b12828261484c565b91505060e0830151614b2760e0860182614885565b50610100830151848203610100860152614b418282614a0d565b9150508091505092915050565b600060c083016000830151614b6660008601826146a2565b506020830151614b7960208601826146a2565b506040830151614b8c60408601826146b1565b506060830151614b9f60608601826146b1565b5060808301518482036080860152614bb7828261479c565b91505060a083015184820360a0860152614bd18282614a82565b9150508091505092915050565b7f466c617265000000000000000000000000000000000000000000000000000000600082015250565b6000614c14600583612f5e565b9150614c1f82614bde565b602082019050919050565b60006040820190508181036000830152614c448184614b4e565b90508181036020830152614c5781614c07565b905092915050565b600082825260208201905092915050565b6000614c7b826146de565b614c858185614c5f565b9350614c90836146fa565b8060005b83811015614cc1578151614ca88882614719565b9750614cb383614731565b925050600181019050614c94565b5085935050505092915050565b600060e082019050614ce3600083018a61305e565b614cf0602083018961305e565b614cfd604083018861305e565b614d0a6060830187613c4d565b614d17608083018661325f565b614d2460a083018561325f565b81810360c0830152614d368184614c70565b905098975050505050505050565b600082825260208201905092915050565b6000614d6082614830565b614d6a8185614d44565b9350614d7a818560208601612f6f565b614d8381612f99565b840191505092915050565b60006020820190508181036000830152614da88184614d55565b905092915050565b60008160f01b9050919050565b6000614dc882614db0565b9050919050565b614de0614ddb82613289565b614dbd565b82525050565b600081905092915050565b614dfa816134e0565b82525050565b6000614e0c8383614df1565b60208301905092915050565b6000614e23826146de565b614e2d8185614de6565b9350614e38836146fa565b8060005b83811015614e69578151614e508882614e00565b9750614e5b83614731565b925050600181019050614e3c565b5085935050505092915050565b6000614e828288613eda565b602082019150614e928287614dcf565b600282019150614ea28286614437565b600182019150614eb28285614437565b600182019150614ec28284614e18565b91508190509695505050505050565b6000614edc82614830565b614ee68185614306565b9350614ef6818560208601612f6f565b80840191505092915050565b614f13614f0e82613710565b614413565b82525050565b6000614f25828c61448e565b602082019150614f35828b61448e565b602082019150614f45828a6144f1565b601482019150614f558289614437565b600182019150614f6582886144f1565b601482019150614f75828761448e565b602082019150614f858286614ed1565b9150614f918285614f02565b600182019150614fa18284613eda565b6020820191508190509a9950505050505050505050565b7f6c656166206973206e6f7420657175616c20746f207265616c20726573706f6e60008201527f7365000000000000000000000000000000000000000000000000000000000000602082015250565b6000615014602283612f5e565b915061501f82614fb8565b604082019050919050565b6000602082019050818103600083015261504381615007565b9050919050565b60008151905061505981613488565b92915050565b60006020828403121561507557615074612e83565b5b60006150838482850161504a565b91505092915050565b600081905092915050565b6150a081612ef0565b82525050565b60006150b28383615097565b60208301905092915050565b60006150c9826148c0565b6150d3818561508c565b93506150de836148dc565b8060005b8381101561510f5781516150f688826150a6565b975061510183614904565b9250506001810190506150e2565b5085935050505092915050565b600061512882846150be565b915081905092915050565b60008160e01b9050919050565b600061514b82615133565b9050919050565b61516361515e826134e0565b615140565b82525050565b60006151758288615152565b60048201915061518582876144f1565b60148201915061519582866150be565b91506151a18285614ed1565b91506151ad8284614437565b6001820191508190509695505050505050565b60006151cc8284614ed1565b91508190509291505056fea26469706673582212203f8c52e870177491302ef96fb3b29269bb54174c979b3ad019590c442b9d47fd64736f6c63430008140033","opcodes":"PUSH1 0x80 PUSH1 0x40 MSTORE CALLVALUE DUP1 ISZERO PUSH3 0x11 JUMPI PUSH1 0x0 DUP1 REVERT JUMPDEST POP PUSH1 0x40 MLOAD PUSH3 0x5938 CODESIZE SUB DUP1 PUSH3 0x5938 DUP4 CODECOPY DUP2 DUP2 ADD PUSH1 0x40 MSTORE DUP2 ADD SWAP1 PUSH3 0x37 SWAP2 SWAP1 PUSH3 0x336 JUMP JUMPDEST CALLER PUSH1 0x0 PUSH20 0xFFFFFFFFFFFFFFFFFFFFFFFFFFFFFFFFFFFFFFFF AND DUP2 PUSH20 0xFFFFFFFFFFFFFFFFFFFFFFFFFFFFFFFFFFFFFFFF AND SUB PUSH3 0xAD JUMPI PUSH1 0x0 PUSH1 0x40 MLOAD PUSH32 0x1E4FBDF700000000000000000000000000000000000000000000000000000000 DUP2 MSTORE PUSH1 0x4 ADD PUSH3 0xA4 SWAP2 SWAP1 PUSH3 0x3CC JUMP JUMPDEST PUSH1 0x40 MLOAD DUP1 SWAP2 SUB SWAP1 REVERT JUMPDEST PUSH3 0xBE DUP2 PUSH3 0xDF PUSH1 0x20 SHL PUSH1 0x20 SHR JUMP JUMPDEST POP PUSH1 0x1 DUP1 DUP2 SWAP1 SSTORE POP DUP1 PUSH1 0x2 SWAP1 DUP2 PUSH3 0xD7 SWAP2 SWAP1 PUSH3 0x634 JUMP JUMPDEST POP POP PUSH3 0x71B JUMP JUMPDEST PUSH1 0x0 DUP1 PUSH1 0x0 SWAP1 SLOAD SWAP1 PUSH2 0x100 EXP SWAP1 DIV PUSH20 0xFFFFFFFFFFFFFFFFFFFFFFFFFFFFFFFFFFFFFFFF AND SWAP1 POP DUP2 PUSH1 0x0 DUP1 PUSH2 0x100 EXP DUP2 SLOAD DUP2 PUSH20 0xFFFFFFFFFFFFFFFFFFFFFFFFFFFFFFFFFFFFFFFF MUL NOT AND SWAP1 DUP4 PUSH20 0xFFFFFFFFFFFFFFFFFFFFFFFFFFFFFFFFFFFFFFFF AND MUL OR SWAP1 SSTORE POP DUP2 PUSH20 0xFFFFFFFFFFFFFFFFFFFFFFFFFFFFFFFFFFFFFFFF AND DUP2 PUSH20 0xFFFFFFFFFFFFFFFFFFFFFFFFFFFFFFFFFFFFFFFF AND PUSH32 0x8BE0079C531659141344CD1FD0A4F28419497F9722A3DAAFE3B4186F6B6457E0 PUSH1 0x40 MLOAD PUSH1 0x40 MLOAD DUP1 SWAP2 SUB SWAP1 LOG3 POP POP JUMP JUMPDEST PUSH1 0x0 PUSH1 0x40 MLOAD SWAP1 POP SWAP1 JUMP JUMPDEST PUSH1 0x0 DUP1 REVERT JUMPDEST PUSH1 0x0 DUP1 REVERT JUMPDEST PUSH1 0x0 DUP1 REVERT JUMPDEST PUSH1 0x0 DUP1 REVERT JUMPDEST PUSH1 0x0 PUSH1 0x1F NOT PUSH1 0x1F DUP4 ADD AND SWAP1 POP SWAP2 SWAP1 POP JUMP JUMPDEST PUSH32 0x4E487B7100000000000000000000000000000000000000000000000000000000 PUSH1 0x0 MSTORE PUSH1 0x41 PUSH1 0x4 MSTORE PUSH1 0x24 PUSH1 0x0 REVERT JUMPDEST PUSH3 0x20C DUP3 PUSH3 0x1C1 JUMP JUMPDEST DUP2 ADD DUP2 DUP2 LT PUSH8 0xFFFFFFFFFFFFFFFF DUP3 GT OR ISZERO PUSH3 0x22E JUMPI PUSH3 0x22D PUSH3 0x1D2 JUMP JUMPDEST JUMPDEST DUP1 PUSH1 0x40 MSTORE POP POP POP JUMP JUMPDEST PUSH1 0x0 PUSH3 0x243 PUSH3 0x1A3 JUMP JUMPDEST SWAP1 POP PUSH3 0x251 DUP3 DUP3 PUSH3 0x201 JUMP JUMPDEST SWAP2 SWAP1 POP JUMP JUMPDEST PUSH1 0x0 PUSH8 0xFFFFFFFFFFFFFFFF DUP3 GT ISZERO PUSH3 0x274 JUMPI PUSH3 0x273 PUSH3 0x1D2 JUMP JUMPDEST JUMPDEST PUSH3 0x27F DUP3 PUSH3 0x1C1 JUMP JUMPDEST SWAP1 POP PUSH1 0x20 DUP2 ADD SWAP1 POP SWAP2 SWAP1 POP JUMP JUMPDEST PUSH1 0x0 JUMPDEST DUP4 DUP2 LT ISZERO PUSH3 0x2AC JUMPI DUP1 DUP3 ADD MLOAD DUP2 DUP5 ADD MSTORE PUSH1 0x20 DUP2 ADD SWAP1 POP PUSH3 0x28F JUMP JUMPDEST PUSH1 0x0 DUP5 DUP5 ADD MSTORE POP POP POP POP JUMP JUMPDEST PUSH1 0x0 PUSH3 0x2CF PUSH3 0x2C9 DUP5 PUSH3 0x256 JUMP JUMPDEST PUSH3 0x237 JUMP JUMPDEST SWAP1 POP DUP3 DUP2 MSTORE PUSH1 0x20 DUP2 ADD DUP5 DUP5 DUP5 ADD GT ISZERO PUSH3 0x2EE JUMPI PUSH3 0x2ED PUSH3 0x1BC JUMP JUMPDEST JUMPDEST PUSH3 0x2FB DUP5 DUP3 DUP6 PUSH3 0x28C JUMP JUMPDEST POP SWAP4 SWAP3 POP POP POP JUMP JUMPDEST PUSH1 0x0 DUP3 PUSH1 0x1F DUP4 ADD SLT PUSH3 0x31B JUMPI PUSH3 0x31A PUSH3 0x1B7 JUMP JUMPDEST JUMPDEST DUP2 MLOAD PUSH3 0x32D DUP5 DUP3 PUSH1 0x20 DUP7 ADD PUSH3 0x2B8 JUMP JUMPDEST SWAP2 POP POP SWAP3 SWAP2 POP POP JUMP JUMPDEST PUSH1 0x0 PUSH1 0x20 DUP3 DUP5 SUB SLT ISZERO PUSH3 0x34F JUMPI PUSH3 0x34E PUSH3 0x1AD JUMP JUMPDEST JUMPDEST PUSH1 0x0 DUP3 ADD MLOAD PUSH8 0xFFFFFFFFFFFFFFFF DUP2 GT ISZERO PUSH3 0x370 JUMPI PUSH3 0x36F PUSH3 0x1B2 JUMP JUMPDEST JUMPDEST PUSH3 0x37E DUP5 DUP3 DUP6 ADD PUSH3 0x303 JUMP JUMPDEST SWAP2 POP POP SWAP3 SWAP2 POP POP JUMP JUMPDEST PUSH1 0x0 PUSH20 0xFFFFFFFFFFFFFFFFFFFFFFFFFFFFFFFFFFFFFFFF DUP3 AND SWAP1 POP SWAP2 SWAP1 POP JUMP JUMPDEST PUSH1 0x0 PUSH3 0x3B4 DUP3 PUSH3 0x387 JUMP JUMPDEST SWAP1 POP SWAP2 SWAP1 POP JUMP JUMPDEST PUSH3 0x3C6 DUP2 PUSH3 0x3A7 JUMP JUMPDEST DUP3 MSTORE POP POP JUMP JUMPDEST PUSH1 0x0 PUSH1 0x20 DUP3 ADD SWAP1 POP PUSH3 0x3E3 PUSH1 0x0 DUP4 ADD DUP5 PUSH3 0x3BB JUMP JUMPDEST SWAP3 SWAP2 POP POP JUMP JUMPDEST PUSH1 0x0 DUP2 MLOAD SWAP1 POP SWAP2 SWAP1 POP JUMP JUMPDEST PUSH32 0x4E487B7100000000000000000000000000000000000000000000000000000000 PUSH1 0x0 MSTORE PUSH1 0x22 PUSH1 0x4 MSTORE PUSH1 0x24 PUSH1 0x0 REVERT JUMPDEST PUSH1 0x0 PUSH1 0x2 DUP3 DIV SWAP1 POP PUSH1 0x1 DUP3 AND DUP1 PUSH3 0x43C JUMPI PUSH1 0x7F DUP3 AND SWAP2 POP JUMPDEST PUSH1 0x20 DUP3 LT DUP2 SUB PUSH3 0x452 JUMPI PUSH3 0x451 PUSH3 0x3F4 JUMP JUMPDEST JUMPDEST POP SWAP2 SWAP1 POP JUMP JUMPDEST PUSH1 0x0 DUP2 SWAP1 POP DUP2 PUSH1 0x0 MSTORE PUSH1 0x20 PUSH1 0x0 KECCAK256 SWAP1 POP SWAP2 SWAP1 POP JUMP JUMPDEST PUSH1 0x0 PUSH1 0x20 PUSH1 0x1F DUP4 ADD DIV SWAP1 POP SWAP2 SWAP1 POP JUMP JUMPDEST PUSH1 0x0 DUP3 DUP3 SHL SWAP1 POP SWAP3 SWAP2 POP POP JUMP JUMPDEST PUSH1 0x0 PUSH1 0x8 DUP4 MUL PUSH3 0x4BC PUSH32 0xFFFFFFFFFFFFFFFFFFFFFFFFFFFFFFFFFFFFFFFFFFFFFFFFFFFFFFFFFFFFFFFF DUP3 PUSH3 0x47D JUMP JUMPDEST PUSH3 0x4C8 DUP7 DUP4 PUSH3 0x47D JUMP JUMPDEST SWAP6 POP DUP1 NOT DUP5 AND SWAP4 POP DUP1 DUP7 AND DUP5 OR SWAP3 POP POP POP SWAP4 SWAP3 POP POP POP JUMP JUMPDEST PUSH1 0x0 DUP2 SWAP1 POP SWAP2 SWAP1 POP JUMP JUMPDEST PUSH1 0x0 DUP2 SWAP1 POP SWAP2 SWAP1 POP JUMP JUMPDEST PUSH1 0x0 PUSH3 0x515 PUSH3 0x50F PUSH3 0x509 DUP5 PUSH3 0x4E0 JUMP JUMPDEST PUSH3 0x4EA JUMP JUMPDEST PUSH3 0x4E0 JUMP JUMPDEST SWAP1 POP SWAP2 SWAP1 POP JUMP JUMPDEST PUSH1 0x0 DUP2 SWAP1 POP SWAP2 SWAP1 POP JUMP JUMPDEST PUSH3 0x531 DUP4 PUSH3 0x4F4 JUMP JUMPDEST PUSH3 0x549 PUSH3 0x540 DUP3 PUSH3 0x51C JUMP JUMPDEST DUP5 DUP5 SLOAD PUSH3 0x48A JUMP JUMPDEST DUP3 SSTORE POP POP POP POP JUMP JUMPDEST PUSH1 0x0 SWAP1 JUMP JUMPDEST PUSH3 0x560 PUSH3 0x551 JUMP JUMPDEST PUSH3 0x56D DUP2 DUP5 DUP5 PUSH3 0x526 JUMP JUMPDEST POP POP POP JUMP JUMPDEST JUMPDEST DUP2 DUP2 LT ISZERO PUSH3 0x595 JUMPI PUSH3 0x589 PUSH1 0x0 DUP3 PUSH3 0x556 JUMP JUMPDEST PUSH1 0x1 DUP2 ADD SWAP1 POP PUSH3 0x573 JUMP JUMPDEST POP POP JUMP JUMPDEST PUSH1 0x1F DUP3 GT ISZERO PUSH3 0x5E4 JUMPI PUSH3 0x5AE DUP2 PUSH3 0x458 JUMP JUMPDEST PUSH3 0x5B9 DUP5 PUSH3 0x46D JUMP JUMPDEST DUP2 ADD PUSH1 0x20 DUP6 LT ISZERO PUSH3 0x5C9 JUMPI DUP2 SWAP1 POP JUMPDEST PUSH3 0x5E1 PUSH3 0x5D8 DUP6 PUSH3 0x46D JUMP JUMPDEST DUP4 ADD DUP3 PUSH3 0x572 JUMP JUMPDEST POP POP JUMPDEST POP POP POP JUMP JUMPDEST PUSH1 0x0 DUP3 DUP3 SHR SWAP1 POP SWAP3 SWAP2 POP POP JUMP JUMPDEST PUSH1 0x0 PUSH3 0x609 PUSH1 0x0 NOT DUP5 PUSH1 0x8 MUL PUSH3 0x5E9 JUMP JUMPDEST NOT DUP1 DUP4 AND SWAP2 POP POP SWAP3 SWAP2 POP POP JUMP JUMPDEST PUSH1 0x0 PUSH3 0x624 DUP4 DUP4 PUSH3 0x5F6 JUMP JUMPDEST SWAP2 POP DUP3 PUSH1 0x2 MUL DUP3 OR SWAP1 POP SWAP3 SWAP2 POP POP JUMP JUMPDEST PUSH3 0x63F DUP3 PUSH3 0x3E9 JUMP JUMPDEST PUSH8 0xFFFFFFFFFFFFFFFF DUP2 GT ISZERO PUSH3 0x65B JUMPI PUSH3 0x65A PUSH3 0x1D2 JUMP JUMPDEST JUMPDEST PUSH3 0x667 DUP3 SLOAD PUSH3 0x423 JUMP JUMPDEST PUSH3 0x674 DUP3 DUP3 DUP6 PUSH3 0x599 JUMP JUMPDEST PUSH1 0x0 PUSH1 0x20 SWAP1 POP PUSH1 0x1F DUP4 GT PUSH1 0x1 DUP2 EQ PUSH3 0x6AC JUMPI PUSH1 0x0 DUP5 ISZERO PUSH3 0x697 JUMPI DUP3 DUP8 ADD MLOAD SWAP1 POP JUMPDEST PUSH3 0x6A3 DUP6 DUP3 PUSH3 0x616 JUMP JUMPDEST DUP7 SSTORE POP PUSH3 0x713 JUMP JUMPDEST PUSH1 0x1F NOT DUP5 AND PUSH3 0x6BC DUP7 PUSH3 0x458 JUMP JUMPDEST PUSH1 0x0 JUMPDEST DUP3 DUP2 LT ISZERO PUSH3 0x6E6 JUMPI DUP5 DUP10 ADD MLOAD DUP3 SSTORE PUSH1 0x1 DUP3 ADD SWAP2 POP PUSH1 0x20 DUP6 ADD SWAP5 POP PUSH1 0x20 DUP2 ADD SWAP1 POP PUSH3 0x6BF JUMP JUMPDEST DUP7 DUP4 LT ISZERO PUSH3 0x706 JUMPI DUP5 DUP10 ADD MLOAD PUSH3 0x702 PUSH1 0x1F DUP10 AND DUP3 PUSH3 0x5F6 JUMP JUMPDEST DUP4 SSTORE POP JUMPDEST PUSH1 0x1 PUSH1 0x2 DUP9 MUL ADD DUP9 SSTORE POP POP POP JUMPDEST POP POP POP POP POP POP JUMP JUMPDEST PUSH2 0x520D DUP1 PUSH3 0x72B PUSH1 0x0 CODECOPY PUSH1 0x0 RETURN INVALID PUSH1 0x80 PUSH1 0x40 MSTORE PUSH1 0x4 CALLDATASIZE LT PUSH2 0x26B JUMPI PUSH1 0x0 CALLDATALOAD PUSH1 0xE0 SHR DUP1 PUSH4 0x84BE1374 GT PUSH2 0x144 JUMPI DUP1 PUSH4 0xBB96EA2D GT PUSH2 0xB6 JUMPI DUP1 PUSH4 0xD2EFF49C GT PUSH2 0x7A JUMPI DUP1 PUSH4 0xD2EFF49C EQ PUSH2 0x8DA JUMPI DUP1 PUSH4 0xDDCA3F43 EQ PUSH2 0x905 JUMPI DUP1 PUSH4 0xF2FDE38B EQ PUSH2 0x930 JUMPI DUP1 PUSH4 0xF4B1E1D0 EQ PUSH2 0x959 JUMPI DUP1 PUSH4 0xF9E6A6A4 EQ PUSH2 0x996 JUMPI DUP1 PUSH4 0xFC7E286D EQ PUSH2 0x9B2 JUMPI PUSH2 0x272 JUMP JUMPDEST DUP1 PUSH4 0xBB96EA2D EQ PUSH2 0x7F3 JUMPI DUP1 PUSH4 0xBF11231C EQ PUSH2 0x81E JUMPI DUP1 PUSH4 0xC0EF49B2 EQ PUSH2 0x85B JUMPI DUP1 PUSH4 0xC1D693C6 EQ PUSH2 0x886 JUMPI DUP1 PUSH4 0xCAD1699D EQ PUSH2 0x8B1 JUMPI PUSH2 0x272 JUMP JUMPDEST DUP1 PUSH4 0x96ECB7E7 GT PUSH2 0x108 JUMPI DUP1 PUSH4 0x96ECB7E7 EQ PUSH2 0x6FF JUMPI DUP1 PUSH4 0x9B804024 EQ PUSH2 0x73C JUMPI DUP1 PUSH4 0x9CE0E1F3 EQ PUSH2 0x758 JUMPI DUP1 PUSH4 0xB84B3DE4 EQ PUSH2 0x783 JUMPI DUP1 PUSH4 0xB8CA8DD8 EQ PUSH2 0x7AE JUMPI DUP1 PUSH4 0xBA66D59B EQ PUSH2 0x7CA JUMPI PUSH2 0x272 JUMP JUMPDEST DUP1 PUSH4 0x84BE1374 EQ PUSH2 0x613 JUMPI DUP1 PUSH4 0x8AB935FE EQ PUSH2 0x650 JUMPI DUP1 PUSH4 0x8DA5CB5B EQ PUSH2 0x67B JUMPI DUP1 PUSH4 0x8FDD5AAD EQ PUSH2 0x6A6 JUMPI DUP1 PUSH4 0x94A19C8E EQ PUSH2 0x6C2 JUMPI PUSH2 0x272 JUMP JUMPDEST DUP1 PUSH4 0x323B52D7 GT PUSH2 0x1DD JUMPI DUP1 PUSH4 0x665905BD GT PUSH2 0x1A1 JUMPI DUP1 PUSH4 0x665905BD EQ PUSH2 0x515 JUMPI DUP1 PUSH4 0x6FF5EDE3 EQ PUSH2 0x540 JUMPI DUP1 PUSH4 0x701CA40E EQ PUSH2 0x56B JUMPI DUP1 PUSH4 0x715018A6 EQ PUSH2 0x596 JUMPI DUP1 PUSH4 0x72EA6F62 EQ PUSH2 0x5AD JUMPI DUP1 PUSH4 0x825747CB EQ PUSH2 0x5D6 JUMPI PUSH2 0x272 JUMP JUMPDEST DUP1 PUSH4 0x323B52D7 EQ PUSH2 0x446 JUMPI DUP1 PUSH4 0x35330885 EQ PUSH2 0x46F JUMPI DUP1 PUSH4 0x3CCDBB28 EQ PUSH2 0x49A JUMPI DUP1 PUSH4 0x595B8487 EQ PUSH2 0x4C3 JUMPI DUP1 PUSH4 0x64E53547 EQ PUSH2 0x4EC JUMPI PUSH2 0x272 JUMP JUMPDEST DUP1 PUSH4 0x1F045764 GT PUSH2 0x22F JUMPI DUP1 PUSH4 0x1F045764 EQ PUSH2 0x345 JUMPI DUP1 PUSH4 0x21003BCE EQ PUSH2 0x370 JUMPI DUP1 PUSH4 0x2183F52D EQ PUSH2 0x399 JUMPI DUP1 PUSH4 0x21FB335C EQ PUSH2 0x3C4 JUMPI DUP1 PUSH4 0x254EACA8 EQ PUSH2 0x401 JUMPI DUP1 PUSH4 0x298FC178 EQ PUSH2 0x41D JUMPI PUSH2 0x272 JUMP JUMPDEST DUP1 PUSH4 0x25ECB32 EQ PUSH2 0x274 JUMPI DUP1 PUSH4 0x2CD9D07 EQ PUSH2 0x29F JUMPI DUP1 PUSH4 0x5CF4ABD EQ PUSH2 0x2C8 JUMPI DUP1 PUSH4 0x6FDDE03 EQ PUSH2 0x2F1 JUMPI DUP1 PUSH4 0x1D112F43 EQ PUSH2 0x31C JUMPI PUSH2 0x272 JUMP JUMPDEST CALLDATASIZE PUSH2 0x272 JUMPI STOP JUMPDEST STOP JUMPDEST CALLVALUE DUP1 ISZERO PUSH2 0x280 JUMPI PUSH1 0x0 DUP1 REVERT JUMPDEST POP PUSH2 0x289 PUSH2 0x9EF JUMP JUMPDEST PUSH1 0x40 MLOAD PUSH2 0x296 SWAP2 SWAP1 PUSH2 0x2E5E JUMP JUMPDEST PUSH1 0x40 MLOAD DUP1 SWAP2 SUB SWAP1 RETURN JUMPDEST CALLVALUE DUP1 ISZERO PUSH2 0x2AB JUMPI PUSH1 0x0 DUP1 REVERT JUMPDEST POP PUSH2 0x2C6 PUSH1 0x4 DUP1 CALLDATASIZE SUB DUP2 ADD SWAP1 PUSH2 0x2C1 SWAP2 SWAP1 PUSH2 0x2EC3 JUMP JUMPDEST PUSH2 0xA15 JUMP JUMPDEST STOP JUMPDEST CALLVALUE DUP1 ISZERO PUSH2 0x2D4 JUMPI PUSH1 0x0 DUP1 REVERT JUMPDEST POP PUSH2 0x2EF PUSH1 0x4 DUP1 CALLDATASIZE SUB DUP2 ADD SWAP1 PUSH2 0x2EA SWAP2 SWAP1 PUSH2 0x2F26 JUMP JUMPDEST PUSH2 0xA27 JUMP JUMPDEST STOP JUMPDEST CALLVALUE DUP1 ISZERO PUSH2 0x2FD JUMPI PUSH1 0x0 DUP1 REVERT JUMPDEST POP PUSH2 0x306 PUSH2 0xA39 JUMP JUMPDEST PUSH1 0x40 MLOAD PUSH2 0x313 SWAP2 SWAP1 PUSH2 0x2FE3 JUMP JUMPDEST PUSH1 0x40 MLOAD DUP1 SWAP2 SUB SWAP1 RETURN JUMPDEST CALLVALUE DUP1 ISZERO PUSH2 0x328 JUMPI PUSH1 0x0 DUP1 REVERT JUMPDEST POP PUSH2 0x343 PUSH1 0x4 DUP1 CALLDATASIZE SUB DUP2 ADD SWAP1 PUSH2 0x33E SWAP2 SWAP1 PUSH2 0x3031 JUMP JUMPDEST PUSH2 0xAC7 JUMP JUMPDEST STOP JUMPDEST CALLVALUE DUP1 ISZERO PUSH2 0x351 JUMPI PUSH1 0x0 DUP1 REVERT JUMPDEST POP PUSH2 0x35A PUSH2 0xB54 JUMP JUMPDEST PUSH1 0x40 MLOAD PUSH2 0x367 SWAP2 SWAP1 PUSH2 0x306D JUMP JUMPDEST PUSH1 0x40 MLOAD DUP1 SWAP2 SUB SWAP1 RETURN JUMPDEST CALLVALUE DUP1 ISZERO PUSH2 0x37C JUMPI PUSH1 0x0 DUP1 REVERT JUMPDEST POP PUSH2 0x397 PUSH1 0x4 DUP1 CALLDATASIZE SUB DUP2 ADD SWAP1 PUSH2 0x392 SWAP2 SWAP1 PUSH2 0x2F26 JUMP JUMPDEST PUSH2 0xB5A JUMP JUMPDEST STOP JUMPDEST CALLVALUE DUP1 ISZERO PUSH2 0x3A5 JUMPI PUSH1 0x0 DUP1 REVERT JUMPDEST POP PUSH2 0x3AE PUSH2 0xB6C JUMP JUMPDEST PUSH1 0x40 MLOAD PUSH2 0x3BB SWAP2 SWAP1 PUSH2 0x2E5E JUMP JUMPDEST PUSH1 0x40 MLOAD DUP1 SWAP2 SUB SWAP1 RETURN JUMPDEST CALLVALUE DUP1 ISZERO PUSH2 0x3D0 JUMPI PUSH1 0x0 DUP1 REVERT JUMPDEST POP PUSH2 0x3EB PUSH1 0x4 DUP1 CALLDATASIZE SUB DUP2 ADD SWAP1 PUSH2 0x3E6 SWAP2 SWAP1 PUSH2 0x31D0 JUMP JUMPDEST PUSH2 0xB92 JUMP JUMPDEST PUSH1 0x40 MLOAD PUSH2 0x3F8 SWAP2 SWAP1 PUSH2 0x326E JUMP JUMPDEST PUSH1 0x40 MLOAD DUP1 SWAP2 SUB SWAP1 RETURN JUMPDEST PUSH2 0x41B PUSH1 0x4 DUP1 CALLDATASIZE SUB DUP2 ADD SWAP1 PUSH2 0x416 SWAP2 SWAP1 PUSH2 0x2EC3 JUMP JUMPDEST PUSH2 0xC65 JUMP JUMPDEST STOP JUMPDEST CALLVALUE DUP1 ISZERO PUSH2 0x429 JUMPI PUSH1 0x0 DUP1 REVERT JUMPDEST POP PUSH2 0x444 PUSH1 0x4 DUP1 CALLDATASIZE SUB DUP2 ADD SWAP1 PUSH2 0x43F SWAP2 SWAP1 PUSH2 0x3031 JUMP JUMPDEST PUSH2 0xE43 JUMP JUMPDEST STOP JUMPDEST CALLVALUE DUP1 ISZERO PUSH2 0x452 JUMPI PUSH1 0x0 DUP1 REVERT JUMPDEST POP PUSH2 0x46D PUSH1 0x4 DUP1 CALLDATASIZE SUB DUP2 ADD SWAP1 PUSH2 0x468 SWAP2 SWAP1 PUSH2 0x32C3 JUMP JUMPDEST PUSH2 0xE8F JUMP JUMPDEST STOP JUMPDEST CALLVALUE DUP1 ISZERO PUSH2 0x47B JUMPI PUSH1 0x0 DUP1 REVERT JUMPDEST POP PUSH2 0x484 PUSH2 0xEB7 JUMP JUMPDEST PUSH1 0x40 MLOAD PUSH2 0x491 SWAP2 SWAP1 PUSH2 0x32FF JUMP JUMPDEST PUSH1 0x40 MLOAD DUP1 SWAP2 SUB SWAP1 RETURN JUMPDEST CALLVALUE DUP1 ISZERO PUSH2 0x4A6 JUMPI PUSH1 0x0 DUP1 REVERT JUMPDEST POP PUSH2 0x4C1 PUSH1 0x4 DUP1 CALLDATASIZE SUB DUP2 ADD SWAP1 PUSH2 0x4BC SWAP2 SWAP1 PUSH2 0x331A JUMP JUMPDEST PUSH2 0xEBD JUMP JUMPDEST STOP JUMPDEST CALLVALUE DUP1 ISZERO PUSH2 0x4CF JUMPI PUSH1 0x0 DUP1 REVERT JUMPDEST POP PUSH2 0x4EA PUSH1 0x4 DUP1 CALLDATASIZE SUB DUP2 ADD SWAP1 PUSH2 0x4E5 SWAP2 SWAP1 PUSH2 0x33AD JUMP JUMPDEST PUSH2 0xED5 JUMP JUMPDEST STOP JUMPDEST CALLVALUE DUP1 ISZERO PUSH2 0x4F8 JUMPI PUSH1 0x0 DUP1 REVERT JUMPDEST POP PUSH2 0x513 PUSH1 0x4 DUP1 CALLDATASIZE SUB DUP2 ADD SWAP1 PUSH2 0x50E SWAP2 SWAP1 PUSH2 0x3031 JUMP JUMPDEST PUSH2 0xF09 JUMP JUMPDEST STOP JUMPDEST CALLVALUE DUP1 ISZERO PUSH2 0x521 JUMPI PUSH1 0x0 DUP1 REVERT JUMPDEST POP PUSH2 0x52A PUSH2 0xF96 JUMP JUMPDEST PUSH1 0x40 MLOAD PUSH2 0x537 SWAP2 SWAP1 PUSH2 0x2E5E JUMP JUMPDEST PUSH1 0x40 MLOAD DUP1 SWAP2 SUB SWAP1 RETURN JUMPDEST CALLVALUE DUP1 ISZERO PUSH2 0x54C JUMPI PUSH1 0x0 DUP1 REVERT JUMPDEST POP PUSH2 0x555 PUSH2 0xFBC JUMP JUMPDEST PUSH1 0x40 MLOAD PUSH2 0x562 SWAP2 SWAP1 PUSH2 0x3439 JUMP JUMPDEST PUSH1 0x40 MLOAD DUP1 SWAP2 SUB SWAP1 RETURN JUMPDEST CALLVALUE DUP1 ISZERO PUSH2 0x577 JUMPI PUSH1 0x0 DUP1 REVERT JUMPDEST POP PUSH2 0x580 PUSH2 0xFE2 JUMP JUMPDEST PUSH1 0x40 MLOAD PUSH2 0x58D SWAP2 SWAP1 PUSH2 0x3463 JUMP JUMPDEST PUSH1 0x40 MLOAD DUP1 SWAP2 SUB SWAP1 RETURN JUMPDEST CALLVALUE DUP1 ISZERO PUSH2 0x5A2 JUMPI PUSH1 0x0 DUP1 REVERT JUMPDEST POP PUSH2 0x5AB PUSH2 0xFFC JUMP JUMPDEST STOP JUMPDEST CALLVALUE DUP1 ISZERO PUSH2 0x5B9 JUMPI PUSH1 0x0 DUP1 REVERT JUMPDEST POP PUSH2 0x5D4 PUSH1 0x4 DUP1 CALLDATASIZE SUB DUP2 ADD SWAP1 PUSH2 0x5CF SWAP2 SWAP1 PUSH2 0x2F26 JUMP JUMPDEST PUSH2 0x1010 JUMP JUMPDEST STOP JUMPDEST CALLVALUE DUP1 ISZERO PUSH2 0x5E2 JUMPI PUSH1 0x0 DUP1 REVERT JUMPDEST POP PUSH2 0x5FD PUSH1 0x4 DUP1 CALLDATASIZE SUB DUP2 ADD SWAP1 PUSH2 0x5F8 SWAP2 SWAP1 PUSH2 0x2EC3 JUMP JUMPDEST PUSH2 0x1022 JUMP JUMPDEST PUSH1 0x40 MLOAD PUSH2 0x60A SWAP2 SWAP1 PUSH2 0x3463 JUMP JUMPDEST PUSH1 0x40 MLOAD DUP1 SWAP2 SUB SWAP1 RETURN JUMPDEST CALLVALUE DUP1 ISZERO PUSH2 0x61F JUMPI PUSH1 0x0 DUP1 REVERT JUMPDEST POP PUSH2 0x63A PUSH1 0x4 DUP1 CALLDATASIZE SUB DUP2 ADD SWAP1 PUSH2 0x635 SWAP2 SWAP1 PUSH2 0x3ADE JUMP JUMPDEST PUSH2 0x1079 JUMP JUMPDEST PUSH1 0x40 MLOAD PUSH2 0x647 SWAP2 SWAP1 PUSH2 0x306D JUMP JUMPDEST PUSH1 0x40 MLOAD DUP1 SWAP2 SUB SWAP1 RETURN JUMPDEST CALLVALUE DUP1 ISZERO PUSH2 0x65C JUMPI PUSH1 0x0 DUP1 REVERT JUMPDEST POP PUSH2 0x665 PUSH2 0x10DB JUMP JUMPDEST PUSH1 0x40 MLOAD PUSH2 0x672 SWAP2 SWAP1 PUSH2 0x32FF JUMP JUMPDEST PUSH1 0x40 MLOAD DUP1 SWAP2 SUB SWAP1 RETURN JUMPDEST CALLVALUE DUP1 ISZERO PUSH2 0x687 JUMPI PUSH1 0x0 DUP1 REVERT JUMPDEST POP PUSH2 0x690 PUSH2 0x10E1 JUMP JUMPDEST PUSH1 0x40 MLOAD PUSH2 0x69D SWAP2 SWAP1 PUSH2 0x2E5E JUMP JUMPDEST PUSH1 0x40 MLOAD DUP1 SWAP2 SUB SWAP1 RETURN JUMPDEST PUSH2 0x6C0 PUSH1 0x4 DUP1 CALLDATASIZE SUB DUP2 ADD SWAP1 PUSH2 0x6BB SWAP2 SWAP1 PUSH2 0x2EC3 JUMP JUMPDEST PUSH2 0x110A JUMP JUMPDEST STOP JUMPDEST CALLVALUE DUP1 ISZERO PUSH2 0x6CE JUMPI PUSH1 0x0 DUP1 REVERT JUMPDEST POP PUSH2 0x6E9 PUSH1 0x4 DUP1 CALLDATASIZE SUB DUP2 ADD SWAP1 PUSH2 0x6E4 SWAP2 SWAP1 PUSH2 0x33AD JUMP JUMPDEST PUSH2 0x121F JUMP JUMPDEST PUSH1 0x40 MLOAD PUSH2 0x6F6 SWAP2 SWAP1 PUSH2 0x326E JUMP JUMPDEST PUSH1 0x40 MLOAD DUP1 SWAP2 SUB SWAP1 RETURN JUMPDEST CALLVALUE DUP1 ISZERO PUSH2 0x70B JUMPI PUSH1 0x0 DUP1 REVERT JUMPDEST POP PUSH2 0x726 PUSH1 0x4 DUP1 CALLDATASIZE SUB DUP2 ADD SWAP1 PUSH2 0x721 SWAP2 SWAP1 PUSH2 0x2F26 JUMP JUMPDEST PUSH2 0x12DB JUMP JUMPDEST PUSH1 0x40 MLOAD PUSH2 0x733 SWAP2 SWAP1 PUSH2 0x326E JUMP JUMPDEST PUSH1 0x40 MLOAD DUP1 SWAP2 SUB SWAP1 RETURN JUMPDEST PUSH2 0x756 PUSH1 0x4 DUP1 CALLDATASIZE SUB DUP2 ADD SWAP1 PUSH2 0x751 SWAP2 SWAP1 PUSH2 0x3B27 JUMP JUMPDEST PUSH2 0x12FB JUMP JUMPDEST STOP JUMPDEST CALLVALUE DUP1 ISZERO PUSH2 0x764 JUMPI PUSH1 0x0 DUP1 REVERT JUMPDEST POP PUSH2 0x76D PUSH2 0x1590 JUMP JUMPDEST PUSH1 0x40 MLOAD PUSH2 0x77A SWAP2 SWAP1 PUSH2 0x2E5E JUMP JUMPDEST PUSH1 0x40 MLOAD DUP1 SWAP2 SUB SWAP1 RETURN JUMPDEST CALLVALUE DUP1 ISZERO PUSH2 0x78F JUMPI PUSH1 0x0 DUP1 REVERT JUMPDEST POP PUSH2 0x798 PUSH2 0x15B6 JUMP JUMPDEST PUSH1 0x40 MLOAD PUSH2 0x7A5 SWAP2 SWAP1 PUSH2 0x306D JUMP JUMPDEST PUSH1 0x40 MLOAD DUP1 SWAP2 SUB SWAP1 RETURN JUMPDEST PUSH2 0x7C8 PUSH1 0x4 DUP1 CALLDATASIZE SUB DUP2 ADD SWAP1 PUSH2 0x7C3 SWAP2 SWAP1 PUSH2 0x3C0D JUMP JUMPDEST PUSH2 0x15BC JUMP JUMPDEST STOP JUMPDEST CALLVALUE DUP1 ISZERO PUSH2 0x7D6 JUMPI PUSH1 0x0 DUP1 REVERT JUMPDEST POP PUSH2 0x7F1 PUSH1 0x4 DUP1 CALLDATASIZE SUB DUP2 ADD SWAP1 PUSH2 0x7EC SWAP2 SWAP1 PUSH2 0x3031 JUMP JUMPDEST PUSH2 0x169F JUMP JUMPDEST STOP JUMPDEST CALLVALUE DUP1 ISZERO PUSH2 0x7FF JUMPI PUSH1 0x0 DUP1 REVERT JUMPDEST POP PUSH2 0x808 PUSH2 0x16EB JUMP JUMPDEST PUSH1 0x40 MLOAD PUSH2 0x815 SWAP2 SWAP1 PUSH2 0x3C5C JUMP JUMPDEST PUSH1 0x40 MLOAD DUP1 SWAP2 SUB SWAP1 RETURN JUMPDEST CALLVALUE DUP1 ISZERO PUSH2 0x82A JUMPI PUSH1 0x0 DUP1 REVERT JUMPDEST POP PUSH2 0x845 PUSH1 0x4 DUP1 CALLDATASIZE SUB DUP2 ADD SWAP1 PUSH2 0x840 SWAP2 SWAP1 PUSH2 0x2F26 JUMP JUMPDEST PUSH2 0x16FF JUMP JUMPDEST PUSH1 0x40 MLOAD PUSH2 0x852 SWAP2 SWAP1 PUSH2 0x326E JUMP JUMPDEST PUSH1 0x40 MLOAD DUP1 SWAP2 SUB SWAP1 RETURN JUMPDEST CALLVALUE DUP1 ISZERO PUSH2 0x867 JUMPI PUSH1 0x0 DUP1 REVERT JUMPDEST POP PUSH2 0x870 PUSH2 0x171F JUMP JUMPDEST PUSH1 0x40 MLOAD PUSH2 0x87D SWAP2 SWAP1 PUSH2 0x2E5E JUMP JUMPDEST PUSH1 0x40 MLOAD DUP1 SWAP2 SUB SWAP1 RETURN JUMPDEST CALLVALUE DUP1 ISZERO PUSH2 0x892 JUMPI PUSH1 0x0 DUP1 REVERT JUMPDEST POP PUSH2 0x89B PUSH2 0x1745 JUMP JUMPDEST PUSH1 0x40 MLOAD PUSH2 0x8A8 SWAP2 SWAP1 PUSH2 0x306D JUMP JUMPDEST PUSH1 0x40 MLOAD DUP1 SWAP2 SUB SWAP1 RETURN JUMPDEST CALLVALUE DUP1 ISZERO PUSH2 0x8BD JUMPI PUSH1 0x0 DUP1 REVERT JUMPDEST POP PUSH2 0x8D8 PUSH1 0x4 DUP1 CALLDATASIZE SUB DUP2 ADD SWAP1 PUSH2 0x8D3 SWAP2 SWAP1 PUSH2 0x3031 JUMP JUMPDEST PUSH2 0x174B JUMP JUMPDEST STOP JUMPDEST CALLVALUE DUP1 ISZERO PUSH2 0x8E6 JUMPI PUSH1 0x0 DUP1 REVERT JUMPDEST POP PUSH2 0x8EF PUSH2 0x1797 JUMP JUMPDEST PUSH1 0x40 MLOAD PUSH2 0x8FC SWAP2 SWAP1 PUSH2 0x3439 JUMP JUMPDEST PUSH1 0x40 MLOAD DUP1 SWAP2 SUB SWAP1 RETURN JUMPDEST CALLVALUE DUP1 ISZERO PUSH2 0x911 JUMPI PUSH1 0x0 DUP1 REVERT JUMPDEST POP PUSH2 0x91A PUSH2 0x17BD JUMP JUMPDEST PUSH1 0x40 MLOAD PUSH2 0x927 SWAP2 SWAP1 PUSH2 0x32FF JUMP JUMPDEST PUSH1 0x40 MLOAD DUP1 SWAP2 SUB SWAP1 RETURN JUMPDEST CALLVALUE DUP1 ISZERO PUSH2 0x93C JUMPI PUSH1 0x0 DUP1 REVERT JUMPDEST POP PUSH2 0x957 PUSH1 0x4 DUP1 CALLDATASIZE SUB DUP2 ADD SWAP1 PUSH2 0x952 SWAP2 SWAP1 PUSH2 0x3031 JUMP JUMPDEST PUSH2 0x17C3 JUMP JUMPDEST STOP JUMPDEST CALLVALUE DUP1 ISZERO PUSH2 0x965 JUMPI PUSH1 0x0 DUP1 REVERT JUMPDEST POP PUSH2 0x980 PUSH1 0x4 DUP1 CALLDATASIZE SUB DUP2 ADD SWAP1 PUSH2 0x97B SWAP2 SWAP1 PUSH2 0x3D0B JUMP JUMPDEST PUSH2 0x1849 JUMP JUMPDEST PUSH1 0x40 MLOAD PUSH2 0x98D SWAP2 SWAP1 PUSH2 0x306D JUMP JUMPDEST PUSH1 0x40 MLOAD DUP1 SWAP2 SUB SWAP1 RETURN JUMPDEST PUSH2 0x9B0 PUSH1 0x4 DUP1 CALLDATASIZE SUB DUP2 ADD SWAP1 PUSH2 0x9AB SWAP2 SWAP1 PUSH2 0x3D54 JUMP JUMPDEST PUSH2 0x1897 JUMP JUMPDEST STOP JUMPDEST CALLVALUE DUP1 ISZERO PUSH2 0x9BE JUMPI PUSH1 0x0 DUP1 REVERT JUMPDEST POP PUSH2 0x9D9 PUSH1 0x4 DUP1 CALLDATASIZE SUB DUP2 ADD SWAP1 PUSH2 0x9D4 SWAP2 SWAP1 PUSH2 0x3031 JUMP JUMPDEST PUSH2 0x204D JUMP JUMPDEST PUSH1 0x40 MLOAD PUSH2 0x9E6 SWAP2 SWAP1 PUSH2 0x2E5E JUMP JUMPDEST PUSH1 0x40 MLOAD DUP1 SWAP2 SUB SWAP1 RETURN JUMPDEST PUSH1 0xF PUSH1 0x0 SWAP1 SLOAD SWAP1 PUSH2 0x100 EXP SWAP1 DIV PUSH20 0xFFFFFFFFFFFFFFFFFFFFFFFFFFFFFFFFFFFFFFFF AND DUP2 JUMP JUMPDEST PUSH2 0xA1D PUSH2 0x2080 JUMP JUMPDEST DUP1 PUSH1 0x11 DUP2 SWAP1 SSTORE POP POP JUMP JUMPDEST PUSH2 0xA2F PUSH2 0x2080 JUMP JUMPDEST DUP1 PUSH1 0xA DUP2 SWAP1 SSTORE POP POP JUMP JUMPDEST PUSH1 0x2 DUP1 SLOAD PUSH2 0xA46 SWAP1 PUSH2 0x3E10 JUMP JUMPDEST DUP1 PUSH1 0x1F ADD PUSH1 0x20 DUP1 SWAP2 DIV MUL PUSH1 0x20 ADD PUSH1 0x40 MLOAD SWAP1 DUP2 ADD PUSH1 0x40 MSTORE DUP1 SWAP3 SWAP2 SWAP1 DUP2 DUP2 MSTORE PUSH1 0x20 ADD DUP3 DUP1 SLOAD PUSH2 0xA72 SWAP1 PUSH2 0x3E10 JUMP JUMPDEST DUP1 ISZERO PUSH2 0xABF JUMPI DUP1 PUSH1 0x1F LT PUSH2 0xA94 JUMPI PUSH2 0x100 DUP1 DUP4 SLOAD DIV MUL DUP4 MSTORE SWAP2 PUSH1 0x20 ADD SWAP2 PUSH2 0xABF JUMP JUMPDEST DUP3 ADD SWAP2 SWAP1 PUSH1 0x0 MSTORE PUSH1 0x20 PUSH1 0x0 KECCAK256 SWAP1 JUMPDEST DUP2 SLOAD DUP2 MSTORE SWAP1 PUSH1 0x1 ADD SWAP1 PUSH1 0x20 ADD DUP1 DUP4 GT PUSH2 0xAA2 JUMPI DUP3 SWAP1 SUB PUSH1 0x1F AND DUP3 ADD SWAP2 JUMPDEST POP POP POP POP POP DUP2 JUMP JUMPDEST PUSH2 0xACF PUSH2 0x2080 JUMP JUMPDEST DUP1 PUSH1 0x4 PUSH1 0x0 PUSH2 0x100 EXP DUP2 SLOAD DUP2 PUSH20 0xFFFFFFFFFFFFFFFFFFFFFFFFFFFFFFFFFFFFFFFF MUL NOT AND SWAP1 DUP4 PUSH20 0xFFFFFFFFFFFFFFFFFFFFFFFFFFFFFFFFFFFFFFFF AND MUL OR SWAP1 SSTORE POP DUP1 PUSH1 0x5 PUSH1 0x0 PUSH2 0x100 EXP DUP2 SLOAD DUP2 PUSH20 0xFFFFFFFFFFFFFFFFFFFFFFFFFFFFFFFFFFFFFFFF MUL NOT AND SWAP1 DUP4 PUSH20 0xFFFFFFFFFFFFFFFFFFFFFFFFFFFFFFFFFFFFFFFF AND MUL OR SWAP1 SSTORE POP POP JUMP JUMPDEST PUSH1 0xA SLOAD DUP2 JUMP JUMPDEST PUSH2 0xB62 PUSH2 0x2080 JUMP JUMPDEST DUP1 PUSH1 0x9 DUP2 SWAP1 SSTORE POP POP JUMP JUMPDEST PUSH1 0x4 PUSH1 0x0 SWAP1 SLOAD SWAP1 PUSH2 0x100 EXP SWAP1 DIV PUSH20 0xFFFFFFFFFFFFFFFFFFFFFFFFFFFFFFFFFFFFFFFF AND DUP2 JUMP JUMPDEST PUSH1 0x0 DUP1 DUP4 SWAP1 POP PUSH1 0x0 JUMPDEST DUP7 MLOAD DUP2 LT ISZERO PUSH2 0xC56 JUMPI PUSH1 0x0 DUP8 DUP3 DUP2 MLOAD DUP2 LT PUSH2 0xBB9 JUMPI PUSH2 0xBB8 PUSH2 0x3E41 JUMP JUMPDEST JUMPDEST PUSH1 0x20 MUL PUSH1 0x20 ADD ADD MLOAD SWAP1 POP PUSH1 0x0 PUSH1 0x2 DUP7 PUSH2 0xBD2 SWAP2 SWAP1 PUSH2 0x3E9F JUMP JUMPDEST SUB PUSH2 0xC07 JUMPI DUP3 DUP2 PUSH1 0x40 MLOAD PUSH1 0x20 ADD PUSH2 0xBEA SWAP3 SWAP2 SWAP1 PUSH2 0x3EF1 JUMP JUMPDEST PUSH1 0x40 MLOAD PUSH1 0x20 DUP2 DUP4 SUB SUB DUP2 MSTORE SWAP1 PUSH1 0x40 MSTORE DUP1 MLOAD SWAP1 PUSH1 0x20 ADD KECCAK256 SWAP3 POP PUSH2 0xC33 JUMP JUMPDEST DUP1 DUP4 PUSH1 0x40 MLOAD PUSH1 0x20 ADD PUSH2 0xC1A SWAP3 SWAP2 SWAP1 PUSH2 0x3EF1 JUMP JUMPDEST PUSH1 0x40 MLOAD PUSH1 0x20 DUP2 DUP4 SUB SUB DUP2 MSTORE SWAP1 PUSH1 0x40 MSTORE DUP1 MLOAD SWAP1 PUSH1 0x20 ADD KECCAK256 SWAP3 POP JUMPDEST PUSH1 0x2 DUP6 PUSH2 0xC40 SWAP2 SWAP1 PUSH2 0x3F4C JUMP JUMPDEST SWAP5 POP POP DUP1 DUP1 PUSH2 0xC4E SWAP1 PUSH2 0x3F7D JUMP JUMPDEST SWAP2 POP POP PUSH2 0xB9B JUMP JUMPDEST POP DUP5 DUP2 EQ SWAP2 POP POP SWAP5 SWAP4 POP POP POP POP JUMP JUMPDEST PUSH2 0xC6D PUSH2 0x2107 JUMP JUMPDEST PUSH1 0x0 DUP1 PUSH2 0x2710 DUP4 PUSH1 0x11 SLOAD PUSH2 0xC81 SWAP2 SWAP1 PUSH2 0x3FC5 JUMP JUMPDEST PUSH2 0xC8B SWAP2 SWAP1 PUSH2 0x3E9F JUMP JUMPDEST SUB PUSH2 0xC99 JUMPI PUSH1 0x0 SWAP1 POP PUSH2 0xC9E JUMP JUMPDEST PUSH1 0x1 SWAP1 POP JUMPDEST PUSH1 0x0 DUP2 PUSH2 0x2710 DUP5 PUSH1 0x11 SLOAD PUSH2 0xCB2 SWAP2 SWAP1 PUSH2 0x3FC5 JUMP JUMPDEST PUSH2 0xCBC SWAP2 SWAP1 PUSH2 0x3F4C JUMP JUMPDEST PUSH2 0xCC6 SWAP2 SWAP1 PUSH2 0x4007 JUMP JUMPDEST SWAP1 POP PUSH1 0x0 DUP2 GT PUSH2 0xD0B JUMPI PUSH1 0x40 MLOAD PUSH32 0x8C379A000000000000000000000000000000000000000000000000000000000 DUP2 MSTORE PUSH1 0x4 ADD PUSH2 0xD02 SWAP1 PUSH2 0x4087 JUMP JUMPDEST PUSH1 0x40 MLOAD DUP1 SWAP2 SUB SWAP1 REVERT JUMPDEST CALLER PUSH20 0xFFFFFFFFFFFFFFFFFFFFFFFFFFFFFFFFFFFFFFFF AND PUSH32 0xE515410DFFDF5490351286176F64882B88706FF8412D9A5248380C3B0A0B005E DUP3 DUP6 PUSH2 0xD4F SWAP2 SWAP1 PUSH2 0x40A7 JUMP JUMPDEST PUSH1 0x40 MLOAD PUSH2 0xD5C SWAP2 SWAP1 PUSH2 0x32FF JUMP JUMPDEST PUSH1 0x40 MLOAD DUP1 SWAP2 SUB SWAP1 LOG2 PUSH2 0xD9C PUSH1 0x4 PUSH1 0x0 SWAP1 SLOAD SWAP1 PUSH2 0x100 EXP SWAP1 DIV PUSH20 0xFFFFFFFFFFFFFFFFFFFFFFFFFFFFFFFFFFFFFFFF AND ADDRESS DUP4 DUP7 PUSH2 0xD97 SWAP2 SWAP1 PUSH2 0x40A7 JUMP JUMPDEST PUSH2 0x214D JUMP JUMPDEST PUSH1 0x4 PUSH1 0x0 SWAP1 SLOAD SWAP1 PUSH2 0x100 EXP SWAP1 DIV PUSH20 0xFFFFFFFFFFFFFFFFFFFFFFFFFFFFFFFFFFFFFFFF AND PUSH20 0xFFFFFFFFFFFFFFFFFFFFFFFFFFFFFFFFFFFFFFFF AND PUSH4 0x9DC29FAC ADDRESS DUP4 DUP7 PUSH2 0xDE7 SWAP2 SWAP1 PUSH2 0x40A7 JUMP JUMPDEST PUSH1 0x40 MLOAD DUP4 PUSH4 0xFFFFFFFF AND PUSH1 0xE0 SHL DUP2 MSTORE PUSH1 0x4 ADD PUSH2 0xE04 SWAP3 SWAP2 SWAP1 PUSH2 0x40DB JUMP JUMPDEST PUSH1 0x0 PUSH1 0x40 MLOAD DUP1 DUP4 SUB DUP2 PUSH1 0x0 DUP8 DUP1 EXTCODESIZE ISZERO DUP1 ISZERO PUSH2 0xE1E JUMPI PUSH1 0x0 DUP1 REVERT JUMPDEST POP GAS CALL ISZERO DUP1 ISZERO PUSH2 0xE32 JUMPI RETURNDATASIZE PUSH1 0x0 DUP1 RETURNDATACOPY RETURNDATASIZE PUSH1 0x0 REVERT JUMPDEST POP POP POP POP POP POP PUSH2 0xE40 PUSH2 0x21CC JUMP JUMPDEST POP JUMP JUMPDEST PUSH2 0xE4B PUSH2 0x2080 JUMP JUMPDEST DUP1 PUSH1 0xF PUSH1 0x0 PUSH2 0x100 EXP DUP2 SLOAD DUP2 PUSH20 0xFFFFFFFFFFFFFFFFFFFFFFFFFFFFFFFFFFFFFFFF MUL NOT AND SWAP1 DUP4 PUSH20 0xFFFFFFFFFFFFFFFFFFFFFFFFFFFFFFFFFFFFFFFF AND MUL OR SWAP1 SSTORE POP POP JUMP JUMPDEST PUSH2 0xE97 PUSH2 0x2080 JUMP JUMPDEST DUP1 PUSH1 0xC PUSH1 0x0 PUSH2 0x100 EXP DUP2 SLOAD DUP2 PUSH2 0xFFFF MUL NOT AND SWAP1 DUP4 PUSH2 0xFFFF AND MUL OR SWAP1 SSTORE POP POP JUMP JUMPDEST PUSH1 0x3 SLOAD DUP2 JUMP JUMPDEST PUSH2 0xEC5 PUSH2 0x2080 JUMP JUMPDEST PUSH2 0xED0 DUP4 DUP3 DUP5 PUSH2 0x214D JUMP JUMPDEST POP POP POP JUMP JUMPDEST PUSH2 0xEDD PUSH2 0x2080 JUMP JUMPDEST DUP1 PUSH1 0xC PUSH1 0x2 PUSH2 0x100 EXP DUP2 SLOAD DUP2 PUSH8 0xFFFFFFFFFFFFFFFF MUL NOT AND SWAP1 DUP4 PUSH8 0xFFFFFFFFFFFFFFFF AND MUL OR SWAP1 SSTORE POP POP JUMP JUMPDEST PUSH2 0xF11 PUSH2 0x2080 JUMP JUMPDEST DUP1 PUSH1 0x6 PUSH1 0x0 PUSH2 0x100 EXP DUP2 SLOAD DUP2 PUSH20 0xFFFFFFFFFFFFFFFFFFFFFFFFFFFFFFFFFFFFFFFF MUL NOT AND SWAP1 DUP4 PUSH20 0xFFFFFFFFFFFFFFFFFFFFFFFFFFFFFFFFFFFFFFFF AND MUL OR SWAP1 SSTORE POP DUP1 PUSH1 0x7 PUSH1 0x0 PUSH2 0x100 EXP DUP2 SLOAD DUP2 PUSH20 0xFFFFFFFFFFFFFFFFFFFFFFFFFFFFFFFFFFFFFFFF MUL NOT AND SWAP1 DUP4 PUSH20 0xFFFFFFFFFFFFFFFFFFFFFFFFFFFFFFFFFFFFFFFF AND MUL OR SWAP1 SSTORE POP POP JUMP JUMPDEST PUSH1 0x8 PUSH1 0x0 SWAP1 SLOAD SWAP1 PUSH2 0x100 EXP SWAP1 DIV PUSH20 0xFFFFFFFFFFFFFFFFFFFFFFFFFFFFFFFFFFFFFFFF AND DUP2 JUMP JUMPDEST PUSH1 0x7 PUSH1 0x0 SWAP1 SLOAD SWAP1 PUSH2 0x100 EXP SWAP1 DIV PUSH20 0xFFFFFFFFFFFFFFFFFFFFFFFFFFFFFFFFFFFFFFFF AND DUP2 JUMP JUMPDEST PUSH1 0xC PUSH1 0x2 SWAP1 SLOAD SWAP1 PUSH2 0x100 EXP SWAP1 DIV PUSH8 0xFFFFFFFFFFFFFFFF AND DUP2 JUMP JUMPDEST PUSH2 0x1004 PUSH2 0x2080 JUMP JUMPDEST PUSH2 0x100E PUSH1 0x0 PUSH2 0x21D5 JUMP JUMPDEST JUMP JUMPDEST PUSH2 0x1018 PUSH2 0x2080 JUMP JUMPDEST DUP1 PUSH1 0xB DUP2 SWAP1 SSTORE POP POP JUMP JUMPDEST PUSH1 0x0 PUSH8 0xFFFFFFFFFFFFFFFF DUP1 AND DUP3 GT ISZERO PUSH2 0x1071 JUMPI PUSH1 0x40 MLOAD PUSH32 0x8C379A000000000000000000000000000000000000000000000000000000000 DUP2 MSTORE PUSH1 0x4 ADD PUSH2 0x1068 SWAP1 PUSH2 0x4150 JUMP JUMPDEST PUSH1 0x40 MLOAD DUP1 SWAP2 SUB SWAP1 REVERT JUMPDEST DUP2 SWAP1 POP SWAP2 SWAP1 POP JUMP JUMPDEST PUSH1 0x0 DUP2 PUSH1 0x0 ADD MLOAD DUP3 PUSH1 0x20 ADD MLOAD DUP4 PUSH1 0x40 ADD MLOAD DUP5 PUSH1 0x60 ADD MLOAD PUSH2 0x109C DUP7 PUSH1 0x80 ADD MLOAD PUSH2 0x2299 JUMP JUMPDEST PUSH2 0x10A9 DUP8 PUSH1 0xA0 ADD MLOAD PUSH2 0x22E5 JUMP JUMPDEST PUSH1 0x40 MLOAD PUSH1 0x20 ADD PUSH2 0x10BE SWAP7 SWAP6 SWAP5 SWAP4 SWAP3 SWAP2 SWAP1 PUSH2 0x41A6 JUMP JUMPDEST PUSH1 0x40 MLOAD PUSH1 0x20 DUP2 DUP4 SUB SUB DUP2 MSTORE SWAP1 PUSH1 0x40 MSTORE DUP1 MLOAD SWAP1 PUSH1 0x20 ADD KECCAK256 SWAP1 POP SWAP2 SWAP1 POP JUMP JUMPDEST PUSH1 0x12 SLOAD DUP2 JUMP JUMPDEST PUSH1 0x0 DUP1 PUSH1 0x0 SWAP1 SLOAD SWAP1 PUSH2 0x100 EXP SWAP1 DIV PUSH20 0xFFFFFFFFFFFFFFFFFFFFFFFFFFFFFFFFFFFFFFFF AND SWAP1 POP SWAP1 JUMP JUMPDEST PUSH2 0x1112 PUSH2 0x2107 JUMP JUMPDEST PUSH1 0x0 DUP1 PUSH2 0x2710 DUP4 PUSH1 0x11 SLOAD PUSH2 0x1126 SWAP2 SWAP1 PUSH2 0x3FC5 JUMP JUMPDEST PUSH2 0x1130 SWAP2 SWAP1 PUSH2 0x3E9F JUMP JUMPDEST SUB PUSH2 0x113E JUMPI PUSH1 0x0 SWAP1 POP PUSH2 0x1143 JUMP JUMPDEST PUSH1 0x1 SWAP1 POP JUMPDEST PUSH1 0x0 DUP2 PUSH2 0x2710 DUP5 PUSH1 0x11 SLOAD PUSH2 0x1157 SWAP2 SWAP1 PUSH2 0x3FC5 JUMP JUMPDEST PUSH2 0x1161 SWAP2 SWAP1 PUSH2 0x3F4C JUMP JUMPDEST PUSH2 0x116B SWAP2 SWAP1 PUSH2 0x4007 JUMP JUMPDEST SWAP1 POP DUP1 DUP4 CALLVALUE PUSH2 0x117A SWAP2 SWAP1 PUSH2 0x40A7 JUMP JUMPDEST LT ISZERO PUSH2 0x11BB JUMPI PUSH1 0x40 MLOAD PUSH32 0x8C379A000000000000000000000000000000000000000000000000000000000 DUP2 MSTORE PUSH1 0x4 ADD PUSH2 0x11B2 SWAP1 PUSH2 0x4087 JUMP JUMPDEST PUSH1 0x40 MLOAD DUP1 SWAP2 SUB SWAP1 REVERT JUMPDEST PUSH1 0x0 DUP2 GT PUSH2 0x11FE JUMPI PUSH1 0x40 MLOAD PUSH32 0x8C379A000000000000000000000000000000000000000000000000000000000 DUP2 MSTORE PUSH1 0x4 ADD PUSH2 0x11F5 SWAP1 PUSH2 0x4087 JUMP JUMPDEST PUSH1 0x40 MLOAD DUP1 SWAP2 SUB SWAP1 REVERT JUMPDEST DUP3 PUSH1 0x12 SLOAD PUSH2 0x120C SWAP2 SWAP1 PUSH2 0x4007 JUMP JUMPDEST PUSH1 0x12 DUP2 SWAP1 SSTORE POP POP POP PUSH2 0x121C PUSH2 0x21CC JUMP JUMPDEST POP JUMP JUMPDEST PUSH1 0x0 DUP1 PUSH1 0xF PUSH1 0x0 SWAP1 SLOAD SWAP1 PUSH2 0x100 EXP SWAP1 DIV PUSH20 0xFFFFFFFFFFFFFFFFFFFFFFFFFFFFFFFFFFFFFFFF AND PUSH20 0xFFFFFFFFFFFFFFFFFFFFFFFFFFFFFFFFFFFFFFFF AND PUSH4 0xDD862157 PUSH1 0x40 MLOAD DUP2 PUSH4 0xFFFFFFFF AND PUSH1 0xE0 SHL DUP2 MSTORE PUSH1 0x4 ADD PUSH1 0x20 PUSH1 0x40 MLOAD DUP1 DUP4 SUB DUP2 DUP7 GAS STATICCALL ISZERO DUP1 ISZERO PUSH2 0x128F JUMPI RETURNDATASIZE PUSH1 0x0 DUP1 RETURNDATACOPY RETURNDATASIZE PUSH1 0x0 REVERT JUMPDEST POP POP POP POP PUSH1 0x40 MLOAD RETURNDATASIZE PUSH1 0x1F NOT PUSH1 0x1F DUP3 ADD AND DUP3 ADD DUP1 PUSH1 0x40 MSTORE POP DUP2 ADD SWAP1 PUSH2 0x12B3 SWAP2 SWAP1 PUSH2 0x422B JUMP JUMPDEST SWAP1 POP DUP3 PUSH8 0xFFFFFFFFFFFFFFFF AND DUP2 LT ISZERO PUSH2 0x12D0 JUMPI PUSH1 0x0 SWAP2 POP PUSH2 0x12D5 JUMP JUMPDEST PUSH1 0x1 SWAP2 POP JUMPDEST POP SWAP2 SWAP1 POP JUMP JUMPDEST PUSH1 0xD PUSH1 0x20 MSTORE DUP1 PUSH1 0x0 MSTORE PUSH1 0x40 PUSH1 0x0 KECCAK256 PUSH1 0x0 SWAP2 POP SLOAD SWAP1 PUSH2 0x100 EXP SWAP1 DIV PUSH1 0xFF AND DUP2 JUMP JUMPDEST PUSH2 0x1303 PUSH2 0x2107 JUMP JUMPDEST PUSH2 0x1311 DUP10 DUP7 DUP7 DUP7 DUP7 DUP7 PUSH2 0x2352 JUMP JUMPDEST PUSH1 0x0 PUSH1 0xF PUSH1 0x0 SWAP1 SLOAD SWAP1 PUSH2 0x100 EXP SWAP1 DIV PUSH20 0xFFFFFFFFFFFFFFFFFFFFFFFFFFFFFFFFFFFFFFFF AND PUSH20 0xFFFFFFFFFFFFFFFFFFFFFFFFFFFFFFFFFFFFFFFF AND PUSH4 0x3C70B357 DUP9 PUSH1 0x40 MLOAD DUP3 PUSH4 0xFFFFFFFF AND PUSH1 0xE0 SHL DUP2 MSTORE PUSH1 0x4 ADD PUSH2 0x136E SWAP2 SWAP1 PUSH2 0x32FF JUMP JUMPDEST PUSH1 0x20 PUSH1 0x40 MLOAD DUP1 DUP4 SUB DUP2 DUP7 GAS STATICCALL ISZERO DUP1 ISZERO PUSH2 0x138B JUMPI RETURNDATASIZE PUSH1 0x0 DUP1 RETURNDATACOPY RETURNDATASIZE PUSH1 0x0 REVERT JUMPDEST POP POP POP POP PUSH1 0x40 MLOAD RETURNDATASIZE PUSH1 0x1F NOT PUSH1 0x1F DUP3 ADD AND DUP3 ADD DUP1 PUSH1 0x40 MSTORE POP DUP2 ADD SWAP1 PUSH2 0x13AF SWAP2 SWAP1 PUSH2 0x426D JUMP JUMPDEST SWAP1 POP PUSH2 0x13C2 DUP11 DUP11 DUP11 DUP11 DUP11 DUP11 DUP11 DUP11 DUP11 PUSH2 0x25B2 JUMP JUMPDEST PUSH1 0x0 PUSH2 0x13EA DUP11 DUP4 DUP13 DUP13 DUP2 MLOAD DUP2 LT PUSH2 0x13DC JUMPI PUSH2 0x13DB PUSH2 0x3E41 JUMP JUMPDEST JUMPDEST PUSH1 0x20 MUL PUSH1 0x20 ADD ADD MLOAD DUP13 PUSH2 0xB92 JUMP JUMPDEST SWAP1 POP PUSH1 0x1 ISZERO ISZERO DUP2 ISZERO ISZERO EQ PUSH2 0x1433 JUMPI PUSH1 0x40 MLOAD PUSH32 0x8C379A000000000000000000000000000000000000000000000000000000000 DUP2 MSTORE PUSH1 0x4 ADD PUSH2 0x142A SWAP1 PUSH2 0x42E6 JUMP JUMPDEST PUSH1 0x40 MLOAD DUP1 SWAP2 SUB SWAP1 REVERT JUMPDEST DUP11 ISZERO PUSH2 0x14CD JUMPI PUSH1 0x4 PUSH1 0x0 SWAP1 SLOAD SWAP1 PUSH2 0x100 EXP SWAP1 DIV PUSH20 0xFFFFFFFFFFFFFFFFFFFFFFFFFFFFFFFFFFFFFFFF AND PUSH20 0xFFFFFFFFFFFFFFFFFFFFFFFFFFFFFFFFFFFFFFFF AND PUSH4 0x40C10F19 CALLER DUP6 PUSH1 0x40 MLOAD DUP4 PUSH4 0xFFFFFFFF AND PUSH1 0xE0 SHL DUP2 MSTORE PUSH1 0x4 ADD PUSH2 0x1496 SWAP3 SWAP2 SWAP1 PUSH2 0x40DB JUMP JUMPDEST PUSH1 0x0 PUSH1 0x40 MLOAD DUP1 DUP4 SUB DUP2 PUSH1 0x0 DUP8 DUP1 EXTCODESIZE ISZERO DUP1 ISZERO PUSH2 0x14B0 JUMPI PUSH1 0x0 DUP1 REVERT JUMPDEST POP GAS CALL ISZERO DUP1 ISZERO PUSH2 0x14C4 JUMPI RETURNDATASIZE PUSH1 0x0 DUP1 RETURNDATACOPY RETURNDATASIZE PUSH1 0x0 REVERT JUMPDEST POP POP POP POP PUSH2 0x157B JUMP JUMPDEST PUSH1 0x0 CALLER PUSH20 0xFFFFFFFFFFFFFFFFFFFFFFFFFFFFFFFFFFFFFFFF AND DUP5 PUSH1 0x40 MLOAD PUSH2 0x14F3 SWAP1 PUSH2 0x4337 JUMP JUMPDEST PUSH1 0x0 PUSH1 0x40 MLOAD DUP1 DUP4 SUB DUP2 DUP6 DUP8 GAS CALL SWAP3 POP POP POP RETURNDATASIZE DUP1 PUSH1 0x0 DUP2 EQ PUSH2 0x1530 JUMPI PUSH1 0x40 MLOAD SWAP2 POP PUSH1 0x1F NOT PUSH1 0x3F RETURNDATASIZE ADD AND DUP3 ADD PUSH1 0x40 MSTORE RETURNDATASIZE DUP3 MSTORE RETURNDATASIZE PUSH1 0x0 PUSH1 0x20 DUP5 ADD RETURNDATACOPY PUSH2 0x1535 JUMP JUMPDEST PUSH1 0x60 SWAP2 POP JUMPDEST POP POP SWAP1 POP DUP1 PUSH2 0x1579 JUMPI PUSH1 0x40 MLOAD PUSH32 0x8C379A000000000000000000000000000000000000000000000000000000000 DUP2 MSTORE PUSH1 0x4 ADD PUSH2 0x1570 SWAP1 PUSH2 0x4398 JUMP JUMPDEST PUSH1 0x40 MLOAD DUP1 SWAP2 SUB SWAP1 REVERT JUMPDEST POP JUMPDEST POP POP PUSH2 0x1585 PUSH2 0x21CC JUMP JUMPDEST POP POP POP POP POP POP POP POP POP JUMP JUMPDEST PUSH1 0x10 PUSH1 0x0 SWAP1 SLOAD SWAP1 PUSH2 0x100 EXP SWAP1 DIV PUSH20 0xFFFFFFFFFFFFFFFFFFFFFFFFFFFFFFFFFFFFFFFF AND DUP2 JUMP JUMPDEST PUSH1 0xB SLOAD DUP2 JUMP JUMPDEST PUSH2 0x15C4 PUSH2 0x2080 JUMP JUMPDEST PUSH2 0x15CC PUSH2 0x2107 JUMP JUMPDEST PUSH1 0x12 SLOAD SELFBALANCE PUSH2 0x15DA SWAP2 SWAP1 PUSH2 0x40A7 JUMP JUMPDEST DUP3 GT ISZERO PUSH2 0x15E6 JUMPI PUSH1 0x0 DUP1 REVERT JUMPDEST PUSH1 0x0 DUP2 PUSH20 0xFFFFFFFFFFFFFFFFFFFFFFFFFFFFFFFFFFFFFFFF AND DUP4 PUSH1 0x40 MLOAD PUSH2 0x160C SWAP1 PUSH2 0x4337 JUMP JUMPDEST PUSH1 0x0 PUSH1 0x40 MLOAD DUP1 DUP4 SUB DUP2 DUP6 DUP8 GAS CALL SWAP3 POP POP POP RETURNDATASIZE DUP1 PUSH1 0x0 DUP2 EQ PUSH2 0x1649 JUMPI PUSH1 0x40 MLOAD SWAP2 POP PUSH1 0x1F NOT PUSH1 0x3F RETURNDATASIZE ADD AND DUP3 ADD PUSH1 0x40 MSTORE RETURNDATASIZE DUP3 MSTORE RETURNDATASIZE PUSH1 0x0 PUSH1 0x20 DUP5 ADD RETURNDATACOPY PUSH2 0x164E JUMP JUMPDEST PUSH1 0x60 SWAP2 POP JUMPDEST POP POP SWAP1 POP DUP1 PUSH2 0x1692 JUMPI PUSH1 0x40 MLOAD PUSH32 0x8C379A000000000000000000000000000000000000000000000000000000000 DUP2 MSTORE PUSH1 0x4 ADD PUSH2 0x1689 SWAP1 PUSH2 0x4398 JUMP JUMPDEST PUSH1 0x40 MLOAD DUP1 SWAP2 SUB SWAP1 REVERT JUMPDEST POP PUSH2 0x169B PUSH2 0x21CC JUMP JUMPDEST POP POP JUMP JUMPDEST PUSH2 0x16A7 PUSH2 0x2080 JUMP JUMPDEST DUP1 PUSH1 0x10 PUSH1 0x0 PUSH2 0x100 EXP DUP2 SLOAD DUP2 PUSH20 0xFFFFFFFFFFFFFFFFFFFFFFFFFFFFFFFFFFFFFFFF MUL NOT AND SWAP1 DUP4 PUSH20 0xFFFFFFFFFFFFFFFFFFFFFFFFFFFFFFFFFFFFFFFF AND MUL OR SWAP1 SSTORE POP POP JUMP JUMPDEST PUSH1 0xC PUSH1 0x0 SWAP1 SLOAD SWAP1 PUSH2 0x100 EXP SWAP1 DIV PUSH2 0xFFFF AND DUP2 JUMP JUMPDEST PUSH1 0xE PUSH1 0x20 MSTORE DUP1 PUSH1 0x0 MSTORE PUSH1 0x40 PUSH1 0x0 KECCAK256 PUSH1 0x0 SWAP2 POP SLOAD SWAP1 PUSH2 0x100 EXP SWAP1 DIV PUSH1 0xFF AND DUP2 JUMP JUMPDEST PUSH1 0x6 PUSH1 0x0 SWAP1 SLOAD SWAP1 PUSH2 0x100 EXP SWAP1 DIV PUSH20 0xFFFFFFFFFFFFFFFFFFFFFFFFFFFFFFFFFFFFFFFF AND DUP2 JUMP JUMPDEST PUSH1 0x9 SLOAD DUP2 JUMP JUMPDEST PUSH2 0x1753 PUSH2 0x2080 JUMP JUMPDEST DUP1 PUSH1 0x8 PUSH1 0x0 PUSH2 0x100 EXP DUP2 SLOAD DUP2 PUSH20 0xFFFFFFFFFFFFFFFFFFFFFFFFFFFFFFFFFFFFFFFF MUL NOT AND SWAP1 DUP4 PUSH20 0xFFFFFFFFFFFFFFFFFFFFFFFFFFFFFFFFFFFFFFFF AND MUL OR SWAP1 SSTORE POP POP JUMP JUMPDEST PUSH1 0x5 PUSH1 0x0 SWAP1 SLOAD SWAP1 PUSH2 0x100 EXP SWAP1 DIV PUSH20 0xFFFFFFFFFFFFFFFFFFFFFFFFFFFFFFFFFFFFFFFF AND DUP2 JUMP JUMPDEST PUSH1 0x11 SLOAD DUP2 JUMP JUMPDEST PUSH2 0x17CB PUSH2 0x2080 JUMP JUMPDEST PUSH1 0x0 PUSH20 0xFFFFFFFFFFFFFFFFFFFFFFFFFFFFFFFFFFFFFFFF AND DUP2 PUSH20 0xFFFFFFFFFFFFFFFFFFFFFFFFFFFFFFFFFFFFFFFF AND SUB PUSH2 0x183D JUMPI PUSH1 0x0 PUSH1 0x40 MLOAD PUSH32 0x1E4FBDF700000000000000000000000000000000000000000000000000000000 DUP2 MSTORE PUSH1 0x4 ADD PUSH2 0x1834 SWAP2 SWAP1 PUSH2 0x2E5E JUMP JUMPDEST PUSH1 0x40 MLOAD DUP1 SWAP2 SUB SWAP1 REVERT JUMPDEST PUSH2 0x1846 DUP2 PUSH2 0x21D5 JUMP JUMPDEST POP JUMP JUMPDEST PUSH1 0x0 DUP2 PUSH1 0x0 ADD MLOAD DUP3 PUSH1 0x20 ADD MLOAD DUP4 PUSH1 0x40 ADD MLOAD PUSH2 0x1867 DUP6 PUSH1 0x60 ADD MLOAD PUSH2 0x2299 JUMP JUMPDEST PUSH1 0x40 MLOAD PUSH1 0x20 ADD PUSH2 0x187A SWAP5 SWAP4 SWAP3 SWAP2 SWAP1 PUSH2 0x43B8 JUMP JUMPDEST PUSH1 0x40 MLOAD PUSH1 0x20 DUP2 DUP4 SUB SUB DUP2 MSTORE SWAP1 PUSH1 0x40 MSTORE DUP1 MLOAD SWAP1 PUSH1 0x20 ADD KECCAK256 SWAP1 POP SWAP2 SWAP1 POP JUMP JUMPDEST PUSH2 0x189F PUSH2 0x2107 JUMP JUMPDEST PUSH1 0x0 DUP7 PUSH1 0x40 MLOAD PUSH1 0x20 ADD PUSH2 0x18B2 SWAP2 SWAP1 PUSH2 0x444E JUMP JUMPDEST PUSH1 0x40 MLOAD PUSH1 0x20 DUP2 DUP4 SUB SUB DUP2 MSTORE SWAP1 PUSH1 0x40 MSTORE DUP1 MLOAD SWAP1 PUSH1 0x20 ADD KECCAK256 DUP7 PUSH1 0x40 MLOAD PUSH1 0x20 ADD PUSH2 0x18D9 SWAP2 SWAP1 PUSH2 0x4469 JUMP JUMPDEST PUSH1 0x40 MLOAD PUSH1 0x20 DUP2 DUP4 SUB SUB DUP2 MSTORE SWAP1 PUSH1 0x40 MSTORE DUP1 MLOAD SWAP1 PUSH1 0x20 ADD KECCAK256 DUP7 PUSH1 0x40 MLOAD PUSH1 0x20 ADD PUSH2 0x1900 SWAP2 SWAP1 PUSH2 0x44A5 JUMP JUMPDEST PUSH1 0x40 MLOAD PUSH1 0x20 DUP2 DUP4 SUB SUB DUP2 MSTORE SWAP1 PUSH1 0x40 MSTORE DUP1 MLOAD SWAP1 PUSH1 0x20 ADD KECCAK256 DUP7 PUSH1 0x40 MLOAD PUSH1 0x20 ADD PUSH2 0x1927 SWAP2 SWAP1 PUSH2 0x44A5 JUMP JUMPDEST PUSH1 0x40 MLOAD PUSH1 0x20 DUP2 DUP4 SUB SUB DUP2 MSTORE SWAP1 PUSH1 0x40 MSTORE DUP1 MLOAD SWAP1 PUSH1 0x20 ADD KECCAK256 DUP7 PUSH1 0x40 MLOAD PUSH1 0x20 ADD PUSH2 0x194E SWAP2 SWAP1 PUSH2 0x44A5 JUMP JUMPDEST PUSH1 0x40 MLOAD PUSH1 0x20 DUP2 DUP4 SUB SUB DUP2 MSTORE SWAP1 PUSH1 0x40 MSTORE DUP1 MLOAD SWAP1 PUSH1 0x20 ADD KECCAK256 DUP7 PUSH1 0x40 MLOAD PUSH1 0x20 ADD PUSH2 0x1975 SWAP2 SWAP1 PUSH2 0x44A5 JUMP JUMPDEST PUSH1 0x40 MLOAD PUSH1 0x20 DUP2 DUP4 SUB SUB DUP2 MSTORE SWAP1 PUSH1 0x40 MSTORE DUP1 MLOAD SWAP1 PUSH1 0x20 ADD KECCAK256 CALLER PUSH1 0x40 MLOAD PUSH1 0x20 ADD PUSH2 0x199C SWAP2 SWAP1 PUSH2 0x4508 JUMP JUMPDEST PUSH1 0x40 MLOAD PUSH1 0x20 DUP2 DUP4 SUB SUB DUP2 MSTORE SWAP1 PUSH1 0x40 MSTORE DUP1 MLOAD SWAP1 PUSH1 0x20 ADD KECCAK256 PUSH1 0x40 MLOAD PUSH1 0x20 ADD PUSH2 0x19C8 SWAP8 SWAP7 SWAP6 SWAP5 SWAP4 SWAP3 SWAP2 SWAP1 PUSH2 0x4523 JUMP JUMPDEST PUSH1 0x40 MLOAD PUSH1 0x20 DUP2 DUP4 SUB SUB DUP2 MSTORE SWAP1 PUSH1 0x40 MSTORE DUP1 MLOAD SWAP1 PUSH1 0x20 ADD KECCAK256 SWAP1 POP PUSH1 0x0 ISZERO ISZERO PUSH1 0xD PUSH1 0x0 DUP4 DUP2 MSTORE PUSH1 0x20 ADD SWAP1 DUP2 MSTORE PUSH1 0x20 ADD PUSH1 0x0 KECCAK256 PUSH1 0x0 SWAP1 SLOAD SWAP1 PUSH2 0x100 EXP SWAP1 DIV PUSH1 0xFF AND ISZERO ISZERO EQ PUSH2 0x1A47 JUMPI PUSH1 0x40 MLOAD PUSH32 0x8C379A000000000000000000000000000000000000000000000000000000000 DUP2 MSTORE PUSH1 0x4 ADD PUSH2 0x1A3E SWAP1 PUSH2 0x45F0 JUMP JUMPDEST PUSH1 0x40 MLOAD DUP1 SWAP2 SUB SWAP1 REVERT JUMPDEST PUSH1 0x1 ISZERO ISZERO PUSH1 0xD PUSH1 0x0 DUP4 DUP2 MSTORE PUSH1 0x20 ADD SWAP1 DUP2 MSTORE PUSH1 0x20 ADD PUSH1 0x0 KECCAK256 PUSH1 0x0 SWAP1 SLOAD SWAP1 PUSH2 0x100 EXP SWAP1 POP POP POP PUSH1 0x0 ISZERO ISZERO PUSH1 0xE PUSH1 0x0 DUP4 DUP2 MSTORE PUSH1 0x20 ADD SWAP1 DUP2 MSTORE PUSH1 0x20 ADD PUSH1 0x0 KECCAK256 PUSH1 0x0 SWAP1 SLOAD SWAP1 PUSH2 0x100 EXP SWAP1 DIV PUSH1 0xFF AND ISZERO ISZERO EQ PUSH2 0x1AD2 JUMPI PUSH1 0x40 MLOAD PUSH32 0x8C379A000000000000000000000000000000000000000000000000000000000 DUP2 MSTORE PUSH1 0x4 ADD PUSH2 0x1AC9 SWAP1 PUSH2 0x4682 JUMP JUMPDEST PUSH1 0x40 MLOAD DUP1 SWAP2 SUB SWAP1 REVERT JUMPDEST PUSH1 0x60 DUP1 PUSH1 0x0 DUP1 PUSH1 0x1 PUSH8 0xFFFFFFFFFFFFFFFF DUP2 GT ISZERO PUSH2 0x1AF3 JUMPI PUSH2 0x1AF2 PUSH2 0x308D JUMP JUMPDEST JUMPDEST PUSH1 0x40 MLOAD SWAP1 DUP1 DUP3 MSTORE DUP1 PUSH1 0x20 MUL PUSH1 0x20 ADD DUP3 ADD PUSH1 0x40 MSTORE DUP1 ISZERO PUSH2 0x1B21 JUMPI DUP2 PUSH1 0x20 ADD PUSH1 0x20 DUP3 MUL DUP1 CALLDATASIZE DUP4 CALLDATACOPY DUP1 DUP3 ADD SWAP2 POP POP SWAP1 POP JUMPDEST POP SWAP1 POP CALLER PUSH20 0xFFFFFFFFFFFFFFFFFFFFFFFFFFFFFFFFFFFFFFFF AND PUSH1 0x0 SHL DUP2 PUSH1 0x0 DUP2 MLOAD DUP2 LT PUSH2 0x1B52 JUMPI PUSH2 0x1B51 PUSH2 0x3E41 JUMP JUMPDEST JUMPDEST PUSH1 0x20 MUL PUSH1 0x20 ADD ADD DUP2 DUP2 MSTORE POP POP DUP11 ISZERO PUSH2 0x1C10 JUMPI PUSH1 0x0 SWAP2 POP PUSH1 0x0 PUSH8 0xFFFFFFFFFFFFFFFF DUP2 GT ISZERO PUSH2 0x1B83 JUMPI PUSH2 0x1B82 PUSH2 0x308D JUMP JUMPDEST JUMPDEST PUSH1 0x40 MLOAD SWAP1 DUP1 DUP3 MSTORE DUP1 PUSH1 0x20 MUL PUSH1 0x20 ADD DUP3 ADD PUSH1 0x40 MSTORE DUP1 ISZERO PUSH2 0x1BB1 JUMPI DUP2 PUSH1 0x20 ADD PUSH1 0x20 DUP3 MUL DUP1 CALLDATASIZE DUP4 CALLDATACOPY DUP1 DUP3 ADD SWAP2 POP POP SWAP1 POP JUMPDEST POP SWAP4 POP PUSH1 0x0 PUSH8 0xFFFFFFFFFFFFFFFF DUP2 GT ISZERO PUSH2 0x1BCF JUMPI PUSH2 0x1BCE PUSH2 0x308D JUMP JUMPDEST JUMPDEST PUSH1 0x40 MLOAD SWAP1 DUP1 DUP3 MSTORE DUP1 PUSH1 0x20 MUL PUSH1 0x20 ADD DUP3 ADD PUSH1 0x40 MSTORE DUP1 ISZERO PUSH2 0x1C08 JUMPI DUP2 PUSH1 0x20 ADD JUMPDEST PUSH2 0x1BF5 PUSH2 0x2DD0 JUMP JUMPDEST DUP2 MSTORE PUSH1 0x20 ADD SWAP1 PUSH1 0x1 SWAP1 SUB SWAP1 DUP2 PUSH2 0x1BED JUMPI SWAP1 POP JUMPDEST POP SWAP3 POP PUSH2 0x1D95 JUMP JUMPDEST PUSH1 0x1 SWAP2 POP PUSH1 0x1 PUSH8 0xFFFFFFFFFFFFFFFF DUP2 GT ISZERO PUSH2 0x1C2F JUMPI PUSH2 0x1C2E PUSH2 0x308D JUMP JUMPDEST JUMPDEST PUSH1 0x40 MLOAD SWAP1 DUP1 DUP3 MSTORE DUP1 PUSH1 0x20 MUL PUSH1 0x20 ADD DUP3 ADD PUSH1 0x40 MSTORE DUP1 ISZERO PUSH2 0x1C5D JUMPI DUP2 PUSH1 0x20 ADD PUSH1 0x20 DUP3 MUL DUP1 CALLDATASIZE DUP4 CALLDATACOPY DUP1 DUP3 ADD SWAP2 POP POP SWAP1 POP JUMPDEST POP SWAP4 POP PUSH1 0x0 DUP5 PUSH1 0x0 DUP2 MLOAD DUP2 LT PUSH2 0x1C76 JUMPI PUSH2 0x1C75 PUSH2 0x3E41 JUMP JUMPDEST JUMPDEST PUSH1 0x20 MUL PUSH1 0x20 ADD ADD SWAP1 PUSH4 0xFFFFFFFF AND SWAP1 DUP2 PUSH4 0xFFFFFFFF AND DUP2 MSTORE POP POP PUSH1 0x1 PUSH8 0xFFFFFFFFFFFFFFFF DUP2 GT ISZERO PUSH2 0x1CAB JUMPI PUSH2 0x1CAA PUSH2 0x308D JUMP JUMPDEST JUMPDEST PUSH1 0x40 MLOAD SWAP1 DUP1 DUP3 MSTORE DUP1 PUSH1 0x20 MUL PUSH1 0x20 ADD DUP3 ADD PUSH1 0x40 MSTORE DUP1 ISZERO PUSH2 0x1CE4 JUMPI DUP2 PUSH1 0x20 ADD JUMPDEST PUSH2 0x1CD1 PUSH2 0x2DD0 JUMP JUMPDEST DUP2 MSTORE PUSH1 0x20 ADD SWAP1 PUSH1 0x1 SWAP1 SUB SWAP1 DUP2 PUSH2 0x1CC9 JUMPI SWAP1 POP JUMPDEST POP SWAP3 POP PUSH1 0x0 PUSH1 0x40 MLOAD DUP1 PUSH1 0xA0 ADD PUSH1 0x40 MSTORE DUP1 PUSH1 0x0 PUSH4 0xFFFFFFFF AND DUP2 MSTORE PUSH1 0x20 ADD PUSH1 0x8 PUSH1 0x0 SWAP1 SLOAD SWAP1 PUSH2 0x100 EXP SWAP1 DIV PUSH20 0xFFFFFFFFFFFFFFFFFFFFFFFFFFFFFFFFFFFFFFFF AND PUSH20 0xFFFFFFFFFFFFFFFFFFFFFFFFFFFFFFFFFFFFFFFF AND DUP2 MSTORE PUSH1 0x20 ADD DUP4 DUP2 MSTORE PUSH1 0x20 ADD DUP9 PUSH1 0x40 MLOAD PUSH1 0x20 ADD PUSH2 0x1D56 SWAP2 SWAP1 PUSH2 0x44A5 JUMP JUMPDEST PUSH1 0x40 MLOAD PUSH1 0x20 DUP2 DUP4 SUB SUB DUP2 MSTORE SWAP1 PUSH1 0x40 MSTORE DUP2 MSTORE PUSH1 0x20 ADD PUSH1 0x0 ISZERO ISZERO DUP2 MSTORE POP SWAP1 POP DUP1 DUP5 PUSH1 0x0 DUP2 MLOAD DUP2 LT PUSH2 0x1D88 JUMPI PUSH2 0x1D87 PUSH2 0x3E41 JUMP JUMPDEST JUMPDEST PUSH1 0x20 MUL PUSH1 0x20 ADD ADD DUP2 SWAP1 MSTORE POP POP JUMPDEST PUSH1 0x0 PUSH1 0x40 MLOAD DUP1 PUSH1 0xA0 ADD PUSH1 0x40 MSTORE DUP1 DUP13 DUP2 MSTORE PUSH1 0x20 ADD PUSH1 0xC PUSH1 0x0 SWAP1 SLOAD SWAP1 PUSH2 0x100 EXP SWAP1 DIV PUSH2 0xFFFF AND PUSH2 0xFFFF AND DUP2 MSTORE PUSH1 0x20 ADD PUSH1 0x1 ISZERO ISZERO DUP2 MSTORE PUSH1 0x20 ADD DUP5 ISZERO ISZERO DUP2 MSTORE PUSH1 0x20 ADD DUP7 DUP2 MSTORE POP SWAP1 POP PUSH1 0x0 PUSH1 0x40 MLOAD DUP1 PUSH2 0x120 ADD PUSH1 0x40 MSTORE DUP1 DUP13 DUP2 MSTORE PUSH1 0x20 ADD DUP12 DUP2 MSTORE PUSH1 0x20 ADD CALLER PUSH20 0xFFFFFFFFFFFFFFFFFFFFFFFFFFFFFFFFFFFFFFFF AND DUP2 MSTORE PUSH1 0x20 ADD PUSH1 0x0 ISZERO ISZERO DUP2 MSTORE PUSH1 0x20 ADD PUSH1 0x8 PUSH1 0x0 SWAP1 SLOAD SWAP1 PUSH2 0x100 EXP SWAP1 DIV PUSH20 0xFFFFFFFFFFFFFFFFFFFFFFFFFFFFFFFFFFFFFFFF AND PUSH20 0xFFFFFFFFFFFFFFFFFFFFFFFFFFFFFFFFFFFFFFFF AND DUP2 MSTORE PUSH1 0x20 ADD DUP11 DUP2 MSTORE PUSH1 0x20 ADD DUP10 PUSH1 0x40 MLOAD PUSH1 0x20 ADD PUSH2 0x1E6D SWAP2 SWAP1 PUSH2 0x44A5 JUMP JUMPDEST PUSH1 0x40 MLOAD PUSH1 0x20 DUP2 DUP4 SUB SUB DUP2 MSTORE SWAP1 PUSH1 0x40 MSTORE DUP2 MSTORE PUSH1 0x20 ADD PUSH1 0x1 PUSH1 0xFF AND DUP2 MSTORE PUSH1 0x20 ADD DUP7 DUP2 MSTORE POP SWAP1 POP PUSH1 0x0 PUSH1 0x40 MLOAD DUP1 PUSH1 0xC0 ADD PUSH1 0x40 MSTORE DUP1 PUSH1 0x9 SLOAD DUP2 MSTORE PUSH1 0x20 ADD PUSH1 0xA SLOAD DUP2 MSTORE PUSH1 0x20 ADD PUSH1 0x0 PUSH8 0xFFFFFFFFFFFFFFFF AND DUP2 MSTORE PUSH1 0x20 ADD PUSH1 0xC PUSH1 0x2 SWAP1 SLOAD SWAP1 PUSH2 0x100 EXP SWAP1 DIV PUSH8 0xFFFFFFFFFFFFFFFF AND PUSH8 0xFFFFFFFFFFFFFFFF AND DUP2 MSTORE PUSH1 0x20 ADD DUP5 DUP2 MSTORE PUSH1 0x20 ADD DUP4 DUP2 MSTORE POP SWAP1 POP PUSH1 0x0 DUP2 PUSH1 0x40 MLOAD PUSH1 0x20 ADD PUSH2 0x1F04 SWAP2 SWAP1 PUSH2 0x4C2A JUMP JUMPDEST PUSH1 0x40 MLOAD PUSH1 0x20 DUP2 DUP4 SUB SUB DUP2 MSTORE SWAP1 PUSH1 0x40 MSTORE DUP1 MLOAD SWAP1 PUSH1 0x20 ADD KECCAK256 SWAP1 POP PUSH1 0x0 PUSH1 0x40 MLOAD DUP1 PUSH1 0x80 ADD PUSH1 0x40 MSTORE DUP1 PUSH1 0x9 SLOAD DUP2 MSTORE PUSH1 0x20 ADD PUSH1 0xA SLOAD DUP2 MSTORE PUSH1 0x20 ADD DUP4 DUP2 MSTORE PUSH1 0x20 ADD DUP7 DUP2 MSTORE POP SWAP1 POP PUSH1 0x0 DUP2 PUSH1 0x0 ADD MLOAD DUP3 PUSH1 0x20 ADD MLOAD DUP4 PUSH1 0x60 ADD MLOAD PUSH1 0x0 ADD MLOAD DUP5 PUSH1 0x60 ADD MLOAD PUSH1 0x20 ADD MLOAD DUP6 PUSH1 0x60 ADD MLOAD PUSH1 0x40 ADD MLOAD DUP7 PUSH1 0x60 ADD MLOAD PUSH1 0x60 ADD MLOAD DUP8 PUSH1 0x60 ADD MLOAD PUSH1 0x80 ADD MLOAD PUSH1 0x40 MLOAD PUSH1 0x20 ADD PUSH2 0x1F94 SWAP8 SWAP7 SWAP6 SWAP5 SWAP4 SWAP3 SWAP2 SWAP1 PUSH2 0x4CCE JUMP JUMPDEST PUSH1 0x40 MLOAD PUSH1 0x20 DUP2 DUP4 SUB SUB DUP2 MSTORE SWAP1 PUSH1 0x40 MSTORE SWAP1 POP PUSH1 0xF PUSH1 0x0 SWAP1 SLOAD SWAP1 PUSH2 0x100 EXP SWAP1 DIV PUSH20 0xFFFFFFFFFFFFFFFFFFFFFFFFFFFFFFFFFFFFFFFF AND PUSH20 0xFFFFFFFFFFFFFFFFFFFFFFFFFFFFFFFFFFFFFFFF AND PUSH4 0xF64B6FDA DUP3 PUSH1 0x40 MLOAD DUP3 PUSH4 0xFFFFFFFF AND PUSH1 0xE0 SHL DUP2 MSTORE PUSH1 0x4 ADD PUSH2 0x2000 SWAP2 SWAP1 PUSH2 0x4D8E JUMP JUMPDEST PUSH1 0x0 PUSH1 0x40 MLOAD DUP1 DUP4 SUB DUP2 PUSH1 0x0 DUP8 DUP1 EXTCODESIZE ISZERO DUP1 ISZERO PUSH2 0x201A JUMPI PUSH1 0x0 DUP1 REVERT JUMPDEST POP GAS CALL ISZERO DUP1 ISZERO PUSH2 0x202E JUMPI RETURNDATASIZE PUSH1 0x0 DUP1 RETURNDATACOPY RETURNDATASIZE PUSH1 0x0 REVERT JUMPDEST POP POP POP POP POP POP POP POP POP POP POP POP POP POP POP PUSH2 0x2045 PUSH2 0x21CC JUMP JUMPDEST POP POP POP POP POP POP JUMP JUMPDEST PUSH1 0x13 PUSH1 0x20 MSTORE DUP1 PUSH1 0x0 MSTORE PUSH1 0x40 PUSH1 0x0 KECCAK256 PUSH1 0x0 SWAP2 POP SLOAD SWAP1 PUSH2 0x100 EXP SWAP1 DIV PUSH20 0xFFFFFFFFFFFFFFFFFFFFFFFFFFFFFFFFFFFFFFFF AND DUP2 JUMP JUMPDEST PUSH2 0x2088 PUSH2 0x2A4E JUMP JUMPDEST PUSH20 0xFFFFFFFFFFFFFFFFFFFFFFFFFFFFFFFFFFFFFFFF AND PUSH2 0x20A6 PUSH2 0x10E1 JUMP JUMPDEST PUSH20 0xFFFFFFFFFFFFFFFFFFFFFFFFFFFFFFFFFFFFFFFF AND EQ PUSH2 0x2105 JUMPI PUSH2 0x20C9 PUSH2 0x2A4E JUMP JUMPDEST PUSH1 0x40 MLOAD PUSH32 0x118CDAA700000000000000000000000000000000000000000000000000000000 DUP2 MSTORE PUSH1 0x4 ADD PUSH2 0x20FC SWAP2 SWAP1 PUSH2 0x2E5E JUMP JUMPDEST PUSH1 0x40 MLOAD DUP1 SWAP2 SUB SWAP1 REVERT JUMPDEST JUMP JUMPDEST PUSH1 0x2 PUSH1 0x1 SLOAD SUB PUSH2 0x2143 JUMPI PUSH1 0x40 MLOAD PUSH32 0x3EE5AEB500000000000000000000000000000000000000000000000000000000 DUP2 MSTORE PUSH1 0x4 ADD PUSH1 0x40 MLOAD DUP1 SWAP2 SUB SWAP1 REVERT JUMPDEST PUSH1 0x2 PUSH1 0x1 DUP2 SWAP1 SSTORE POP JUMP JUMPDEST PUSH2 0x21C7 DUP4 DUP5 PUSH20 0xFFFFFFFFFFFFFFFFFFFFFFFFFFFFFFFFFFFFFFFF AND PUSH4 0xA9059CBB DUP6 DUP6 PUSH1 0x40 MLOAD PUSH1 0x24 ADD PUSH2 0x2180 SWAP3 SWAP2 SWAP1 PUSH2 0x40DB JUMP JUMPDEST PUSH1 0x40 MLOAD PUSH1 0x20 DUP2 DUP4 SUB SUB DUP2 MSTORE SWAP1 PUSH1 0x40 MSTORE SWAP2 POP PUSH1 0xE0 SHL PUSH1 0x20 DUP3 ADD DUP1 MLOAD PUSH28 0xFFFFFFFFFFFFFFFFFFFFFFFFFFFFFFFFFFFFFFFFFFFFFFFFFFFFFFFF DUP4 DUP2 DUP4 AND OR DUP4 MSTORE POP POP POP POP PUSH2 0x2A56 JUMP JUMPDEST POP POP POP JUMP JUMPDEST PUSH1 0x1 DUP1 DUP2 SWAP1 SSTORE POP JUMP JUMPDEST PUSH1 0x0 DUP1 PUSH1 0x0 SWAP1 SLOAD SWAP1 PUSH2 0x100 EXP SWAP1 DIV PUSH20 0xFFFFFFFFFFFFFFFFFFFFFFFFFFFFFFFFFFFFFFFF AND SWAP1 POP DUP2 PUSH1 0x0 DUP1 PUSH2 0x100 EXP DUP2 SLOAD DUP2 PUSH20 0xFFFFFFFFFFFFFFFFFFFFFFFFFFFFFFFFFFFFFFFF MUL NOT AND SWAP1 DUP4 PUSH20 0xFFFFFFFFFFFFFFFFFFFFFFFFFFFFFFFFFFFFFFFF AND MUL OR SWAP1 SSTORE POP DUP2 PUSH20 0xFFFFFFFFFFFFFFFFFFFFFFFFFFFFFFFFFFFFFFFF AND DUP2 PUSH20 0xFFFFFFFFFFFFFFFFFFFFFFFFFFFFFFFFFFFFFFFF AND PUSH32 0x8BE0079C531659141344CD1FD0A4F28419497F9722A3DAAFE3B4186F6B6457E0 PUSH1 0x40 MLOAD PUSH1 0x40 MLOAD DUP1 SWAP2 SUB SWAP1 LOG3 POP POP JUMP JUMPDEST PUSH1 0x0 DUP2 PUSH1 0x0 ADD MLOAD DUP3 PUSH1 0x20 ADD MLOAD DUP4 PUSH1 0x40 ADD MLOAD DUP5 PUSH1 0x60 ADD MLOAD DUP6 PUSH1 0x80 ADD MLOAD PUSH1 0x40 MLOAD PUSH1 0x20 ADD PUSH2 0x22C8 SWAP6 SWAP5 SWAP4 SWAP3 SWAP2 SWAP1 PUSH2 0x4E76 JUMP JUMPDEST PUSH1 0x40 MLOAD PUSH1 0x20 DUP2 DUP4 SUB SUB DUP2 MSTORE SWAP1 PUSH1 0x40 MSTORE DUP1 MLOAD SWAP1 PUSH1 0x20 ADD KECCAK256 SWAP1 POP SWAP2 SWAP1 POP JUMP JUMPDEST PUSH1 0x0 DUP2 PUSH1 0x0 ADD MLOAD DUP3 PUSH1 0x20 ADD MLOAD DUP4 PUSH1 0x40 ADD MLOAD DUP5 PUSH1 0x60 ADD MLOAD DUP6 PUSH1 0x80 ADD MLOAD DUP7 PUSH1 0xA0 ADD MLOAD DUP8 PUSH1 0xC0 ADD MLOAD DUP9 PUSH1 0xE0 ADD MLOAD PUSH2 0x231D DUP11 PUSH2 0x100 ADD MLOAD PUSH2 0x2AED JUMP JUMPDEST PUSH1 0x40 MLOAD PUSH1 0x20 ADD PUSH2 0x2335 SWAP10 SWAP9 SWAP8 SWAP7 SWAP6 SWAP5 SWAP4 SWAP3 SWAP2 SWAP1 PUSH2 0x4F19 JUMP JUMPDEST PUSH1 0x40 MLOAD PUSH1 0x20 DUP2 DUP4 SUB SUB DUP2 MSTORE SWAP1 PUSH1 0x40 MSTORE DUP1 MLOAD SWAP1 PUSH1 0x20 ADD KECCAK256 SWAP1 POP SWAP2 SWAP1 POP JUMP JUMPDEST PUSH1 0x0 DUP7 PUSH1 0x40 MLOAD PUSH1 0x20 ADD PUSH2 0x2365 SWAP2 SWAP1 PUSH2 0x444E JUMP JUMPDEST PUSH1 0x40 MLOAD PUSH1 0x20 DUP2 DUP4 SUB SUB DUP2 MSTORE SWAP1 PUSH1 0x40 MSTORE DUP1 MLOAD SWAP1 PUSH1 0x20 ADD KECCAK256 DUP7 PUSH1 0x40 MLOAD PUSH1 0x20 ADD PUSH2 0x238C SWAP2 SWAP1 PUSH2 0x4469 JUMP JUMPDEST PUSH1 0x40 MLOAD PUSH1 0x20 DUP2 DUP4 SUB SUB DUP2 MSTORE SWAP1 PUSH1 0x40 MSTORE DUP1 MLOAD SWAP1 PUSH1 0x20 ADD KECCAK256 DUP7 PUSH1 0x40 MLOAD PUSH1 0x20 ADD PUSH2 0x23B3 SWAP2 SWAP1 PUSH2 0x44A5 JUMP JUMPDEST PUSH1 0x40 MLOAD PUSH1 0x20 DUP2 DUP4 SUB SUB DUP2 MSTORE SWAP1 PUSH1 0x40 MSTORE DUP1 MLOAD SWAP1 PUSH1 0x20 ADD KECCAK256 DUP7 PUSH1 0x40 MLOAD PUSH1 0x20 ADD PUSH2 0x23DA SWAP2 SWAP1 PUSH2 0x44A5 JUMP JUMPDEST PUSH1 0x40 MLOAD PUSH1 0x20 DUP2 DUP4 SUB SUB DUP2 MSTORE SWAP1 PUSH1 0x40 MSTORE DUP1 MLOAD SWAP1 PUSH1 0x20 ADD KECCAK256 DUP7 PUSH1 0x40 MLOAD PUSH1 0x20 ADD PUSH2 0x2401 SWAP2 SWAP1 PUSH2 0x44A5 JUMP JUMPDEST PUSH1 0x40 MLOAD PUSH1 0x20 DUP2 DUP4 SUB SUB DUP2 MSTORE SWAP1 PUSH1 0x40 MSTORE DUP1 MLOAD SWAP1 PUSH1 0x20 ADD KECCAK256 DUP7 PUSH1 0x40 MLOAD PUSH1 0x20 ADD PUSH2 0x2428 SWAP2 SWAP1 PUSH2 0x44A5 JUMP JUMPDEST PUSH1 0x40 MLOAD PUSH1 0x20 DUP2 DUP4 SUB SUB DUP2 MSTORE SWAP1 PUSH1 0x40 MSTORE DUP1 MLOAD SWAP1 PUSH1 0x20 ADD KECCAK256 CALLER PUSH1 0x40 MLOAD PUSH1 0x20 ADD PUSH2 0x244F SWAP2 SWAP1 PUSH2 0x4508 JUMP JUMPDEST PUSH1 0x40 MLOAD PUSH1 0x20 DUP2 DUP4 SUB SUB DUP2 MSTORE SWAP1 PUSH1 0x40 MSTORE DUP1 MLOAD SWAP1 PUSH1 0x20 ADD KECCAK256 PUSH1 0x40 MLOAD PUSH1 0x20 ADD PUSH2 0x247B SWAP8 SWAP7 SWAP6 SWAP5 SWAP4 SWAP3 SWAP2 SWAP1 PUSH2 0x4523 JUMP JUMPDEST PUSH1 0x40 MLOAD PUSH1 0x20 DUP2 DUP4 SUB SUB DUP2 MSTORE SWAP1 PUSH1 0x40 MSTORE DUP1 MLOAD SWAP1 PUSH1 0x20 ADD KECCAK256 SWAP1 POP PUSH1 0x1 ISZERO ISZERO PUSH1 0xD PUSH1 0x0 DUP4 DUP2 MSTORE PUSH1 0x20 ADD SWAP1 DUP2 MSTORE PUSH1 0x20 ADD PUSH1 0x0 KECCAK256 PUSH1 0x0 SWAP1 SLOAD SWAP1 PUSH2 0x100 EXP SWAP1 DIV PUSH1 0xFF AND ISZERO ISZERO EQ PUSH2 0x24FA JUMPI PUSH1 0x40 MLOAD PUSH32 0x8C379A000000000000000000000000000000000000000000000000000000000 DUP2 MSTORE PUSH1 0x4 ADD PUSH2 0x24F1 SWAP1 PUSH2 0x45F0 JUMP JUMPDEST PUSH1 0x40 MLOAD DUP1 SWAP2 SUB SWAP1 REVERT JUMPDEST PUSH1 0x1 ISZERO ISZERO PUSH1 0xD PUSH1 0x0 DUP4 DUP2 MSTORE PUSH1 0x20 ADD SWAP1 DUP2 MSTORE PUSH1 0x20 ADD PUSH1 0x0 KECCAK256 PUSH1 0x0 SWAP1 SLOAD SWAP1 PUSH2 0x100 EXP SWAP1 POP POP POP PUSH1 0x0 ISZERO ISZERO PUSH1 0xE PUSH1 0x0 DUP4 DUP2 MSTORE PUSH1 0x20 ADD SWAP1 DUP2 MSTORE PUSH1 0x20 ADD PUSH1 0x0 KECCAK256 PUSH1 0x0 SWAP1 SLOAD SWAP1 PUSH2 0x100 EXP SWAP1 DIV PUSH1 0xFF AND ISZERO ISZERO EQ PUSH2 0x2585 JUMPI PUSH1 0x40 MLOAD PUSH32 0x8C379A000000000000000000000000000000000000000000000000000000000 DUP2 MSTORE PUSH1 0x4 ADD PUSH2 0x257C SWAP1 PUSH2 0x4682 JUMP JUMPDEST PUSH1 0x40 MLOAD DUP1 SWAP2 SUB SWAP1 REVERT JUMPDEST PUSH1 0x1 ISZERO ISZERO PUSH1 0xE PUSH1 0x0 DUP4 DUP2 MSTORE PUSH1 0x20 ADD SWAP1 DUP2 MSTORE PUSH1 0x20 ADD PUSH1 0x0 KECCAK256 PUSH1 0x0 SWAP1 SLOAD SWAP1 PUSH2 0x100 EXP SWAP1 POP POP POP POP POP POP POP POP POP POP JUMP JUMPDEST PUSH1 0x60 DUP1 PUSH1 0x0 DUP1 PUSH1 0x1 PUSH8 0xFFFFFFFFFFFFFFFF DUP2 GT ISZERO PUSH2 0x25D3 JUMPI PUSH2 0x25D2 PUSH2 0x308D JUMP JUMPDEST JUMPDEST PUSH1 0x40 MLOAD SWAP1 DUP1 DUP3 MSTORE DUP1 PUSH1 0x20 MUL PUSH1 0x20 ADD DUP3 ADD PUSH1 0x40 MSTORE DUP1 ISZERO PUSH2 0x2601 JUMPI DUP2 PUSH1 0x20 ADD PUSH1 0x20 DUP3 MUL DUP1 CALLDATASIZE DUP4 CALLDATACOPY DUP1 DUP3 ADD SWAP2 POP POP SWAP1 POP JUMPDEST POP SWAP1 POP CALLER PUSH20 0xFFFFFFFFFFFFFFFFFFFFFFFFFFFFFFFFFFFFFFFF AND PUSH1 0x0 SHL DUP2 PUSH1 0x0 DUP2 MLOAD DUP2 LT PUSH2 0x2632 JUMPI PUSH2 0x2631 PUSH2 0x3E41 JUMP JUMPDEST JUMPDEST PUSH1 0x20 MUL PUSH1 0x20 ADD ADD DUP2 DUP2 MSTORE POP POP DUP13 ISZERO PUSH2 0x26F0 JUMPI PUSH1 0x0 SWAP2 POP PUSH1 0x0 PUSH8 0xFFFFFFFFFFFFFFFF DUP2 GT ISZERO PUSH2 0x2663 JUMPI PUSH2 0x2662 PUSH2 0x308D JUMP JUMPDEST JUMPDEST PUSH1 0x40 MLOAD SWAP1 DUP1 DUP3 MSTORE DUP1 PUSH1 0x20 MUL PUSH1 0x20 ADD DUP3 ADD PUSH1 0x40 MSTORE DUP1 ISZERO PUSH2 0x2691 JUMPI DUP2 PUSH1 0x20 ADD PUSH1 0x20 DUP3 MUL DUP1 CALLDATASIZE DUP4 CALLDATACOPY DUP1 DUP3 ADD SWAP2 POP POP SWAP1 POP JUMPDEST POP SWAP4 POP PUSH1 0x0 PUSH8 0xFFFFFFFFFFFFFFFF DUP2 GT ISZERO PUSH2 0x26AF JUMPI PUSH2 0x26AE PUSH2 0x308D JUMP JUMPDEST JUMPDEST PUSH1 0x40 MLOAD SWAP1 DUP1 DUP3 MSTORE DUP1 PUSH1 0x20 MUL PUSH1 0x20 ADD DUP3 ADD PUSH1 0x40 MSTORE DUP1 ISZERO PUSH2 0x26E8 JUMPI DUP2 PUSH1 0x20 ADD JUMPDEST PUSH2 0x26D5 PUSH2 0x2DD0 JUMP JUMPDEST DUP2 MSTORE PUSH1 0x20 ADD SWAP1 PUSH1 0x1 SWAP1 SUB SWAP1 DUP2 PUSH2 0x26CD JUMPI SWAP1 POP JUMPDEST POP SWAP3 POP PUSH2 0x2875 JUMP JUMPDEST PUSH1 0x1 SWAP2 POP PUSH1 0x1 PUSH8 0xFFFFFFFFFFFFFFFF DUP2 GT ISZERO PUSH2 0x270F JUMPI PUSH2 0x270E PUSH2 0x308D JUMP JUMPDEST JUMPDEST PUSH1 0x40 MLOAD SWAP1 DUP1 DUP3 MSTORE DUP1 PUSH1 0x20 MUL PUSH1 0x20 ADD DUP3 ADD PUSH1 0x40 MSTORE DUP1 ISZERO PUSH2 0x273D JUMPI DUP2 PUSH1 0x20 ADD PUSH1 0x20 DUP3 MUL DUP1 CALLDATASIZE DUP4 CALLDATACOPY DUP1 DUP3 ADD SWAP2 POP POP SWAP1 POP JUMPDEST POP SWAP4 POP PUSH1 0x0 DUP5 PUSH1 0x0 DUP2 MLOAD DUP2 LT PUSH2 0x2756 JUMPI PUSH2 0x2755 PUSH2 0x3E41 JUMP JUMPDEST JUMPDEST PUSH1 0x20 MUL PUSH1 0x20 ADD ADD SWAP1 PUSH4 0xFFFFFFFF AND SWAP1 DUP2 PUSH4 0xFFFFFFFF AND DUP2 MSTORE POP POP PUSH1 0x1 PUSH8 0xFFFFFFFFFFFFFFFF DUP2 GT ISZERO PUSH2 0x278B JUMPI PUSH2 0x278A PUSH2 0x308D JUMP JUMPDEST JUMPDEST PUSH1 0x40 MLOAD SWAP1 DUP1 DUP3 MSTORE DUP1 PUSH1 0x20 MUL PUSH1 0x20 ADD DUP3 ADD PUSH1 0x40 MSTORE DUP1 ISZERO PUSH2 0x27C4 JUMPI DUP2 PUSH1 0x20 ADD JUMPDEST PUSH2 0x27B1 PUSH2 0x2DD0 JUMP JUMPDEST DUP2 MSTORE PUSH1 0x20 ADD SWAP1 PUSH1 0x1 SWAP1 SUB SWAP1 DUP2 PUSH2 0x27A9 JUMPI SWAP1 POP JUMPDEST POP SWAP3 POP PUSH1 0x0 PUSH1 0x40 MLOAD DUP1 PUSH1 0xA0 ADD PUSH1 0x40 MSTORE DUP1 PUSH1 0x0 PUSH4 0xFFFFFFFF AND DUP2 MSTORE PUSH1 0x20 ADD PUSH1 0x8 PUSH1 0x0 SWAP1 SLOAD SWAP1 PUSH2 0x100 EXP SWAP1 DIV PUSH20 0xFFFFFFFFFFFFFFFFFFFFFFFFFFFFFFFFFFFFFFFF AND PUSH20 0xFFFFFFFFFFFFFFFFFFFFFFFFFFFFFFFFFFFFFFFF AND DUP2 MSTORE PUSH1 0x20 ADD DUP4 DUP2 MSTORE PUSH1 0x20 ADD DUP8 PUSH1 0x40 MLOAD PUSH1 0x20 ADD PUSH2 0x2836 SWAP2 SWAP1 PUSH2 0x44A5 JUMP JUMPDEST PUSH1 0x40 MLOAD PUSH1 0x20 DUP2 DUP4 SUB SUB DUP2 MSTORE SWAP1 PUSH1 0x40 MSTORE DUP2 MSTORE PUSH1 0x20 ADD PUSH1 0x0 ISZERO ISZERO DUP2 MSTORE POP SWAP1 POP DUP1 DUP5 PUSH1 0x0 DUP2 MLOAD DUP2 LT PUSH2 0x2868 JUMPI PUSH2 0x2867 PUSH2 0x3E41 JUMP JUMPDEST JUMPDEST PUSH1 0x20 MUL PUSH1 0x20 ADD ADD DUP2 SWAP1 MSTORE POP POP JUMPDEST PUSH1 0x0 PUSH1 0x40 MLOAD DUP1 PUSH1 0xA0 ADD PUSH1 0x40 MSTORE DUP1 DUP12 DUP2 MSTORE PUSH1 0x20 ADD PUSH1 0xC PUSH1 0x0 SWAP1 SLOAD SWAP1 PUSH2 0x100 EXP SWAP1 DIV PUSH2 0xFFFF AND PUSH2 0xFFFF AND DUP2 MSTORE PUSH1 0x20 ADD PUSH1 0x1 ISZERO ISZERO DUP2 MSTORE PUSH1 0x20 ADD DUP5 ISZERO ISZERO DUP2 MSTORE PUSH1 0x20 ADD DUP7 DUP2 MSTORE POP SWAP1 POP PUSH1 0x0 PUSH1 0x40 MLOAD DUP1 PUSH2 0x120 ADD PUSH1 0x40 MSTORE DUP1 DUP12 DUP2 MSTORE PUSH1 0x20 ADD DUP11 DUP2 MSTORE PUSH1 0x20 ADD CALLER PUSH20 0xFFFFFFFFFFFFFFFFFFFFFFFFFFFFFFFFFFFFFFFF AND DUP2 MSTORE PUSH1 0x20 ADD PUSH1 0x0 ISZERO ISZERO DUP2 MSTORE PUSH1 0x20 ADD PUSH1 0x8 PUSH1 0x0 SWAP1 SLOAD SWAP1 PUSH2 0x100 EXP SWAP1 DIV PUSH20 0xFFFFFFFFFFFFFFFFFFFFFFFFFFFFFFFFFFFFFFFF AND PUSH20 0xFFFFFFFFFFFFFFFFFFFFFFFFFFFFFFFFFFFFFFFF AND DUP2 MSTORE PUSH1 0x20 ADD DUP10 DUP2 MSTORE PUSH1 0x20 ADD DUP9 PUSH1 0x40 MLOAD PUSH1 0x20 ADD PUSH2 0x294D SWAP2 SWAP1 PUSH2 0x44A5 JUMP JUMPDEST PUSH1 0x40 MLOAD PUSH1 0x20 DUP2 DUP4 SUB SUB DUP2 MSTORE SWAP1 PUSH1 0x40 MSTORE DUP2 MSTORE PUSH1 0x20 ADD PUSH1 0x1 PUSH1 0xFF AND DUP2 MSTORE PUSH1 0x20 ADD DUP7 DUP2 MSTORE POP SWAP1 POP PUSH1 0x0 PUSH1 0x40 MLOAD DUP1 PUSH1 0xC0 ADD PUSH1 0x40 MSTORE DUP1 PUSH1 0x9 SLOAD DUP2 MSTORE PUSH1 0x20 ADD PUSH1 0xA SLOAD DUP2 MSTORE PUSH1 0x20 ADD PUSH2 0x2997 DUP16 PUSH2 0x1022 JUMP JUMPDEST PUSH8 0xFFFFFFFFFFFFFFFF AND DUP2 MSTORE PUSH1 0x20 ADD PUSH1 0xC PUSH1 0x2 SWAP1 SLOAD SWAP1 PUSH2 0x100 EXP SWAP1 DIV PUSH8 0xFFFFFFFFFFFFFFFF AND PUSH8 0xFFFFFFFFFFFFFFFF AND DUP2 MSTORE PUSH1 0x20 ADD DUP5 DUP2 MSTORE PUSH1 0x20 ADD DUP4 DUP2 MSTORE POP SWAP1 POP DUP15 DUP15 DUP2 MLOAD DUP2 LT PUSH2 0x29EB JUMPI PUSH2 0x29EA PUSH2 0x3E41 JUMP JUMPDEST JUMPDEST PUSH1 0x20 MUL PUSH1 0x20 ADD ADD MLOAD PUSH2 0x29FC DUP3 PUSH2 0x1079 JUMP JUMPDEST EQ PUSH2 0x2A3C JUMPI PUSH1 0x40 MLOAD PUSH32 0x8C379A000000000000000000000000000000000000000000000000000000000 DUP2 MSTORE PUSH1 0x4 ADD PUSH2 0x2A33 SWAP1 PUSH2 0x502A JUMP JUMPDEST PUSH1 0x40 MLOAD DUP1 SWAP2 SUB SWAP1 REVERT JUMPDEST POP POP POP POP POP POP POP POP POP POP POP POP POP POP POP POP JUMP JUMPDEST PUSH1 0x0 CALLER SWAP1 POP SWAP1 JUMP JUMPDEST PUSH1 0x0 PUSH2 0x2A81 DUP3 DUP5 PUSH20 0xFFFFFFFFFFFFFFFFFFFFFFFFFFFFFFFFFFFFFFFF AND PUSH2 0x2BCD SWAP1 SWAP2 SWAP1 PUSH4 0xFFFFFFFF AND JUMP JUMPDEST SWAP1 POP PUSH1 0x0 DUP2 MLOAD EQ ISZERO DUP1 ISZERO PUSH2 0x2AA6 JUMPI POP DUP1 DUP1 PUSH1 0x20 ADD SWAP1 MLOAD DUP2 ADD SWAP1 PUSH2 0x2AA4 SWAP2 SWAP1 PUSH2 0x505F JUMP JUMPDEST ISZERO JUMPDEST ISZERO PUSH2 0x2AE8 JUMPI DUP3 PUSH1 0x40 MLOAD PUSH32 0x5274AFE700000000000000000000000000000000000000000000000000000000 DUP2 MSTORE PUSH1 0x4 ADD PUSH2 0x2ADF SWAP2 SWAP1 PUSH2 0x2E5E JUMP JUMPDEST PUSH1 0x40 MLOAD DUP1 SWAP2 SUB SWAP1 REVERT JUMPDEST POP POP POP JUMP JUMPDEST PUSH1 0x0 DUP1 DUP3 MLOAD PUSH8 0xFFFFFFFFFFFFFFFF DUP2 GT ISZERO PUSH2 0x2B0B JUMPI PUSH2 0x2B0A PUSH2 0x308D JUMP JUMPDEST JUMPDEST PUSH1 0x40 MLOAD SWAP1 DUP1 DUP3 MSTORE DUP1 PUSH1 0x20 MUL PUSH1 0x20 ADD DUP3 ADD PUSH1 0x40 MSTORE DUP1 ISZERO PUSH2 0x2B39 JUMPI DUP2 PUSH1 0x20 ADD PUSH1 0x20 DUP3 MUL DUP1 CALLDATASIZE DUP4 CALLDATACOPY DUP1 DUP3 ADD SWAP2 POP POP SWAP1 POP JUMPDEST POP SWAP1 POP PUSH1 0x0 JUMPDEST DUP4 MLOAD DUP2 LT ISZERO PUSH2 0x2B9D JUMPI PUSH2 0x2B6B DUP5 DUP3 DUP2 MLOAD DUP2 LT PUSH2 0x2B5E JUMPI PUSH2 0x2B5D PUSH2 0x3E41 JUMP JUMPDEST JUMPDEST PUSH1 0x20 MUL PUSH1 0x20 ADD ADD MLOAD PUSH2 0x2BE3 JUMP JUMPDEST DUP3 DUP3 DUP2 MLOAD DUP2 LT PUSH2 0x2B7E JUMPI PUSH2 0x2B7D PUSH2 0x3E41 JUMP JUMPDEST JUMPDEST PUSH1 0x20 MUL PUSH1 0x20 ADD ADD DUP2 DUP2 MSTORE POP POP DUP1 DUP1 PUSH2 0x2B95 SWAP1 PUSH2 0x3F7D JUMP JUMPDEST SWAP2 POP POP PUSH2 0x2B3F JUMP JUMPDEST POP DUP1 PUSH1 0x40 MLOAD PUSH1 0x20 ADD PUSH2 0x2BAF SWAP2 SWAP1 PUSH2 0x511C JUMP JUMPDEST PUSH1 0x40 MLOAD PUSH1 0x20 DUP2 DUP4 SUB SUB DUP2 MSTORE SWAP1 PUSH1 0x40 MSTORE DUP1 MLOAD SWAP1 PUSH1 0x20 ADD KECCAK256 SWAP2 POP POP SWAP2 SWAP1 POP JUMP JUMPDEST PUSH1 0x60 PUSH2 0x2BDB DUP4 DUP4 PUSH1 0x0 PUSH2 0x2C2F JUMP JUMPDEST SWAP1 POP SWAP3 SWAP2 POP POP JUMP JUMPDEST PUSH1 0x0 DUP2 PUSH1 0x0 ADD MLOAD DUP3 PUSH1 0x20 ADD MLOAD DUP4 PUSH1 0x40 ADD MLOAD DUP5 PUSH1 0x60 ADD MLOAD DUP6 PUSH1 0x80 ADD MLOAD PUSH1 0x40 MLOAD PUSH1 0x20 ADD PUSH2 0x2C12 SWAP6 SWAP5 SWAP4 SWAP3 SWAP2 SWAP1 PUSH2 0x5169 JUMP JUMPDEST PUSH1 0x40 MLOAD PUSH1 0x20 DUP2 DUP4 SUB SUB DUP2 MSTORE SWAP1 PUSH1 0x40 MSTORE DUP1 MLOAD SWAP1 PUSH1 0x20 ADD KECCAK256 SWAP1 POP SWAP2 SWAP1 POP JUMP JUMPDEST PUSH1 0x60 DUP2 SELFBALANCE LT ISZERO PUSH2 0x2C76 JUMPI ADDRESS PUSH1 0x40 MLOAD PUSH32 0xCD78605900000000000000000000000000000000000000000000000000000000 DUP2 MSTORE PUSH1 0x4 ADD PUSH2 0x2C6D SWAP2 SWAP1 PUSH2 0x2E5E JUMP JUMPDEST PUSH1 0x40 MLOAD DUP1 SWAP2 SUB SWAP1 REVERT JUMPDEST PUSH1 0x0 DUP1 DUP6 PUSH20 0xFFFFFFFFFFFFFFFFFFFFFFFFFFFFFFFFFFFFFFFF AND DUP5 DUP7 PUSH1 0x40 MLOAD PUSH2 0x2C9F SWAP2 SWAP1 PUSH2 0x51C0 JUMP JUMPDEST PUSH1 0x0 PUSH1 0x40 MLOAD DUP1 DUP4 SUB DUP2 DUP6 DUP8 GAS CALL SWAP3 POP POP POP RETURNDATASIZE DUP1 PUSH1 0x0 DUP2 EQ PUSH2 0x2CDC JUMPI PUSH1 0x40 MLOAD SWAP2 POP PUSH1 0x1F NOT PUSH1 0x3F RETURNDATASIZE ADD AND DUP3 ADD PUSH1 0x40 MSTORE RETURNDATASIZE DUP3 MSTORE RETURNDATASIZE PUSH1 0x0 PUSH1 0x20 DUP5 ADD RETURNDATACOPY PUSH2 0x2CE1 JUMP JUMPDEST PUSH1 0x60 SWAP2 POP JUMPDEST POP SWAP2 POP SWAP2 POP PUSH2 0x2CF1 DUP7 DUP4 DUP4 PUSH2 0x2CFC JUMP JUMPDEST SWAP3 POP POP POP SWAP4 SWAP3 POP POP POP JUMP JUMPDEST PUSH1 0x60 DUP3 PUSH2 0x2D11 JUMPI PUSH2 0x2D0C DUP3 PUSH2 0x2D8B JUMP JUMPDEST PUSH2 0x2D83 JUMP JUMPDEST PUSH1 0x0 DUP3 MLOAD EQ DUP1 ISZERO PUSH2 0x2D39 JUMPI POP PUSH1 0x0 DUP5 PUSH20 0xFFFFFFFFFFFFFFFFFFFFFFFFFFFFFFFFFFFFFFFF AND EXTCODESIZE EQ JUMPDEST ISZERO PUSH2 0x2D7B JUMPI DUP4 PUSH1 0x40 MLOAD PUSH32 0x9996B31500000000000000000000000000000000000000000000000000000000 DUP2 MSTORE PUSH1 0x4 ADD PUSH2 0x2D72 SWAP2 SWAP1 PUSH2 0x2E5E JUMP JUMPDEST PUSH1 0x40 MLOAD DUP1 SWAP2 SUB SWAP1 REVERT JUMPDEST DUP2 SWAP1 POP PUSH2 0x2D84 JUMP JUMPDEST JUMPDEST SWAP4 SWAP3 POP POP POP JUMP JUMPDEST PUSH1 0x0 DUP2 MLOAD GT ISZERO PUSH2 0x2D9E JUMPI DUP1 MLOAD DUP1 DUP3 PUSH1 0x20 ADD REVERT JUMPDEST PUSH1 0x40 MLOAD PUSH32 0x1425EA4200000000000000000000000000000000000000000000000000000000 DUP2 MSTORE PUSH1 0x4 ADD PUSH1 0x40 MLOAD DUP1 SWAP2 SUB SWAP1 REVERT JUMPDEST PUSH1 0x40 MLOAD DUP1 PUSH1 0xA0 ADD PUSH1 0x40 MSTORE DUP1 PUSH1 0x0 PUSH4 0xFFFFFFFF AND DUP2 MSTORE PUSH1 0x20 ADD PUSH1 0x0 PUSH20 0xFFFFFFFFFFFFFFFFFFFFFFFFFFFFFFFFFFFFFFFF AND DUP2 MSTORE PUSH1 0x20 ADD PUSH1 0x60 DUP2 MSTORE PUSH1 0x20 ADD PUSH1 0x60 DUP2 MSTORE PUSH1 0x20 ADD PUSH1 0x0 ISZERO ISZERO DUP2 MSTORE POP SWAP1 JUMP JUMPDEST PUSH1 0x0 PUSH20 0xFFFFFFFFFFFFFFFFFFFFFFFFFFFFFFFFFFFFFFFF DUP3 AND SWAP1 POP SWAP2 SWAP1 POP JUMP JUMPDEST PUSH1 0x0 PUSH2 0x2E48 DUP3 PUSH2 0x2E1D JUMP JUMPDEST SWAP1 POP SWAP2 SWAP1 POP JUMP JUMPDEST PUSH2 0x2E58 DUP2 PUSH2 0x2E3D JUMP JUMPDEST DUP3 MSTORE POP POP JUMP JUMPDEST PUSH1 0x0 PUSH1 0x20 DUP3 ADD SWAP1 POP PUSH2 0x2E73 PUSH1 0x0 DUP4 ADD DUP5 PUSH2 0x2E4F JUMP JUMPDEST SWAP3 SWAP2 POP POP JUMP JUMPDEST PUSH1 0x0 PUSH1 0x40 MLOAD SWAP1 POP SWAP1 JUMP JUMPDEST PUSH1 0x0 DUP1 REVERT JUMPDEST PUSH1 0x0 DUP1 REVERT JUMPDEST PUSH1 0x0 DUP2 SWAP1 POP SWAP2 SWAP1 POP JUMP JUMPDEST PUSH2 0x2EA0 DUP2 PUSH2 0x2E8D JUMP JUMPDEST DUP2 EQ PUSH2 0x2EAB JUMPI PUSH1 0x0 DUP1 REVERT JUMPDEST POP JUMP JUMPDEST PUSH1 0x0 DUP2 CALLDATALOAD SWAP1 POP PUSH2 0x2EBD DUP2 PUSH2 0x2E97 JUMP JUMPDEST SWAP3 SWAP2 POP POP JUMP JUMPDEST PUSH1 0x0 PUSH1 0x20 DUP3 DUP5 SUB SLT ISZERO PUSH2 0x2ED9 JUMPI PUSH2 0x2ED8 PUSH2 0x2E83 JUMP JUMPDEST JUMPDEST PUSH1 0x0 PUSH2 0x2EE7 DUP5 DUP3 DUP6 ADD PUSH2 0x2EAE JUMP JUMPDEST SWAP2 POP POP SWAP3 SWAP2 POP POP JUMP JUMPDEST PUSH1 0x0 DUP2 SWAP1 POP SWAP2 SWAP1 POP JUMP JUMPDEST PUSH2 0x2F03 DUP2 PUSH2 0x2EF0 JUMP JUMPDEST DUP2 EQ PUSH2 0x2F0E JUMPI PUSH1 0x0 DUP1 REVERT JUMPDEST POP JUMP JUMPDEST PUSH1 0x0 DUP2 CALLDATALOAD SWAP1 POP PUSH2 0x2F20 DUP2 PUSH2 0x2EFA JUMP JUMPDEST SWAP3 SWAP2 POP POP JUMP JUMPDEST PUSH1 0x0 PUSH1 0x20 DUP3 DUP5 SUB SLT ISZERO PUSH2 0x2F3C JUMPI PUSH2 0x2F3B PUSH2 0x2E83 JUMP JUMPDEST JUMPDEST PUSH1 0x0 PUSH2 0x2F4A DUP5 DUP3 DUP6 ADD PUSH2 0x2F11 JUMP JUMPDEST SWAP2 POP POP SWAP3 SWAP2 POP POP JUMP JUMPDEST PUSH1 0x0 DUP2 MLOAD SWAP1 POP SWAP2 SWAP1 POP JUMP JUMPDEST PUSH1 0x0 DUP3 DUP3 MSTORE PUSH1 0x20 DUP3 ADD SWAP1 POP SWAP3 SWAP2 POP POP JUMP JUMPDEST PUSH1 0x0 JUMPDEST DUP4 DUP2 LT ISZERO PUSH2 0x2F8D JUMPI DUP1 DUP3 ADD MLOAD DUP2 DUP5 ADD MSTORE PUSH1 0x20 DUP2 ADD SWAP1 POP PUSH2 0x2F72 JUMP JUMPDEST PUSH1 0x0 DUP5 DUP5 ADD MSTORE POP POP POP POP JUMP JUMPDEST PUSH1 0x0 PUSH1 0x1F NOT PUSH1 0x1F DUP4 ADD AND SWAP1 POP SWAP2 SWAP1 POP JUMP JUMPDEST PUSH1 0x0 PUSH2 0x2FB5 DUP3 PUSH2 0x2F53 JUMP JUMPDEST PUSH2 0x2FBF DUP2 DUP6 PUSH2 0x2F5E JUMP JUMPDEST SWAP4 POP PUSH2 0x2FCF DUP2 DUP6 PUSH1 0x20 DUP7 ADD PUSH2 0x2F6F JUMP JUMPDEST PUSH2 0x2FD8 DUP2 PUSH2 0x2F99 JUMP JUMPDEST DUP5 ADD SWAP2 POP POP SWAP3 SWAP2 POP POP JUMP JUMPDEST PUSH1 0x0 PUSH1 0x20 DUP3 ADD SWAP1 POP DUP2 DUP2 SUB PUSH1 0x0 DUP4 ADD MSTORE PUSH2 0x2FFD DUP2 DUP5 PUSH2 0x2FAA JUMP JUMPDEST SWAP1 POP SWAP3 SWAP2 POP POP JUMP JUMPDEST PUSH2 0x300E DUP2 PUSH2 0x2E3D JUMP JUMPDEST DUP2 EQ PUSH2 0x3019 JUMPI PUSH1 0x0 DUP1 REVERT JUMPDEST POP JUMP JUMPDEST PUSH1 0x0 DUP2 CALLDATALOAD SWAP1 POP PUSH2 0x302B DUP2 PUSH2 0x3005 JUMP JUMPDEST SWAP3 SWAP2 POP POP JUMP JUMPDEST PUSH1 0x0 PUSH1 0x20 DUP3 DUP5 SUB SLT ISZERO PUSH2 0x3047 JUMPI PUSH2 0x3046 PUSH2 0x2E83 JUMP JUMPDEST JUMPDEST PUSH1 0x0 PUSH2 0x3055 DUP5 DUP3 DUP6 ADD PUSH2 0x301C JUMP JUMPDEST SWAP2 POP POP SWAP3 SWAP2 POP POP JUMP JUMPDEST PUSH2 0x3067 DUP2 PUSH2 0x2EF0 JUMP JUMPDEST DUP3 MSTORE POP POP JUMP JUMPDEST PUSH1 0x0 PUSH1 0x20 DUP3 ADD SWAP1 POP PUSH2 0x3082 PUSH1 0x0 DUP4 ADD DUP5 PUSH2 0x305E JUMP JUMPDEST SWAP3 SWAP2 POP POP JUMP JUMPDEST PUSH1 0x0 DUP1 REVERT JUMPDEST PUSH32 0x4E487B7100000000000000000000000000000000000000000000000000000000 PUSH1 0x0 MSTORE PUSH1 0x41 PUSH1 0x4 MSTORE PUSH1 0x24 PUSH1 0x0 REVERT JUMPDEST PUSH2 0x30C5 DUP3 PUSH2 0x2F99 JUMP JUMPDEST DUP2 ADD DUP2 DUP2 LT PUSH8 0xFFFFFFFFFFFFFFFF DUP3 GT OR ISZERO PUSH2 0x30E4 JUMPI PUSH2 0x30E3 PUSH2 0x308D JUMP JUMPDEST JUMPDEST DUP1 PUSH1 0x40 MSTORE POP POP POP JUMP JUMPDEST PUSH1 0x0 PUSH2 0x30F7 PUSH2 0x2E79 JUMP JUMPDEST SWAP1 POP PUSH2 0x3103 DUP3 DUP3 PUSH2 0x30BC JUMP JUMPDEST SWAP2 SWAP1 POP JUMP JUMPDEST PUSH1 0x0 PUSH8 0xFFFFFFFFFFFFFFFF DUP3 GT ISZERO PUSH2 0x3123 JUMPI PUSH2 0x3122 PUSH2 0x308D JUMP JUMPDEST JUMPDEST PUSH1 0x20 DUP3 MUL SWAP1 POP PUSH1 0x20 DUP2 ADD SWAP1 POP SWAP2 SWAP1 POP JUMP JUMPDEST PUSH1 0x0 DUP1 REVERT JUMPDEST PUSH1 0x0 PUSH2 0x314C PUSH2 0x3147 DUP5 PUSH2 0x3108 JUMP JUMPDEST PUSH2 0x30ED JUMP JUMPDEST SWAP1 POP DUP1 DUP4 DUP3 MSTORE PUSH1 0x20 DUP3 ADD SWAP1 POP PUSH1 0x20 DUP5 MUL DUP4 ADD DUP6 DUP2 GT ISZERO PUSH2 0x316F JUMPI PUSH2 0x316E PUSH2 0x3134 JUMP JUMPDEST JUMPDEST DUP4 JUMPDEST DUP2 DUP2 LT ISZERO PUSH2 0x3198 JUMPI DUP1 PUSH2 0x3184 DUP9 DUP3 PUSH2 0x2F11 JUMP JUMPDEST DUP5 MSTORE PUSH1 0x20 DUP5 ADD SWAP4 POP POP PUSH1 0x20 DUP2 ADD SWAP1 POP PUSH2 0x3171 JUMP JUMPDEST POP POP POP SWAP4 SWAP3 POP POP POP JUMP JUMPDEST PUSH1 0x0 DUP3 PUSH1 0x1F DUP4 ADD SLT PUSH2 0x31B7 JUMPI PUSH2 0x31B6 PUSH2 0x3088 JUMP JUMPDEST JUMPDEST DUP2 CALLDATALOAD PUSH2 0x31C7 DUP5 DUP3 PUSH1 0x20 DUP7 ADD PUSH2 0x3139 JUMP JUMPDEST SWAP2 POP POP SWAP3 SWAP2 POP POP JUMP JUMPDEST PUSH1 0x0 DUP1 PUSH1 0x0 DUP1 PUSH1 0x80 DUP6 DUP8 SUB SLT ISZERO PUSH2 0x31EA JUMPI PUSH2 0x31E9 PUSH2 0x2E83 JUMP JUMPDEST JUMPDEST PUSH1 0x0 DUP6 ADD CALLDATALOAD PUSH8 0xFFFFFFFFFFFFFFFF DUP2 GT ISZERO PUSH2 0x3208 JUMPI PUSH2 0x3207 PUSH2 0x2E88 JUMP JUMPDEST JUMPDEST PUSH2 0x3214 DUP8 DUP3 DUP9 ADD PUSH2 0x31A2 JUMP JUMPDEST SWAP5 POP POP PUSH1 0x20 PUSH2 0x3225 DUP8 DUP3 DUP9 ADD PUSH2 0x2F11 JUMP JUMPDEST SWAP4 POP POP PUSH1 0x40 PUSH2 0x3236 DUP8 DUP3 DUP9 ADD PUSH2 0x2F11 JUMP JUMPDEST SWAP3 POP POP PUSH1 0x60 PUSH2 0x3247 DUP8 DUP3 DUP9 ADD PUSH2 0x2EAE JUMP JUMPDEST SWAP2 POP POP SWAP3 SWAP6 SWAP2 SWAP5 POP SWAP3 POP JUMP JUMPDEST PUSH1 0x0 DUP2 ISZERO ISZERO SWAP1 POP SWAP2 SWAP1 POP JUMP JUMPDEST PUSH2 0x3268 DUP2 PUSH2 0x3253 JUMP JUMPDEST DUP3 MSTORE POP POP JUMP JUMPDEST PUSH1 0x0 PUSH1 0x20 DUP3 ADD SWAP1 POP PUSH2 0x3283 PUSH1 0x0 DUP4 ADD DUP5 PUSH2 0x325F JUMP JUMPDEST SWAP3 SWAP2 POP POP JUMP JUMPDEST PUSH1 0x0 PUSH2 0xFFFF DUP3 AND SWAP1 POP SWAP2 SWAP1 POP JUMP JUMPDEST PUSH2 0x32A0 DUP2 PUSH2 0x3289 JUMP JUMPDEST DUP2 EQ PUSH2 0x32AB JUMPI PUSH1 0x0 DUP1 REVERT JUMPDEST POP JUMP JUMPDEST PUSH1 0x0 DUP2 CALLDATALOAD SWAP1 POP PUSH2 0x32BD DUP2 PUSH2 0x3297 JUMP JUMPDEST SWAP3 SWAP2 POP POP JUMP JUMPDEST PUSH1 0x0 PUSH1 0x20 DUP3 DUP5 SUB SLT ISZERO PUSH2 0x32D9 JUMPI PUSH2 0x32D8 PUSH2 0x2E83 JUMP JUMPDEST JUMPDEST PUSH1 0x0 PUSH2 0x32E7 DUP5 DUP3 DUP6 ADD PUSH2 0x32AE JUMP JUMPDEST SWAP2 POP POP SWAP3 SWAP2 POP POP JUMP JUMPDEST PUSH2 0x32F9 DUP2 PUSH2 0x2E8D JUMP JUMPDEST DUP3 MSTORE POP POP JUMP JUMPDEST PUSH1 0x0 PUSH1 0x20 DUP3 ADD SWAP1 POP PUSH2 0x3314 PUSH1 0x0 DUP4 ADD DUP5 PUSH2 0x32F0 JUMP JUMPDEST SWAP3 SWAP2 POP POP JUMP JUMPDEST PUSH1 0x0 DUP1 PUSH1 0x0 PUSH1 0x60 DUP5 DUP7 SUB SLT ISZERO PUSH2 0x3333 JUMPI PUSH2 0x3332 PUSH2 0x2E83 JUMP JUMPDEST JUMPDEST PUSH1 0x0 PUSH2 0x3341 DUP7 DUP3 DUP8 ADD PUSH2 0x301C JUMP JUMPDEST SWAP4 POP POP PUSH1 0x20 PUSH2 0x3352 DUP7 DUP3 DUP8 ADD PUSH2 0x2EAE JUMP JUMPDEST SWAP3 POP POP PUSH1 0x40 PUSH2 0x3363 DUP7 DUP3 DUP8 ADD PUSH2 0x301C JUMP JUMPDEST SWAP2 POP POP SWAP3 POP SWAP3 POP SWAP3 JUMP JUMPDEST PUSH1 0x0 PUSH8 0xFFFFFFFFFFFFFFFF DUP3 AND SWAP1 POP SWAP2 SWAP1 POP JUMP JUMPDEST PUSH2 0x338A DUP2 PUSH2 0x336D JUMP JUMPDEST DUP2 EQ PUSH2 0x3395 JUMPI PUSH1 0x0 DUP1 REVERT JUMPDEST POP JUMP JUMPDEST PUSH1 0x0 DUP2 CALLDATALOAD SWAP1 POP PUSH2 0x33A7 DUP2 PUSH2 0x3381 JUMP JUMPDEST SWAP3 SWAP2 POP POP JUMP JUMPDEST PUSH1 0x0 PUSH1 0x20 DUP3 DUP5 SUB SLT ISZERO PUSH2 0x33C3 JUMPI PUSH2 0x33C2 PUSH2 0x2E83 JUMP JUMPDEST JUMPDEST PUSH1 0x0 PUSH2 0x33D1 DUP5 DUP3 DUP6 ADD PUSH2 0x3398 JUMP JUMPDEST SWAP2 POP POP SWAP3 SWAP2 POP POP JUMP JUMPDEST PUSH1 0x0 DUP2 SWAP1 POP SWAP2 SWAP1 POP JUMP JUMPDEST PUSH1 0x0 PUSH2 0x33FF PUSH2 0x33FA PUSH2 0x33F5 DUP5 PUSH2 0x2E1D JUMP JUMPDEST PUSH2 0x33DA JUMP JUMPDEST PUSH2 0x2E1D JUMP JUMPDEST SWAP1 POP SWAP2 SWAP1 POP JUMP JUMPDEST PUSH1 0x0 PUSH2 0x3411 DUP3 PUSH2 0x33E4 JUMP JUMPDEST SWAP1 POP SWAP2 SWAP1 POP JUMP JUMPDEST PUSH1 0x0 PUSH2 0x3423 DUP3 PUSH2 0x3406 JUMP JUMPDEST SWAP1 POP SWAP2 SWAP1 POP JUMP JUMPDEST PUSH2 0x3433 DUP2 PUSH2 0x3418 JUMP JUMPDEST DUP3 MSTORE POP POP JUMP JUMPDEST PUSH1 0x0 PUSH1 0x20 DUP3 ADD SWAP1 POP PUSH2 0x344E PUSH1 0x0 DUP4 ADD DUP5 PUSH2 0x342A JUMP JUMPDEST SWAP3 SWAP2 POP POP JUMP JUMPDEST PUSH2 0x345D DUP2 PUSH2 0x336D JUMP JUMPDEST DUP3 MSTORE POP POP JUMP JUMPDEST PUSH1 0x0 PUSH1 0x20 DUP3 ADD SWAP1 POP PUSH2 0x3478 PUSH1 0x0 DUP4 ADD DUP5 PUSH2 0x3454 JUMP JUMPDEST SWAP3 SWAP2 POP POP JUMP JUMPDEST PUSH1 0x0 DUP1 REVERT JUMPDEST PUSH1 0x0 DUP1 REVERT JUMPDEST PUSH2 0x3491 DUP2 PUSH2 0x3253 JUMP JUMPDEST DUP2 EQ PUSH2 0x349C JUMPI PUSH1 0x0 DUP1 REVERT JUMPDEST POP JUMP JUMPDEST PUSH1 0x0 DUP2 CALLDATALOAD SWAP1 POP PUSH2 0x34AE DUP2 PUSH2 0x3488 JUMP JUMPDEST SWAP3 SWAP2 POP POP JUMP JUMPDEST PUSH1 0x0 PUSH8 0xFFFFFFFFFFFFFFFF DUP3 GT ISZERO PUSH2 0x34CF JUMPI PUSH2 0x34CE PUSH2 0x308D JUMP JUMPDEST JUMPDEST PUSH1 0x20 DUP3 MUL SWAP1 POP PUSH1 0x20 DUP2 ADD SWAP1 POP SWAP2 SWAP1 POP JUMP JUMPDEST PUSH1 0x0 PUSH4 0xFFFFFFFF DUP3 AND SWAP1 POP SWAP2 SWAP1 POP JUMP JUMPDEST PUSH2 0x34F9 DUP2 PUSH2 0x34E0 JUMP JUMPDEST DUP2 EQ PUSH2 0x3504 JUMPI PUSH1 0x0 DUP1 REVERT JUMPDEST POP JUMP JUMPDEST PUSH1 0x0 DUP2 CALLDATALOAD SWAP1 POP PUSH2 0x3516 DUP2 PUSH2 0x34F0 JUMP JUMPDEST SWAP3 SWAP2 POP POP JUMP JUMPDEST PUSH1 0x0 PUSH2 0x352F PUSH2 0x352A DUP5 PUSH2 0x34B4 JUMP JUMPDEST PUSH2 0x30ED JUMP JUMPDEST SWAP1 POP DUP1 DUP4 DUP3 MSTORE PUSH1 0x20 DUP3 ADD SWAP1 POP PUSH1 0x20 DUP5 MUL DUP4 ADD DUP6 DUP2 GT ISZERO PUSH2 0x3552 JUMPI PUSH2 0x3551 PUSH2 0x3134 JUMP JUMPDEST JUMPDEST DUP4 JUMPDEST DUP2 DUP2 LT ISZERO PUSH2 0x357B JUMPI DUP1 PUSH2 0x3567 DUP9 DUP3 PUSH2 0x3507 JUMP JUMPDEST DUP5 MSTORE PUSH1 0x20 DUP5 ADD SWAP4 POP POP PUSH1 0x20 DUP2 ADD SWAP1 POP PUSH2 0x3554 JUMP JUMPDEST POP POP POP SWAP4 SWAP3 POP POP POP JUMP JUMPDEST PUSH1 0x0 DUP3 PUSH1 0x1F DUP4 ADD SLT PUSH2 0x359A JUMPI PUSH2 0x3599 PUSH2 0x3088 JUMP JUMPDEST JUMPDEST DUP2 CALLDATALOAD PUSH2 0x35AA DUP5 DUP3 PUSH1 0x20 DUP7 ADD PUSH2 0x351C JUMP JUMPDEST SWAP2 POP POP SWAP3 SWAP2 POP POP JUMP JUMPDEST PUSH1 0x0 PUSH1 0xA0 DUP3 DUP5 SUB SLT ISZERO PUSH2 0x35C9 JUMPI PUSH2 0x35C8 PUSH2 0x347E JUMP JUMPDEST JUMPDEST PUSH2 0x35D3 PUSH1 0xA0 PUSH2 0x30ED JUMP JUMPDEST SWAP1 POP PUSH1 0x0 PUSH2 0x35E3 DUP5 DUP3 DUP6 ADD PUSH2 0x2F11 JUMP JUMPDEST PUSH1 0x0 DUP4 ADD MSTORE POP PUSH1 0x20 PUSH2 0x35F7 DUP5 DUP3 DUP6 ADD PUSH2 0x32AE JUMP JUMPDEST PUSH1 0x20 DUP4 ADD MSTORE POP PUSH1 0x40 PUSH2 0x360B DUP5 DUP3 DUP6 ADD PUSH2 0x349F JUMP JUMPDEST PUSH1 0x40 DUP4 ADD MSTORE POP PUSH1 0x60 PUSH2 0x361F DUP5 DUP3 DUP6 ADD PUSH2 0x349F JUMP JUMPDEST PUSH1 0x60 DUP4 ADD MSTORE POP PUSH1 0x80 DUP3 ADD CALLDATALOAD PUSH8 0xFFFFFFFFFFFFFFFF DUP2 GT ISZERO PUSH2 0x3643 JUMPI PUSH2 0x3642 PUSH2 0x3483 JUMP JUMPDEST JUMPDEST PUSH2 0x364F DUP5 DUP3 DUP6 ADD PUSH2 0x3585 JUMP JUMPDEST PUSH1 0x80 DUP4 ADD MSTORE POP SWAP3 SWAP2 POP POP JUMP JUMPDEST PUSH1 0x0 DUP1 REVERT JUMPDEST PUSH1 0x0 PUSH8 0xFFFFFFFFFFFFFFFF DUP3 GT ISZERO PUSH2 0x367B JUMPI PUSH2 0x367A PUSH2 0x308D JUMP JUMPDEST JUMPDEST PUSH2 0x3684 DUP3 PUSH2 0x2F99 JUMP JUMPDEST SWAP1 POP PUSH1 0x20 DUP2 ADD SWAP1 POP SWAP2 SWAP1 POP JUMP JUMPDEST DUP3 DUP2 DUP4 CALLDATACOPY PUSH1 0x0 DUP4 DUP4 ADD MSTORE POP POP POP JUMP JUMPDEST PUSH1 0x0 PUSH2 0x36B3 PUSH2 0x36AE DUP5 PUSH2 0x3660 JUMP JUMPDEST PUSH2 0x30ED JUMP JUMPDEST SWAP1 POP DUP3 DUP2 MSTORE PUSH1 0x20 DUP2 ADD DUP5 DUP5 DUP5 ADD GT ISZERO PUSH2 0x36CF JUMPI PUSH2 0x36CE PUSH2 0x365B JUMP JUMPDEST JUMPDEST PUSH2 0x36DA DUP5 DUP3 DUP6 PUSH2 0x3691 JUMP JUMPDEST POP SWAP4 SWAP3 POP POP POP JUMP JUMPDEST PUSH1 0x0 DUP3 PUSH1 0x1F DUP4 ADD SLT PUSH2 0x36F7 JUMPI PUSH2 0x36F6 PUSH2 0x3088 JUMP JUMPDEST JUMPDEST DUP2 CALLDATALOAD PUSH2 0x3707 DUP5 DUP3 PUSH1 0x20 DUP7 ADD PUSH2 0x36A0 JUMP JUMPDEST SWAP2 POP POP SWAP3 SWAP2 POP POP JUMP JUMPDEST PUSH1 0x0 PUSH1 0xFF DUP3 AND SWAP1 POP SWAP2 SWAP1 POP JUMP JUMPDEST PUSH2 0x3726 DUP2 PUSH2 0x3710 JUMP JUMPDEST DUP2 EQ PUSH2 0x3731 JUMPI PUSH1 0x0 DUP1 REVERT JUMPDEST POP JUMP JUMPDEST PUSH1 0x0 DUP2 CALLDATALOAD SWAP1 POP PUSH2 0x3743 DUP2 PUSH2 0x371D JUMP JUMPDEST SWAP3 SWAP2 POP POP JUMP JUMPDEST PUSH1 0x0 PUSH8 0xFFFFFFFFFFFFFFFF DUP3 GT ISZERO PUSH2 0x3764 JUMPI PUSH2 0x3763 PUSH2 0x308D JUMP JUMPDEST JUMPDEST PUSH1 0x20 DUP3 MUL SWAP1 POP PUSH1 0x20 DUP2 ADD SWAP1 POP SWAP2 SWAP1 POP JUMP JUMPDEST PUSH1 0x0 PUSH1 0xA0 DUP3 DUP5 SUB SLT ISZERO PUSH2 0x378B JUMPI PUSH2 0x378A PUSH2 0x347E JUMP JUMPDEST JUMPDEST PUSH2 0x3795 PUSH1 0xA0 PUSH2 0x30ED JUMP JUMPDEST SWAP1 POP PUSH1 0x0 PUSH2 0x37A5 DUP5 DUP3 DUP6 ADD PUSH2 0x3507 JUMP JUMPDEST PUSH1 0x0 DUP4 ADD MSTORE POP PUSH1 0x20 PUSH2 0x37B9 DUP5 DUP3 DUP6 ADD PUSH2 0x301C JUMP JUMPDEST PUSH1 0x20 DUP4 ADD MSTORE POP PUSH1 0x40 DUP3 ADD CALLDATALOAD PUSH8 0xFFFFFFFFFFFFFFFF DUP2 GT ISZERO PUSH2 0x37DD JUMPI PUSH2 0x37DC PUSH2 0x3483 JUMP JUMPDEST JUMPDEST PUSH2 0x37E9 DUP5 DUP3 DUP6 ADD PUSH2 0x31A2 JUMP JUMPDEST PUSH1 0x40 DUP4 ADD MSTORE POP PUSH1 0x60 DUP3 ADD CALLDATALOAD PUSH8 0xFFFFFFFFFFFFFFFF DUP2 GT ISZERO PUSH2 0x380D JUMPI PUSH2 0x380C PUSH2 0x3483 JUMP JUMPDEST JUMPDEST PUSH2 0x3819 DUP5 DUP3 DUP6 ADD PUSH2 0x36E2 JUMP JUMPDEST PUSH1 0x60 DUP4 ADD MSTORE POP PUSH1 0x80 PUSH2 0x382D DUP5 DUP3 DUP6 ADD PUSH2 0x349F JUMP JUMPDEST PUSH1 0x80 DUP4 ADD MSTORE POP SWAP3 SWAP2 POP POP JUMP JUMPDEST PUSH1 0x0 PUSH2 0x384C PUSH2 0x3847 DUP5 PUSH2 0x3749 JUMP JUMPDEST PUSH2 0x30ED JUMP JUMPDEST SWAP1 POP DUP1 DUP4 DUP3 MSTORE PUSH1 0x20 DUP3 ADD SWAP1 POP PUSH1 0x20 DUP5 MUL DUP4 ADD DUP6 DUP2 GT ISZERO PUSH2 0x386F JUMPI PUSH2 0x386E PUSH2 0x3134 JUMP JUMPDEST JUMPDEST DUP4 JUMPDEST DUP2 DUP2 LT ISZERO PUSH2 0x38B6 JUMPI DUP1 CALLDATALOAD PUSH8 0xFFFFFFFFFFFFFFFF DUP2 GT ISZERO PUSH2 0x3894 JUMPI PUSH2 0x3893 PUSH2 0x3088 JUMP JUMPDEST JUMPDEST DUP1 DUP7 ADD PUSH2 0x38A1 DUP10 DUP3 PUSH2 0x3775 JUMP JUMPDEST DUP6 MSTORE PUSH1 0x20 DUP6 ADD SWAP5 POP POP POP PUSH1 0x20 DUP2 ADD SWAP1 POP PUSH2 0x3871 JUMP JUMPDEST POP POP POP SWAP4 SWAP3 POP POP POP JUMP JUMPDEST PUSH1 0x0 DUP3 PUSH1 0x1F DUP4 ADD SLT PUSH2 0x38D5 JUMPI PUSH2 0x38D4 PUSH2 0x3088 JUMP JUMPDEST JUMPDEST DUP2 CALLDATALOAD PUSH2 0x38E5 DUP5 DUP3 PUSH1 0x20 DUP7 ADD PUSH2 0x3839 JUMP JUMPDEST SWAP2 POP POP SWAP3 SWAP2 POP POP JUMP JUMPDEST PUSH1 0x0 PUSH2 0x120 DUP3 DUP5 SUB SLT ISZERO PUSH2 0x3905 JUMPI PUSH2 0x3904 PUSH2 0x347E JUMP JUMPDEST JUMPDEST PUSH2 0x3910 PUSH2 0x120 PUSH2 0x30ED JUMP JUMPDEST SWAP1 POP PUSH1 0x0 PUSH2 0x3920 DUP5 DUP3 DUP6 ADD PUSH2 0x2EAE JUMP JUMPDEST PUSH1 0x0 DUP4 ADD MSTORE POP PUSH1 0x20 PUSH2 0x3934 DUP5 DUP3 DUP6 ADD PUSH2 0x2EAE JUMP JUMPDEST PUSH1 0x20 DUP4 ADD MSTORE POP PUSH1 0x40 PUSH2 0x3948 DUP5 DUP3 DUP6 ADD PUSH2 0x301C JUMP JUMPDEST PUSH1 0x40 DUP4 ADD MSTORE POP PUSH1 0x60 PUSH2 0x395C DUP5 DUP3 DUP6 ADD PUSH2 0x349F JUMP JUMPDEST PUSH1 0x60 DUP4 ADD MSTORE POP PUSH1 0x80 PUSH2 0x3970 DUP5 DUP3 DUP6 ADD PUSH2 0x301C JUMP JUMPDEST PUSH1 0x80 DUP4 ADD MSTORE POP PUSH1 0xA0 PUSH2 0x3984 DUP5 DUP3 DUP6 ADD PUSH2 0x2EAE JUMP JUMPDEST PUSH1 0xA0 DUP4 ADD MSTORE POP PUSH1 0xC0 DUP3 ADD CALLDATALOAD PUSH8 0xFFFFFFFFFFFFFFFF DUP2 GT ISZERO PUSH2 0x39A8 JUMPI PUSH2 0x39A7 PUSH2 0x3483 JUMP JUMPDEST JUMPDEST PUSH2 0x39B4 DUP5 DUP3 DUP6 ADD PUSH2 0x36E2 JUMP JUMPDEST PUSH1 0xC0 DUP4 ADD MSTORE POP PUSH1 0xE0 PUSH2 0x39C8 DUP5 DUP3 DUP6 ADD PUSH2 0x3734 JUMP JUMPDEST PUSH1 0xE0 DUP4 ADD MSTORE POP PUSH2 0x100 DUP3 ADD CALLDATALOAD PUSH8 0xFFFFFFFFFFFFFFFF DUP2 GT ISZERO PUSH2 0x39ED JUMPI PUSH2 0x39EC PUSH2 0x3483 JUMP JUMPDEST JUMPDEST PUSH2 0x39F9 DUP5 DUP3 DUP6 ADD PUSH2 0x38C0 JUMP JUMPDEST PUSH2 0x100 DUP4 ADD MSTORE POP SWAP3 SWAP2 POP POP JUMP JUMPDEST PUSH1 0x0 PUSH1 0xC0 DUP3 DUP5 SUB SLT ISZERO PUSH2 0x3A1C JUMPI PUSH2 0x3A1B PUSH2 0x347E JUMP JUMPDEST JUMPDEST PUSH2 0x3A26 PUSH1 0xC0 PUSH2 0x30ED JUMP JUMPDEST SWAP1 POP PUSH1 0x0 PUSH2 0x3A36 DUP5 DUP3 DUP6 ADD PUSH2 0x2F11 JUMP JUMPDEST PUSH1 0x0 DUP4 ADD MSTORE POP PUSH1 0x20 PUSH2 0x3A4A DUP5 DUP3 DUP6 ADD PUSH2 0x2F11 JUMP JUMPDEST PUSH1 0x20 DUP4 ADD MSTORE POP PUSH1 0x40 PUSH2 0x3A5E DUP5 DUP3 DUP6 ADD PUSH2 0x3398 JUMP JUMPDEST PUSH1 0x40 DUP4 ADD MSTORE POP PUSH1 0x60 PUSH2 0x3A72 DUP5 DUP3 DUP6 ADD PUSH2 0x3398 JUMP JUMPDEST PUSH1 0x60 DUP4 ADD MSTORE POP PUSH1 0x80 DUP3 ADD CALLDATALOAD PUSH8 0xFFFFFFFFFFFFFFFF DUP2 GT ISZERO PUSH2 0x3A96 JUMPI PUSH2 0x3A95 PUSH2 0x3483 JUMP JUMPDEST JUMPDEST PUSH2 0x3AA2 DUP5 DUP3 DUP6 ADD PUSH2 0x35B3 JUMP JUMPDEST PUSH1 0x80 DUP4 ADD MSTORE POP PUSH1 0xA0 DUP3 ADD CALLDATALOAD PUSH8 0xFFFFFFFFFFFFFFFF DUP2 GT ISZERO PUSH2 0x3AC6 JUMPI PUSH2 0x3AC5 PUSH2 0x3483 JUMP JUMPDEST JUMPDEST PUSH2 0x3AD2 DUP5 DUP3 DUP6 ADD PUSH2 0x38EE JUMP JUMPDEST PUSH1 0xA0 DUP4 ADD MSTORE POP SWAP3 SWAP2 POP POP JUMP JUMPDEST PUSH1 0x0 PUSH1 0x20 DUP3 DUP5 SUB SLT ISZERO PUSH2 0x3AF4 JUMPI PUSH2 0x3AF3 PUSH2 0x2E83 JUMP JUMPDEST JUMPDEST PUSH1 0x0 DUP3 ADD CALLDATALOAD PUSH8 0xFFFFFFFFFFFFFFFF DUP2 GT ISZERO PUSH2 0x3B12 JUMPI PUSH2 0x3B11 PUSH2 0x2E88 JUMP JUMPDEST JUMPDEST PUSH2 0x3B1E DUP5 DUP3 DUP6 ADD PUSH2 0x3A06 JUMP JUMPDEST SWAP2 POP POP SWAP3 SWAP2 POP POP JUMP JUMPDEST PUSH1 0x0 DUP1 PUSH1 0x0 DUP1 PUSH1 0x0 DUP1 PUSH1 0x0 DUP1 PUSH1 0x0 PUSH2 0x120 DUP11 DUP13 SUB SLT ISZERO PUSH2 0x3B4A JUMPI PUSH2 0x3B49 PUSH2 0x2E83 JUMP JUMPDEST JUMPDEST PUSH1 0x0 PUSH2 0x3B58 DUP13 DUP3 DUP14 ADD PUSH2 0x349F JUMP JUMPDEST SWAP10 POP POP PUSH1 0x20 DUP11 ADD CALLDATALOAD PUSH8 0xFFFFFFFFFFFFFFFF DUP2 GT ISZERO PUSH2 0x3B79 JUMPI PUSH2 0x3B78 PUSH2 0x2E88 JUMP JUMPDEST JUMPDEST PUSH2 0x3B85 DUP13 DUP3 DUP14 ADD PUSH2 0x31A2 JUMP JUMPDEST SWAP9 POP POP PUSH1 0x40 PUSH2 0x3B96 DUP13 DUP3 DUP14 ADD PUSH2 0x2EAE JUMP JUMPDEST SWAP8 POP POP PUSH1 0x60 PUSH2 0x3BA7 DUP13 DUP3 DUP14 ADD PUSH2 0x2EAE JUMP JUMPDEST SWAP7 POP POP PUSH1 0x80 PUSH2 0x3BB8 DUP13 DUP3 DUP14 ADD PUSH2 0x2F11 JUMP JUMPDEST SWAP6 POP POP PUSH1 0xA0 PUSH2 0x3BC9 DUP13 DUP3 DUP14 ADD PUSH2 0x2EAE JUMP JUMPDEST SWAP5 POP POP PUSH1 0xC0 PUSH2 0x3BDA DUP13 DUP3 DUP14 ADD PUSH2 0x2EAE JUMP JUMPDEST SWAP4 POP POP PUSH1 0xE0 PUSH2 0x3BEB DUP13 DUP3 DUP14 ADD PUSH2 0x2EAE JUMP JUMPDEST SWAP3 POP POP PUSH2 0x100 PUSH2 0x3BFD DUP13 DUP3 DUP14 ADD PUSH2 0x2EAE JUMP JUMPDEST SWAP2 POP POP SWAP3 SWAP6 SWAP9 POP SWAP3 SWAP6 SWAP9 POP SWAP3 SWAP6 SWAP9 JUMP JUMPDEST PUSH1 0x0 DUP1 PUSH1 0x40 DUP4 DUP6 SUB SLT ISZERO PUSH2 0x3C24 JUMPI PUSH2 0x3C23 PUSH2 0x2E83 JUMP JUMPDEST JUMPDEST PUSH1 0x0 PUSH2 0x3C32 DUP6 DUP3 DUP7 ADD PUSH2 0x2EAE JUMP JUMPDEST SWAP3 POP POP PUSH1 0x20 PUSH2 0x3C43 DUP6 DUP3 DUP7 ADD PUSH2 0x301C JUMP JUMPDEST SWAP2 POP POP SWAP3 POP SWAP3 SWAP1 POP JUMP JUMPDEST PUSH2 0x3C56 DUP2 PUSH2 0x3289 JUMP JUMPDEST DUP3 MSTORE POP POP JUMP JUMPDEST PUSH1 0x0 PUSH1 0x20 DUP3 ADD SWAP1 POP PUSH2 0x3C71 PUSH1 0x0 DUP4 ADD DUP5 PUSH2 0x3C4D JUMP JUMPDEST SWAP3 SWAP2 POP POP JUMP JUMPDEST PUSH1 0x0 PUSH1 0x80 DUP3 DUP5 SUB SLT ISZERO PUSH2 0x3C8D JUMPI PUSH2 0x3C8C PUSH2 0x347E JUMP JUMPDEST JUMPDEST PUSH2 0x3C97 PUSH1 0x80 PUSH2 0x30ED JUMP JUMPDEST SWAP1 POP PUSH1 0x0 PUSH2 0x3CA7 DUP5 DUP3 DUP6 ADD PUSH2 0x2F11 JUMP JUMPDEST PUSH1 0x0 DUP4 ADD MSTORE POP PUSH1 0x20 PUSH2 0x3CBB DUP5 DUP3 DUP6 ADD PUSH2 0x2F11 JUMP JUMPDEST PUSH1 0x20 DUP4 ADD MSTORE POP PUSH1 0x40 PUSH2 0x3CCF DUP5 DUP3 DUP6 ADD PUSH2 0x2F11 JUMP JUMPDEST PUSH1 0x40 DUP4 ADD MSTORE POP PUSH1 0x60 DUP3 ADD CALLDATALOAD PUSH8 0xFFFFFFFFFFFFFFFF DUP2 GT ISZERO PUSH2 0x3CF3 JUMPI PUSH2 0x3CF2 PUSH2 0x3483 JUMP JUMPDEST JUMPDEST PUSH2 0x3CFF DUP5 DUP3 DUP6 ADD PUSH2 0x35B3 JUMP JUMPDEST PUSH1 0x60 DUP4 ADD MSTORE POP SWAP3 SWAP2 POP POP JUMP JUMPDEST PUSH1 0x0 PUSH1 0x20 DUP3 DUP5 SUB SLT ISZERO PUSH2 0x3D21 JUMPI PUSH2 0x3D20 PUSH2 0x2E83 JUMP JUMPDEST JUMPDEST PUSH1 0x0 DUP3 ADD CALLDATALOAD PUSH8 0xFFFFFFFFFFFFFFFF DUP2 GT ISZERO PUSH2 0x3D3F JUMPI PUSH2 0x3D3E PUSH2 0x2E88 JUMP JUMPDEST JUMPDEST PUSH2 0x3D4B DUP5 DUP3 DUP6 ADD PUSH2 0x3C77 JUMP JUMPDEST SWAP2 POP POP SWAP3 SWAP2 POP POP JUMP JUMPDEST PUSH1 0x0 DUP1 PUSH1 0x0 DUP1 PUSH1 0x0 DUP1 PUSH1 0xC0 DUP8 DUP10 SUB SLT ISZERO PUSH2 0x3D71 JUMPI PUSH2 0x3D70 PUSH2 0x2E83 JUMP JUMPDEST JUMPDEST PUSH1 0x0 PUSH2 0x3D7F DUP10 DUP3 DUP11 ADD PUSH2 0x349F JUMP JUMPDEST SWAP7 POP POP PUSH1 0x20 PUSH2 0x3D90 DUP10 DUP3 DUP11 ADD PUSH2 0x2F11 JUMP JUMPDEST SWAP6 POP POP PUSH1 0x40 PUSH2 0x3DA1 DUP10 DUP3 DUP11 ADD PUSH2 0x2EAE JUMP JUMPDEST SWAP5 POP POP PUSH1 0x60 PUSH2 0x3DB2 DUP10 DUP3 DUP11 ADD PUSH2 0x2EAE JUMP JUMPDEST SWAP4 POP POP PUSH1 0x80 PUSH2 0x3DC3 DUP10 DUP3 DUP11 ADD PUSH2 0x2EAE JUMP JUMPDEST SWAP3 POP POP PUSH1 0xA0 PUSH2 0x3DD4 DUP10 DUP3 DUP11 ADD PUSH2 0x2EAE JUMP JUMPDEST SWAP2 POP POP SWAP3 SWAP6 POP SWAP3 SWAP6 POP SWAP3 SWAP6 JUMP JUMPDEST PUSH32 0x4E487B7100000000000000000000000000000000000000000000000000000000 PUSH1 0x0 MSTORE PUSH1 0x22 PUSH1 0x4 MSTORE PUSH1 0x24 PUSH1 0x0 REVERT JUMPDEST PUSH1 0x0 PUSH1 0x2 DUP3 DIV SWAP1 POP PUSH1 0x1 DUP3 AND DUP1 PUSH2 0x3E28 JUMPI PUSH1 0x7F DUP3 AND SWAP2 POP JUMPDEST PUSH1 0x20 DUP3 LT DUP2 SUB PUSH2 0x3E3B JUMPI PUSH2 0x3E3A PUSH2 0x3DE1 JUMP JUMPDEST JUMPDEST POP SWAP2 SWAP1 POP JUMP JUMPDEST PUSH32 0x4E487B7100000000000000000000000000000000000000000000000000000000 PUSH1 0x0 MSTORE PUSH1 0x32 PUSH1 0x4 MSTORE PUSH1 0x24 PUSH1 0x0 REVERT JUMPDEST PUSH32 0x4E487B7100000000000000000000000000000000000000000000000000000000 PUSH1 0x0 MSTORE PUSH1 0x12 PUSH1 0x4 MSTORE PUSH1 0x24 PUSH1 0x0 REVERT JUMPDEST PUSH1 0x0 PUSH2 0x3EAA DUP3 PUSH2 0x2E8D JUMP JUMPDEST SWAP2 POP PUSH2 0x3EB5 DUP4 PUSH2 0x2E8D JUMP JUMPDEST SWAP3 POP DUP3 PUSH2 0x3EC5 JUMPI PUSH2 0x3EC4 PUSH2 0x3E70 JUMP JUMPDEST JUMPDEST DUP3 DUP3 MOD SWAP1 POP SWAP3 SWAP2 POP POP JUMP JUMPDEST PUSH1 0x0 DUP2 SWAP1 POP SWAP2 SWAP1 POP JUMP JUMPDEST PUSH2 0x3EEB PUSH2 0x3EE6 DUP3 PUSH2 0x2EF0 JUMP JUMPDEST PUSH2 0x3ED0 JUMP JUMPDEST DUP3 MSTORE POP POP JUMP JUMPDEST PUSH1 0x0 PUSH2 0x3EFD DUP3 DUP6 PUSH2 0x3EDA JUMP JUMPDEST PUSH1 0x20 DUP3 ADD SWAP2 POP PUSH2 0x3F0D DUP3 DUP5 PUSH2 0x3EDA JUMP JUMPDEST PUSH1 0x20 DUP3 ADD SWAP2 POP DUP2 SWAP1 POP SWAP4 SWAP3 POP POP POP JUMP JUMPDEST PUSH32 0x4E487B7100000000000000000000000000000000000000000000000000000000 PUSH1 0x0 MSTORE PUSH1 0x11 PUSH1 0x4 MSTORE PUSH1 0x24 PUSH1 0x0 REVERT JUMPDEST PUSH1 0x0 PUSH2 0x3F57 DUP3 PUSH2 0x2E8D JUMP JUMPDEST SWAP2 POP PUSH2 0x3F62 DUP4 PUSH2 0x2E8D JUMP JUMPDEST SWAP3 POP DUP3 PUSH2 0x3F72 JUMPI PUSH2 0x3F71 PUSH2 0x3E70 JUMP JUMPDEST JUMPDEST DUP3 DUP3 DIV SWAP1 POP SWAP3 SWAP2 POP POP JUMP JUMPDEST PUSH1 0x0 PUSH2 0x3F88 DUP3 PUSH2 0x2E8D JUMP JUMPDEST SWAP2 POP PUSH32 0xFFFFFFFFFFFFFFFFFFFFFFFFFFFFFFFFFFFFFFFFFFFFFFFFFFFFFFFFFFFFFFFF DUP3 SUB PUSH2 0x3FBA JUMPI PUSH2 0x3FB9 PUSH2 0x3F1D JUMP JUMPDEST JUMPDEST PUSH1 0x1 DUP3 ADD SWAP1 POP SWAP2 SWAP1 POP JUMP JUMPDEST PUSH1 0x0 PUSH2 0x3FD0 DUP3 PUSH2 0x2E8D JUMP JUMPDEST SWAP2 POP PUSH2 0x3FDB DUP4 PUSH2 0x2E8D JUMP JUMPDEST SWAP3 POP DUP3 DUP3 MUL PUSH2 0x3FE9 DUP2 PUSH2 0x2E8D JUMP JUMPDEST SWAP2 POP DUP3 DUP3 DIV DUP5 EQ DUP4 ISZERO OR PUSH2 0x4000 JUMPI PUSH2 0x3FFF PUSH2 0x3F1D JUMP JUMPDEST JUMPDEST POP SWAP3 SWAP2 POP POP JUMP JUMPDEST PUSH1 0x0 PUSH2 0x4012 DUP3 PUSH2 0x2E8D JUMP JUMPDEST SWAP2 POP PUSH2 0x401D DUP4 PUSH2 0x2E8D JUMP JUMPDEST SWAP3 POP DUP3 DUP3 ADD SWAP1 POP DUP1 DUP3 GT ISZERO PUSH2 0x4035 JUMPI PUSH2 0x4034 PUSH2 0x3F1D JUMP JUMPDEST JUMPDEST SWAP3 SWAP2 POP POP JUMP JUMPDEST PUSH32 0x6E6F7420656E6F75676820666565000000000000000000000000000000000000 PUSH1 0x0 DUP3 ADD MSTORE POP JUMP JUMPDEST PUSH1 0x0 PUSH2 0x4071 PUSH1 0xE DUP4 PUSH2 0x2F5E JUMP JUMPDEST SWAP2 POP PUSH2 0x407C DUP3 PUSH2 0x403B JUMP JUMPDEST PUSH1 0x20 DUP3 ADD SWAP1 POP SWAP2 SWAP1 POP JUMP JUMPDEST PUSH1 0x0 PUSH1 0x20 DUP3 ADD SWAP1 POP DUP2 DUP2 SUB PUSH1 0x0 DUP4 ADD MSTORE PUSH2 0x40A0 DUP2 PUSH2 0x4064 JUMP JUMPDEST SWAP1 POP SWAP2 SWAP1 POP JUMP JUMPDEST PUSH1 0x0 PUSH2 0x40B2 DUP3 PUSH2 0x2E8D JUMP JUMPDEST SWAP2 POP PUSH2 0x40BD DUP4 PUSH2 0x2E8D JUMP JUMPDEST SWAP3 POP DUP3 DUP3 SUB SWAP1 POP DUP2 DUP2 GT ISZERO PUSH2 0x40D5 JUMPI PUSH2 0x40D4 PUSH2 0x3F1D JUMP JUMPDEST JUMPDEST SWAP3 SWAP2 POP POP JUMP JUMPDEST PUSH1 0x0 PUSH1 0x40 DUP3 ADD SWAP1 POP PUSH2 0x40F0 PUSH1 0x0 DUP4 ADD DUP6 PUSH2 0x2E4F JUMP JUMPDEST PUSH2 0x40FD PUSH1 0x20 DUP4 ADD DUP5 PUSH2 0x32F0 JUMP JUMPDEST SWAP4 SWAP3 POP POP POP JUMP JUMPDEST PUSH32 0x56616C756520657863656564732075696E7436342072616E6765000000000000 PUSH1 0x0 DUP3 ADD MSTORE POP JUMP JUMPDEST PUSH1 0x0 PUSH2 0x413A PUSH1 0x1A DUP4 PUSH2 0x2F5E JUMP JUMPDEST SWAP2 POP PUSH2 0x4145 DUP3 PUSH2 0x4104 JUMP JUMPDEST PUSH1 0x20 DUP3 ADD SWAP1 POP SWAP2 SWAP1 POP JUMP JUMPDEST PUSH1 0x0 PUSH1 0x20 DUP3 ADD SWAP1 POP DUP2 DUP2 SUB PUSH1 0x0 DUP4 ADD MSTORE PUSH2 0x4169 DUP2 PUSH2 0x412D JUMP JUMPDEST SWAP1 POP SWAP2 SWAP1 POP JUMP JUMPDEST PUSH1 0x0 DUP2 PUSH1 0xC0 SHL SWAP1 POP SWAP2 SWAP1 POP JUMP JUMPDEST PUSH1 0x0 PUSH2 0x4188 DUP3 PUSH2 0x4170 JUMP JUMPDEST SWAP1 POP SWAP2 SWAP1 POP JUMP JUMPDEST PUSH2 0x41A0 PUSH2 0x419B DUP3 PUSH2 0x336D JUMP JUMPDEST PUSH2 0x417D JUMP JUMPDEST DUP3 MSTORE POP POP JUMP JUMPDEST PUSH1 0x0 PUSH2 0x41B2 DUP3 DUP10 PUSH2 0x3EDA JUMP JUMPDEST PUSH1 0x20 DUP3 ADD SWAP2 POP PUSH2 0x41C2 DUP3 DUP9 PUSH2 0x3EDA JUMP JUMPDEST PUSH1 0x20 DUP3 ADD SWAP2 POP PUSH2 0x41D2 DUP3 DUP8 PUSH2 0x418F JUMP JUMPDEST PUSH1 0x8 DUP3 ADD SWAP2 POP PUSH2 0x41E2 DUP3 DUP7 PUSH2 0x418F JUMP JUMPDEST PUSH1 0x8 DUP3 ADD SWAP2 POP PUSH2 0x41F2 DUP3 DUP6 PUSH2 0x3EDA JUMP JUMPDEST PUSH1 0x20 DUP3 ADD SWAP2 POP PUSH2 0x4202 DUP3 DUP5 PUSH2 0x3EDA JUMP JUMPDEST PUSH1 0x20 DUP3 ADD SWAP2 POP DUP2 SWAP1 POP SWAP8 SWAP7 POP POP POP POP POP POP POP JUMP JUMPDEST PUSH1 0x0 DUP2 MLOAD SWAP1 POP PUSH2 0x4225 DUP2 PUSH2 0x2E97 JUMP JUMPDEST SWAP3 SWAP2 POP POP JUMP JUMPDEST PUSH1 0x0 PUSH1 0x20 DUP3 DUP5 SUB SLT ISZERO PUSH2 0x4241 JUMPI PUSH2 0x4240 PUSH2 0x2E83 JUMP JUMPDEST JUMPDEST PUSH1 0x0 PUSH2 0x424F DUP5 DUP3 DUP6 ADD PUSH2 0x4216 JUMP JUMPDEST SWAP2 POP POP SWAP3 SWAP2 POP POP JUMP JUMPDEST PUSH1 0x0 DUP2 MLOAD SWAP1 POP PUSH2 0x4267 DUP2 PUSH2 0x2EFA JUMP JUMPDEST SWAP3 SWAP2 POP POP JUMP JUMPDEST PUSH1 0x0 PUSH1 0x20 DUP3 DUP5 SUB SLT ISZERO PUSH2 0x4283 JUMPI PUSH2 0x4282 PUSH2 0x2E83 JUMP JUMPDEST JUMPDEST PUSH1 0x0 PUSH2 0x4291 DUP5 DUP3 DUP6 ADD PUSH2 0x4258 JUMP JUMPDEST SWAP2 POP POP SWAP3 SWAP2 POP POP JUMP JUMPDEST PUSH32 0x7472616E73616374696F6E206973206E6F742070726F6F766564000000000000 PUSH1 0x0 DUP3 ADD MSTORE POP JUMP JUMPDEST PUSH1 0x0 PUSH2 0x42D0 PUSH1 0x1A DUP4 PUSH2 0x2F5E JUMP JUMPDEST SWAP2 POP PUSH2 0x42DB DUP3 PUSH2 0x429A JUMP JUMPDEST PUSH1 0x20 DUP3 ADD SWAP1 POP SWAP2 SWAP1 POP JUMP JUMPDEST PUSH1 0x0 PUSH1 0x20 DUP3 ADD SWAP1 POP DUP2 DUP2 SUB PUSH1 0x0 DUP4 ADD MSTORE PUSH2 0x42FF DUP2 PUSH2 0x42C3 JUMP JUMPDEST SWAP1 POP SWAP2 SWAP1 POP JUMP JUMPDEST PUSH1 0x0 DUP2 SWAP1 POP SWAP3 SWAP2 POP POP JUMP JUMPDEST POP JUMP JUMPDEST PUSH1 0x0 PUSH2 0x4321 PUSH1 0x0 DUP4 PUSH2 0x4306 JUMP JUMPDEST SWAP2 POP PUSH2 0x432C DUP3 PUSH2 0x4311 JUMP JUMPDEST PUSH1 0x0 DUP3 ADD SWAP1 POP SWAP2 SWAP1 POP JUMP JUMPDEST PUSH1 0x0 PUSH2 0x4342 DUP3 PUSH2 0x4314 JUMP JUMPDEST SWAP2 POP DUP2 SWAP1 POP SWAP2 SWAP1 POP JUMP JUMPDEST PUSH32 0x4661696C656420746F2073656E64204574686572000000000000000000000000 PUSH1 0x0 DUP3 ADD MSTORE POP JUMP JUMPDEST PUSH1 0x0 PUSH2 0x4382 PUSH1 0x14 DUP4 PUSH2 0x2F5E JUMP JUMPDEST SWAP2 POP PUSH2 0x438D DUP3 PUSH2 0x434C JUMP JUMPDEST PUSH1 0x20 DUP3 ADD SWAP1 POP SWAP2 SWAP1 POP JUMP JUMPDEST PUSH1 0x0 PUSH1 0x20 DUP3 ADD SWAP1 POP DUP2 DUP2 SUB PUSH1 0x0 DUP4 ADD MSTORE PUSH2 0x43B1 DUP2 PUSH2 0x4375 JUMP JUMPDEST SWAP1 POP SWAP2 SWAP1 POP JUMP JUMPDEST PUSH1 0x0 PUSH2 0x43C4 DUP3 DUP8 PUSH2 0x3EDA JUMP JUMPDEST PUSH1 0x20 DUP3 ADD SWAP2 POP PUSH2 0x43D4 DUP3 DUP7 PUSH2 0x3EDA JUMP JUMPDEST PUSH1 0x20 DUP3 ADD SWAP2 POP PUSH2 0x43E4 DUP3 DUP6 PUSH2 0x3EDA JUMP JUMPDEST PUSH1 0x20 DUP3 ADD SWAP2 POP PUSH2 0x43F4 DUP3 DUP5 PUSH2 0x3EDA JUMP JUMPDEST PUSH1 0x20 DUP3 ADD SWAP2 POP DUP2 SWAP1 POP SWAP6 SWAP5 POP POP POP POP POP JUMP JUMPDEST PUSH1 0x0 DUP2 PUSH1 0xF8 SHL SWAP1 POP SWAP2 SWAP1 POP JUMP JUMPDEST PUSH1 0x0 PUSH2 0x441E DUP3 PUSH2 0x4406 JUMP JUMPDEST SWAP1 POP SWAP2 SWAP1 POP JUMP JUMPDEST PUSH1 0x0 PUSH2 0x4430 DUP3 PUSH2 0x4413 JUMP JUMPDEST SWAP1 POP SWAP2 SWAP1 POP JUMP JUMPDEST PUSH2 0x4448 PUSH2 0x4443 DUP3 PUSH2 0x3253 JUMP JUMPDEST PUSH2 0x4425 JUMP JUMPDEST DUP3 MSTORE POP POP JUMP JUMPDEST PUSH1 0x0 PUSH2 0x445A DUP3 DUP5 PUSH2 0x4437 JUMP JUMPDEST PUSH1 0x1 DUP3 ADD SWAP2 POP DUP2 SWAP1 POP SWAP3 SWAP2 POP POP JUMP JUMPDEST PUSH1 0x0 PUSH2 0x4475 DUP3 DUP5 PUSH2 0x3EDA JUMP JUMPDEST PUSH1 0x20 DUP3 ADD SWAP2 POP DUP2 SWAP1 POP SWAP3 SWAP2 POP POP JUMP JUMPDEST PUSH1 0x0 DUP2 SWAP1 POP SWAP2 SWAP1 POP JUMP JUMPDEST PUSH2 0x449F PUSH2 0x449A DUP3 PUSH2 0x2E8D JUMP JUMPDEST PUSH2 0x4484 JUMP JUMPDEST DUP3 MSTORE POP POP JUMP JUMPDEST PUSH1 0x0 PUSH2 0x44B1 DUP3 DUP5 PUSH2 0x448E JUMP JUMPDEST PUSH1 0x20 DUP3 ADD SWAP2 POP DUP2 SWAP1 POP SWAP3 SWAP2 POP POP JUMP JUMPDEST PUSH1 0x0 DUP2 PUSH1 0x60 SHL SWAP1 POP SWAP2 SWAP1 POP JUMP JUMPDEST PUSH1 0x0 PUSH2 0x44D8 DUP3 PUSH2 0x44C0 JUMP JUMPDEST SWAP1 POP SWAP2 SWAP1 POP JUMP JUMPDEST PUSH1 0x0 PUSH2 0x44EA DUP3 PUSH2 0x44CD JUMP JUMPDEST SWAP1 POP SWAP2 SWAP1 POP JUMP JUMPDEST PUSH2 0x4502 PUSH2 0x44FD DUP3 PUSH2 0x2E3D JUMP JUMPDEST PUSH2 0x44DF JUMP JUMPDEST DUP3 MSTORE POP POP JUMP JUMPDEST PUSH1 0x0 PUSH2 0x4514 DUP3 DUP5 PUSH2 0x44F1 JUMP JUMPDEST PUSH1 0x14 DUP3 ADD SWAP2 POP DUP2 SWAP1 POP SWAP3 SWAP2 POP POP JUMP JUMPDEST PUSH1 0x0 PUSH2 0x452F DUP3 DUP11 PUSH2 0x3EDA JUMP JUMPDEST PUSH1 0x20 DUP3 ADD SWAP2 POP PUSH2 0x453F DUP3 DUP10 PUSH2 0x3EDA JUMP JUMPDEST PUSH1 0x20 DUP3 ADD SWAP2 POP PUSH2 0x454F DUP3 DUP9 PUSH2 0x3EDA JUMP JUMPDEST PUSH1 0x20 DUP3 ADD SWAP2 POP PUSH2 0x455F DUP3 DUP8 PUSH2 0x3EDA JUMP JUMPDEST PUSH1 0x20 DUP3 ADD SWAP2 POP PUSH2 0x456F DUP3 DUP7 PUSH2 0x3EDA JUMP JUMPDEST PUSH1 0x20 DUP3 ADD SWAP2 POP PUSH2 0x457F DUP3 DUP6 PUSH2 0x3EDA JUMP JUMPDEST PUSH1 0x20 DUP3 ADD SWAP2 POP PUSH2 0x458F DUP3 DUP5 PUSH2 0x3EDA JUMP JUMPDEST PUSH1 0x20 DUP3 ADD SWAP2 POP DUP2 SWAP1 POP SWAP9 SWAP8 POP POP POP POP POP POP POP POP JUMP JUMPDEST PUSH32 0x746865206461746120697320616C726561647920757365640000000000000000 PUSH1 0x0 DUP3 ADD MSTORE POP JUMP JUMPDEST PUSH1 0x0 PUSH2 0x45DA PUSH1 0x18 DUP4 PUSH2 0x2F5E JUMP JUMPDEST SWAP2 POP PUSH2 0x45E5 DUP3 PUSH2 0x45A4 JUMP JUMPDEST PUSH1 0x20 DUP3 ADD SWAP1 POP SWAP2 SWAP1 POP JUMP JUMPDEST PUSH1 0x0 PUSH1 0x20 DUP3 ADD SWAP1 POP DUP2 DUP2 SUB PUSH1 0x0 DUP4 ADD MSTORE PUSH2 0x4609 DUP2 PUSH2 0x45CD JUMP JUMPDEST SWAP1 POP SWAP2 SWAP1 POP JUMP JUMPDEST PUSH32 0x746865206461746120697320616C7265616479207573656420616E6420776974 PUSH1 0x0 DUP3 ADD MSTORE PUSH32 0x68646177616C2068617070656E64000000000000000000000000000000000000 PUSH1 0x20 DUP3 ADD MSTORE POP JUMP JUMPDEST PUSH1 0x0 PUSH2 0x466C PUSH1 0x2E DUP4 PUSH2 0x2F5E JUMP JUMPDEST SWAP2 POP PUSH2 0x4677 DUP3 PUSH2 0x4610 JUMP JUMPDEST PUSH1 0x40 DUP3 ADD SWAP1 POP SWAP2 SWAP1 POP JUMP JUMPDEST PUSH1 0x0 PUSH1 0x20 DUP3 ADD SWAP1 POP DUP2 DUP2 SUB PUSH1 0x0 DUP4 ADD MSTORE PUSH2 0x469B DUP2 PUSH2 0x465F JUMP JUMPDEST SWAP1 POP SWAP2 SWAP1 POP JUMP JUMPDEST PUSH2 0x46AB DUP2 PUSH2 0x2EF0 JUMP JUMPDEST DUP3 MSTORE POP POP JUMP JUMPDEST PUSH2 0x46BA DUP2 PUSH2 0x336D JUMP JUMPDEST DUP3 MSTORE POP POP JUMP JUMPDEST PUSH2 0x46C9 DUP2 PUSH2 0x3289 JUMP JUMPDEST DUP3 MSTORE POP POP JUMP JUMPDEST PUSH2 0x46D8 DUP2 PUSH2 0x3253 JUMP JUMPDEST DUP3 MSTORE POP POP JUMP JUMPDEST PUSH1 0x0 DUP2 MLOAD SWAP1 POP SWAP2 SWAP1 POP JUMP JUMPDEST PUSH1 0x0 DUP3 DUP3 MSTORE PUSH1 0x20 DUP3 ADD SWAP1 POP SWAP3 SWAP2 POP POP JUMP JUMPDEST PUSH1 0x0 DUP2 SWAP1 POP PUSH1 0x20 DUP3 ADD SWAP1 POP SWAP2 SWAP1 POP JUMP JUMPDEST PUSH2 0x4713 DUP2 PUSH2 0x34E0 JUMP JUMPDEST DUP3 MSTORE POP POP JUMP JUMPDEST PUSH1 0x0 PUSH2 0x4725 DUP4 DUP4 PUSH2 0x470A JUMP JUMPDEST PUSH1 0x20 DUP4 ADD SWAP1 POP SWAP3 SWAP2 POP POP JUMP JUMPDEST PUSH1 0x0 PUSH1 0x20 DUP3 ADD SWAP1 POP SWAP2 SWAP1 POP JUMP JUMPDEST PUSH1 0x0 PUSH2 0x4749 DUP3 PUSH2 0x46DE JUMP JUMPDEST PUSH2 0x4753 DUP2 DUP6 PUSH2 0x46E9 JUMP JUMPDEST SWAP4 POP PUSH2 0x475E DUP4 PUSH2 0x46FA JUMP JUMPDEST DUP1 PUSH1 0x0 JUMPDEST DUP4 DUP2 LT ISZERO PUSH2 0x478F JUMPI DUP2 MLOAD PUSH2 0x4776 DUP9 DUP3 PUSH2 0x4719 JUMP JUMPDEST SWAP8 POP PUSH2 0x4781 DUP4 PUSH2 0x4731 JUMP JUMPDEST SWAP3 POP POP PUSH1 0x1 DUP2 ADD SWAP1 POP PUSH2 0x4762 JUMP JUMPDEST POP DUP6 SWAP4 POP POP POP POP SWAP3 SWAP2 POP POP JUMP JUMPDEST PUSH1 0x0 PUSH1 0xA0 DUP4 ADD PUSH1 0x0 DUP4 ADD MLOAD PUSH2 0x47B4 PUSH1 0x0 DUP7 ADD DUP3 PUSH2 0x46A2 JUMP JUMPDEST POP PUSH1 0x20 DUP4 ADD MLOAD PUSH2 0x47C7 PUSH1 0x20 DUP7 ADD DUP3 PUSH2 0x46C0 JUMP JUMPDEST POP PUSH1 0x40 DUP4 ADD MLOAD PUSH2 0x47DA PUSH1 0x40 DUP7 ADD DUP3 PUSH2 0x46CF JUMP JUMPDEST POP PUSH1 0x60 DUP4 ADD MLOAD PUSH2 0x47ED PUSH1 0x60 DUP7 ADD DUP3 PUSH2 0x46CF JUMP JUMPDEST POP PUSH1 0x80 DUP4 ADD MLOAD DUP5 DUP3 SUB PUSH1 0x80 DUP7 ADD MSTORE PUSH2 0x4805 DUP3 DUP3 PUSH2 0x473E JUMP JUMPDEST SWAP2 POP POP DUP1 SWAP2 POP POP SWAP3 SWAP2 POP POP JUMP JUMPDEST PUSH2 0x481B DUP2 PUSH2 0x2E8D JUMP JUMPDEST DUP3 MSTORE POP POP JUMP JUMPDEST PUSH2 0x482A DUP2 PUSH2 0x2E3D JUMP JUMPDEST DUP3 MSTORE POP POP JUMP JUMPDEST PUSH1 0x0 DUP2 MLOAD SWAP1 POP SWAP2 SWAP1 POP JUMP JUMPDEST PUSH1 0x0 DUP3 DUP3 MSTORE PUSH1 0x20 DUP3 ADD SWAP1 POP SWAP3 SWAP2 POP POP JUMP JUMPDEST PUSH1 0x0 PUSH2 0x4857 DUP3 PUSH2 0x4830 JUMP JUMPDEST PUSH2 0x4861 DUP2 DUP6 PUSH2 0x483B JUMP JUMPDEST SWAP4 POP PUSH2 0x4871 DUP2 DUP6 PUSH1 0x20 DUP7 ADD PUSH2 0x2F6F JUMP JUMPDEST PUSH2 0x487A DUP2 PUSH2 0x2F99 JUMP JUMPDEST DUP5 ADD SWAP2 POP POP SWAP3 SWAP2 POP POP JUMP JUMPDEST PUSH2 0x488E DUP2 PUSH2 0x3710 JUMP JUMPDEST DUP3 MSTORE POP POP JUMP JUMPDEST PUSH1 0x0 DUP2 MLOAD SWAP1 POP SWAP2 SWAP1 POP JUMP JUMPDEST PUSH1 0x0 DUP3 DUP3 MSTORE PUSH1 0x20 DUP3 ADD SWAP1 POP SWAP3 SWAP2 POP POP JUMP JUMPDEST PUSH1 0x0 DUP2 SWAP1 POP PUSH1 0x20 DUP3 ADD SWAP1 POP SWAP2 SWAP1 POP JUMP JUMPDEST PUSH1 0x0 DUP2 MLOAD SWAP1 POP SWAP2 SWAP1 POP JUMP JUMPDEST PUSH1 0x0 DUP3 DUP3 MSTORE PUSH1 0x20 DUP3 ADD SWAP1 POP SWAP3 SWAP2 POP POP JUMP JUMPDEST PUSH1 0x0 DUP2 SWAP1 POP PUSH1 0x20 DUP3 ADD SWAP1 POP SWAP2 SWAP1 POP JUMP JUMPDEST PUSH1 0x0 PUSH2 0x48F8 DUP4 DUP4 PUSH2 0x46A2 JUMP JUMPDEST PUSH1 0x20 DUP4 ADD SWAP1 POP SWAP3 SWAP2 POP POP JUMP JUMPDEST PUSH1 0x0 PUSH1 0x20 DUP3 ADD SWAP1 POP SWAP2 SWAP1 POP JUMP JUMPDEST PUSH1 0x0 PUSH2 0x491C DUP3 PUSH2 0x48C0 JUMP JUMPDEST PUSH2 0x4926 DUP2 DUP6 PUSH2 0x48CB JUMP JUMPDEST SWAP4 POP PUSH2 0x4931 DUP4 PUSH2 0x48DC JUMP JUMPDEST DUP1 PUSH1 0x0 JUMPDEST DUP4 DUP2 LT ISZERO PUSH2 0x4962 JUMPI DUP2 MLOAD PUSH2 0x4949 DUP9 DUP3 PUSH2 0x48EC JUMP JUMPDEST SWAP8 POP PUSH2 0x4954 DUP4 PUSH2 0x4904 JUMP JUMPDEST SWAP3 POP POP PUSH1 0x1 DUP2 ADD SWAP1 POP PUSH2 0x4935 JUMP JUMPDEST POP DUP6 SWAP4 POP POP POP POP SWAP3 SWAP2 POP POP JUMP JUMPDEST PUSH1 0x0 PUSH1 0xA0 DUP4 ADD PUSH1 0x0 DUP4 ADD MLOAD PUSH2 0x4987 PUSH1 0x0 DUP7 ADD DUP3 PUSH2 0x470A JUMP JUMPDEST POP PUSH1 0x20 DUP4 ADD MLOAD PUSH2 0x499A PUSH1 0x20 DUP7 ADD DUP3 PUSH2 0x4821 JUMP JUMPDEST POP PUSH1 0x40 DUP4 ADD MLOAD DUP5 DUP3 SUB PUSH1 0x40 DUP7 ADD MSTORE PUSH2 0x49B2 DUP3 DUP3 PUSH2 0x4911 JUMP JUMPDEST SWAP2 POP POP PUSH1 0x60 DUP4 ADD MLOAD DUP5 DUP3 SUB PUSH1 0x60 DUP7 ADD MSTORE PUSH2 0x49CC DUP3 DUP3 PUSH2 0x484C JUMP JUMPDEST SWAP2 POP POP PUSH1 0x80 DUP4 ADD MLOAD PUSH2 0x49E1 PUSH1 0x80 DUP7 ADD DUP3 PUSH2 0x46CF JUMP JUMPDEST POP DUP1 SWAP2 POP POP SWAP3 SWAP2 POP POP JUMP JUMPDEST PUSH1 0x0 PUSH2 0x49F8 DUP4 DUP4 PUSH2 0x496F JUMP JUMPDEST SWAP1 POP SWAP3 SWAP2 POP POP JUMP JUMPDEST PUSH1 0x0 PUSH1 0x20 DUP3 ADD SWAP1 POP SWAP2 SWAP1 POP JUMP JUMPDEST PUSH1 0x0 PUSH2 0x4A18 DUP3 PUSH2 0x4894 JUMP JUMPDEST PUSH2 0x4A22 DUP2 DUP6 PUSH2 0x489F JUMP JUMPDEST SWAP4 POP DUP4 PUSH1 0x20 DUP3 MUL DUP6 ADD PUSH2 0x4A34 DUP6 PUSH2 0x48B0 JUMP JUMPDEST DUP1 PUSH1 0x0 JUMPDEST DUP6 DUP2 LT ISZERO PUSH2 0x4A70 JUMPI DUP5 DUP5 SUB DUP10 MSTORE DUP2 MLOAD PUSH2 0x4A51 DUP6 DUP3 PUSH2 0x49EC JUMP JUMPDEST SWAP5 POP PUSH2 0x4A5C DUP4 PUSH2 0x4A00 JUMP JUMPDEST SWAP3 POP PUSH1 0x20 DUP11 ADD SWAP10 POP POP PUSH1 0x1 DUP2 ADD SWAP1 POP PUSH2 0x4A38 JUMP JUMPDEST POP DUP3 SWAP8 POP DUP8 SWAP6 POP POP POP POP POP POP SWAP3 SWAP2 POP POP JUMP JUMPDEST PUSH1 0x0 PUSH2 0x120 DUP4 ADD PUSH1 0x0 DUP4 ADD MLOAD PUSH2 0x4A9B PUSH1 0x0 DUP7 ADD DUP3 PUSH2 0x4812 JUMP JUMPDEST POP PUSH1 0x20 DUP4 ADD MLOAD PUSH2 0x4AAE PUSH1 0x20 DUP7 ADD DUP3 PUSH2 0x4812 JUMP JUMPDEST POP PUSH1 0x40 DUP4 ADD MLOAD PUSH2 0x4AC1 PUSH1 0x40 DUP7 ADD DUP3 PUSH2 0x4821 JUMP JUMPDEST POP PUSH1 0x60 DUP4 ADD MLOAD PUSH2 0x4AD4 PUSH1 0x60 DUP7 ADD DUP3 PUSH2 0x46CF JUMP JUMPDEST POP PUSH1 0x80 DUP4 ADD MLOAD PUSH2 0x4AE7 PUSH1 0x80 DUP7 ADD DUP3 PUSH2 0x4821 JUMP JUMPDEST POP PUSH1 0xA0 DUP4 ADD MLOAD PUSH2 0x4AFA PUSH1 0xA0 DUP7 ADD DUP3 PUSH2 0x4812 JUMP JUMPDEST POP PUSH1 0xC0 DUP4 ADD MLOAD DUP5 DUP3 SUB PUSH1 0xC0 DUP7 ADD MSTORE PUSH2 0x4B12 DUP3 DUP3 PUSH2 0x484C JUMP JUMPDEST SWAP2 POP POP PUSH1 0xE0 DUP4 ADD MLOAD PUSH2 0x4B27 PUSH1 0xE0 DUP7 ADD DUP3 PUSH2 0x4885 JUMP JUMPDEST POP PUSH2 0x100 DUP4 ADD MLOAD DUP5 DUP3 SUB PUSH2 0x100 DUP7 ADD MSTORE PUSH2 0x4B41 DUP3 DUP3 PUSH2 0x4A0D JUMP JUMPDEST SWAP2 POP POP DUP1 SWAP2 POP POP SWAP3 SWAP2 POP POP JUMP JUMPDEST PUSH1 0x0 PUSH1 0xC0 DUP4 ADD PUSH1 0x0 DUP4 ADD MLOAD PUSH2 0x4B66 PUSH1 0x0 DUP7 ADD DUP3 PUSH2 0x46A2 JUMP JUMPDEST POP PUSH1 0x20 DUP4 ADD MLOAD PUSH2 0x4B79 PUSH1 0x20 DUP7 ADD DUP3 PUSH2 0x46A2 JUMP JUMPDEST POP PUSH1 0x40 DUP4 ADD MLOAD PUSH2 0x4B8C PUSH1 0x40 DUP7 ADD DUP3 PUSH2 0x46B1 JUMP JUMPDEST POP PUSH1 0x60 DUP4 ADD MLOAD PUSH2 0x4B9F PUSH1 0x60 DUP7 ADD DUP3 PUSH2 0x46B1 JUMP JUMPDEST POP PUSH1 0x80 DUP4 ADD MLOAD DUP5 DUP3 SUB PUSH1 0x80 DUP7 ADD MSTORE PUSH2 0x4BB7 DUP3 DUP3 PUSH2 0x479C JUMP JUMPDEST SWAP2 POP POP PUSH1 0xA0 DUP4 ADD MLOAD DUP5 DUP3 SUB PUSH1 0xA0 DUP7 ADD MSTORE PUSH2 0x4BD1 DUP3 DUP3 PUSH2 0x4A82 JUMP JUMPDEST SWAP2 POP POP DUP1 SWAP2 POP POP SWAP3 SWAP2 POP POP JUMP JUMPDEST PUSH32 0x466C617265000000000000000000000000000000000000000000000000000000 PUSH1 0x0 DUP3 ADD MSTORE POP JUMP JUMPDEST PUSH1 0x0 PUSH2 0x4C14 PUSH1 0x5 DUP4 PUSH2 0x2F5E JUMP JUMPDEST SWAP2 POP PUSH2 0x4C1F DUP3 PUSH2 0x4BDE JUMP JUMPDEST PUSH1 0x20 DUP3 ADD SWAP1 POP SWAP2 SWAP1 POP JUMP JUMPDEST PUSH1 0x0 PUSH1 0x40 DUP3 ADD SWAP1 POP DUP2 DUP2 SUB PUSH1 0x0 DUP4 ADD MSTORE PUSH2 0x4C44 DUP2 DUP5 PUSH2 0x4B4E JUMP JUMPDEST SWAP1 POP DUP2 DUP2 SUB PUSH1 0x20 DUP4 ADD MSTORE PUSH2 0x4C57 DUP2 PUSH2 0x4C07 JUMP JUMPDEST SWAP1 POP SWAP3 SWAP2 POP POP JUMP JUMPDEST PUSH1 0x0 DUP3 DUP3 MSTORE PUSH1 0x20 DUP3 ADD SWAP1 POP SWAP3 SWAP2 POP POP JUMP JUMPDEST PUSH1 0x0 PUSH2 0x4C7B DUP3 PUSH2 0x46DE JUMP JUMPDEST PUSH2 0x4C85 DUP2 DUP6 PUSH2 0x4C5F JUMP JUMPDEST SWAP4 POP PUSH2 0x4C90 DUP4 PUSH2 0x46FA JUMP JUMPDEST DUP1 PUSH1 0x0 JUMPDEST DUP4 DUP2 LT ISZERO PUSH2 0x4CC1 JUMPI DUP2 MLOAD PUSH2 0x4CA8 DUP9 DUP3 PUSH2 0x4719 JUMP JUMPDEST SWAP8 POP PUSH2 0x4CB3 DUP4 PUSH2 0x4731 JUMP JUMPDEST SWAP3 POP POP PUSH1 0x1 DUP2 ADD SWAP1 POP PUSH2 0x4C94 JUMP JUMPDEST POP DUP6 SWAP4 POP POP POP POP SWAP3 SWAP2 POP POP JUMP JUMPDEST PUSH1 0x0 PUSH1 0xE0 DUP3 ADD SWAP1 POP PUSH2 0x4CE3 PUSH1 0x0 DUP4 ADD DUP11 PUSH2 0x305E JUMP JUMPDEST PUSH2 0x4CF0 PUSH1 0x20 DUP4 ADD DUP10 PUSH2 0x305E JUMP JUMPDEST PUSH2 0x4CFD PUSH1 0x40 DUP4 ADD DUP9 PUSH2 0x305E JUMP JUMPDEST PUSH2 0x4D0A PUSH1 0x60 DUP4 ADD DUP8 PUSH2 0x3C4D JUMP JUMPDEST PUSH2 0x4D17 PUSH1 0x80 DUP4 ADD DUP7 PUSH2 0x325F JUMP JUMPDEST PUSH2 0x4D24 PUSH1 0xA0 DUP4 ADD DUP6 PUSH2 0x325F JUMP JUMPDEST DUP2 DUP2 SUB PUSH1 0xC0 DUP4 ADD MSTORE PUSH2 0x4D36 DUP2 DUP5 PUSH2 0x4C70 JUMP JUMPDEST SWAP1 POP SWAP9 SWAP8 POP POP POP POP POP POP POP POP JUMP JUMPDEST PUSH1 0x0 DUP3 DUP3 MSTORE PUSH1 0x20 DUP3 ADD SWAP1 POP SWAP3 SWAP2 POP POP JUMP JUMPDEST PUSH1 0x0 PUSH2 0x4D60 DUP3 PUSH2 0x4830 JUMP JUMPDEST PUSH2 0x4D6A DUP2 DUP6 PUSH2 0x4D44 JUMP JUMPDEST SWAP4 POP PUSH2 0x4D7A DUP2 DUP6 PUSH1 0x20 DUP7 ADD PUSH2 0x2F6F JUMP JUMPDEST PUSH2 0x4D83 DUP2 PUSH2 0x2F99 JUMP JUMPDEST DUP5 ADD SWAP2 POP POP SWAP3 SWAP2 POP POP JUMP JUMPDEST PUSH1 0x0 PUSH1 0x20 DUP3 ADD SWAP1 POP DUP2 DUP2 SUB PUSH1 0x0 DUP4 ADD MSTORE PUSH2 0x4DA8 DUP2 DUP5 PUSH2 0x4D55 JUMP JUMPDEST SWAP1 POP SWAP3 SWAP2 POP POP JUMP JUMPDEST PUSH1 0x0 DUP2 PUSH1 0xF0 SHL SWAP1 POP SWAP2 SWAP1 POP JUMP JUMPDEST PUSH1 0x0 PUSH2 0x4DC8 DUP3 PUSH2 0x4DB0 JUMP JUMPDEST SWAP1 POP SWAP2 SWAP1 POP JUMP JUMPDEST PUSH2 0x4DE0 PUSH2 0x4DDB DUP3 PUSH2 0x3289 JUMP JUMPDEST PUSH2 0x4DBD JUMP JUMPDEST DUP3 MSTORE POP POP JUMP JUMPDEST PUSH1 0x0 DUP2 SWAP1 POP SWAP3 SWAP2 POP POP JUMP JUMPDEST PUSH2 0x4DFA DUP2 PUSH2 0x34E0 JUMP JUMPDEST DUP3 MSTORE POP POP JUMP JUMPDEST PUSH1 0x0 PUSH2 0x4E0C DUP4 DUP4 PUSH2 0x4DF1 JUMP JUMPDEST PUSH1 0x20 DUP4 ADD SWAP1 POP SWAP3 SWAP2 POP POP JUMP JUMPDEST PUSH1 0x0 PUSH2 0x4E23 DUP3 PUSH2 0x46DE JUMP JUMPDEST PUSH2 0x4E2D DUP2 DUP6 PUSH2 0x4DE6 JUMP JUMPDEST SWAP4 POP PUSH2 0x4E38 DUP4 PUSH2 0x46FA JUMP JUMPDEST DUP1 PUSH1 0x0 JUMPDEST DUP4 DUP2 LT ISZERO PUSH2 0x4E69 JUMPI DUP2 MLOAD PUSH2 0x4E50 DUP9 DUP3 PUSH2 0x4E00 JUMP JUMPDEST SWAP8 POP PUSH2 0x4E5B DUP4 PUSH2 0x4731 JUMP JUMPDEST SWAP3 POP POP PUSH1 0x1 DUP2 ADD SWAP1 POP PUSH2 0x4E3C JUMP JUMPDEST POP DUP6 SWAP4 POP POP POP POP SWAP3 SWAP2 POP POP JUMP JUMPDEST PUSH1 0x0 PUSH2 0x4E82 DUP3 DUP9 PUSH2 0x3EDA JUMP JUMPDEST PUSH1 0x20 DUP3 ADD SWAP2 POP PUSH2 0x4E92 DUP3 DUP8 PUSH2 0x4DCF JUMP JUMPDEST PUSH1 0x2 DUP3 ADD SWAP2 POP PUSH2 0x4EA2 DUP3 DUP7 PUSH2 0x4437 JUMP JUMPDEST PUSH1 0x1 DUP3 ADD SWAP2 POP PUSH2 0x4EB2 DUP3 DUP6 PUSH2 0x4437 JUMP JUMPDEST PUSH1 0x1 DUP3 ADD SWAP2 POP PUSH2 0x4EC2 DUP3 DUP5 PUSH2 0x4E18 JUMP JUMPDEST SWAP2 POP DUP2 SWAP1 POP SWAP7 SWAP6 POP POP POP POP POP POP JUMP JUMPDEST PUSH1 0x0 PUSH2 0x4EDC DUP3 PUSH2 0x4830 JUMP JUMPDEST PUSH2 0x4EE6 DUP2 DUP6 PUSH2 0x4306 JUMP JUMPDEST SWAP4 POP PUSH2 0x4EF6 DUP2 DUP6 PUSH1 0x20 DUP7 ADD PUSH2 0x2F6F JUMP JUMPDEST DUP1 DUP5 ADD SWAP2 POP POP SWAP3 SWAP2 POP POP JUMP JUMPDEST PUSH2 0x4F13 PUSH2 0x4F0E DUP3 PUSH2 0x3710 JUMP JUMPDEST PUSH2 0x4413 JUMP JUMPDEST DUP3 MSTORE POP POP JUMP JUMPDEST PUSH1 0x0 PUSH2 0x4F25 DUP3 DUP13 PUSH2 0x448E JUMP JUMPDEST PUSH1 0x20 DUP3 ADD SWAP2 POP PUSH2 0x4F35 DUP3 DUP12 PUSH2 0x448E JUMP JUMPDEST PUSH1 0x20 DUP3 ADD SWAP2 POP PUSH2 0x4F45 DUP3 DUP11 PUSH2 0x44F1 JUMP JUMPDEST PUSH1 0x14 DUP3 ADD SWAP2 POP PUSH2 0x4F55 DUP3 DUP10 PUSH2 0x4437 JUMP JUMPDEST PUSH1 0x1 DUP3 ADD SWAP2 POP PUSH2 0x4F65 DUP3 DUP9 PUSH2 0x44F1 JUMP JUMPDEST PUSH1 0x14 DUP3 ADD SWAP2 POP PUSH2 0x4F75 DUP3 DUP8 PUSH2 0x448E JUMP JUMPDEST PUSH1 0x20 DUP3 ADD SWAP2 POP PUSH2 0x4F85 DUP3 DUP7 PUSH2 0x4ED1 JUMP JUMPDEST SWAP2 POP PUSH2 0x4F91 DUP3 DUP6 PUSH2 0x4F02 JUMP JUMPDEST PUSH1 0x1 DUP3 ADD SWAP2 POP PUSH2 0x4FA1 DUP3 DUP5 PUSH2 0x3EDA JUMP JUMPDEST PUSH1 0x20 DUP3 ADD SWAP2 POP DUP2 SWAP1 POP SWAP11 SWAP10 POP POP POP POP POP POP POP POP POP POP JUMP JUMPDEST PUSH32 0x6C656166206973206E6F7420657175616C20746F207265616C20726573706F6E PUSH1 0x0 DUP3 ADD MSTORE PUSH32 0x7365000000000000000000000000000000000000000000000000000000000000 PUSH1 0x20 DUP3 ADD MSTORE POP JUMP JUMPDEST PUSH1 0x0 PUSH2 0x5014 PUSH1 0x22 DUP4 PUSH2 0x2F5E JUMP JUMPDEST SWAP2 POP PUSH2 0x501F DUP3 PUSH2 0x4FB8 JUMP JUMPDEST PUSH1 0x40 DUP3 ADD SWAP1 POP SWAP2 SWAP1 POP JUMP JUMPDEST PUSH1 0x0 PUSH1 0x20 DUP3 ADD SWAP1 POP DUP2 DUP2 SUB PUSH1 0x0 DUP4 ADD MSTORE PUSH2 0x5043 DUP2 PUSH2 0x5007 JUMP JUMPDEST SWAP1 POP SWAP2 SWAP1 POP JUMP JUMPDEST PUSH1 0x0 DUP2 MLOAD SWAP1 POP PUSH2 0x5059 DUP2 PUSH2 0x3488 JUMP JUMPDEST SWAP3 SWAP2 POP POP JUMP JUMPDEST PUSH1 0x0 PUSH1 0x20 DUP3 DUP5 SUB SLT ISZERO PUSH2 0x5075 JUMPI PUSH2 0x5074 PUSH2 0x2E83 JUMP JUMPDEST JUMPDEST PUSH1 0x0 PUSH2 0x5083 DUP5 DUP3 DUP6 ADD PUSH2 0x504A JUMP JUMPDEST SWAP2 POP POP SWAP3 SWAP2 POP POP JUMP JUMPDEST PUSH1 0x0 DUP2 SWAP1 POP SWAP3 SWAP2 POP POP JUMP JUMPDEST PUSH2 0x50A0 DUP2 PUSH2 0x2EF0 JUMP JUMPDEST DUP3 MSTORE POP POP JUMP JUMPDEST PUSH1 0x0 PUSH2 0x50B2 DUP4 DUP4 PUSH2 0x5097 JUMP JUMPDEST PUSH1 0x20 DUP4 ADD SWAP1 POP SWAP3 SWAP2 POP POP JUMP JUMPDEST PUSH1 0x0 PUSH2 0x50C9 DUP3 PUSH2 0x48C0 JUMP JUMPDEST PUSH2 0x50D3 DUP2 DUP6 PUSH2 0x508C JUMP JUMPDEST SWAP4 POP PUSH2 0x50DE DUP4 PUSH2 0x48DC JUMP JUMPDEST DUP1 PUSH1 0x0 JUMPDEST DUP4 DUP2 LT ISZERO PUSH2 0x510F JUMPI DUP2 MLOAD PUSH2 0x50F6 DUP9 DUP3 PUSH2 0x50A6 JUMP JUMPDEST SWAP8 POP PUSH2 0x5101 DUP4 PUSH2 0x4904 JUMP JUMPDEST SWAP3 POP POP PUSH1 0x1 DUP2 ADD SWAP1 POP PUSH2 0x50E2 JUMP JUMPDEST POP DUP6 SWAP4 POP POP POP POP SWAP3 SWAP2 POP POP JUMP JUMPDEST PUSH1 0x0 PUSH2 0x5128 DUP3 DUP5 PUSH2 0x50BE JUMP JUMPDEST SWAP2 POP DUP2 SWAP1 POP SWAP3 SWAP2 POP POP JUMP JUMPDEST PUSH1 0x0 DUP2 PUSH1 0xE0 SHL SWAP1 POP SWAP2 SWAP1 POP JUMP JUMPDEST PUSH1 0x0 PUSH2 0x514B DUP3 PUSH2 0x5133 JUMP JUMPDEST SWAP1 POP SWAP2 SWAP1 POP JUMP JUMPDEST PUSH2 0x5163 PUSH2 0x515E DUP3 PUSH2 0x34E0 JUMP JUMPDEST PUSH2 0x5140 JUMP JUMPDEST DUP3 MSTORE POP POP JUMP JUMPDEST PUSH1 0x0 PUSH2 0x5175 DUP3 DUP9 PUSH2 0x5152 JUMP JUMPDEST PUSH1 0x4 DUP3 ADD SWAP2 POP PUSH2 0x5185 DUP3 DUP8 PUSH2 0x44F1 JUMP JUMPDEST PUSH1 0x14 DUP3 ADD SWAP2 POP PUSH2 0x5195 DUP3 DUP7 PUSH2 0x50BE JUMP JUMPDEST SWAP2 POP PUSH2 0x51A1 DUP3 DUP6 PUSH2 0x4ED1 JUMP JUMPDEST SWAP2 POP PUSH2 0x51AD DUP3 DUP5 PUSH2 0x4437 JUMP JUMPDEST PUSH1 0x1 DUP3 ADD SWAP2 POP DUP2 SWAP1 POP SWAP7 SWAP6 POP POP POP POP POP POP JUMP JUMPDEST PUSH1 0x0 PUSH2 0x51CC DUP3 DUP5 PUSH2 0x4ED1 JUMP JUMPDEST SWAP2 POP DUP2 SWAP1 POP SWAP3 SWAP2 POP POP JUMP INVALID LOG2 PUSH5 0x6970667358 0x22 SLT KECCAK256 EXTCODEHASH DUP13 MSTORE 0xE8 PUSH17 0x177491302EF96FB3B29269BB54174C979B GASPRICE 0xD0 NOT MSIZE 0xC PREVRANDAO 0x2B SWAP14 SELFBALANCE REVERT PUSH5 0x736F6C6343 STOP ADDMOD EQ STOP CALLER "},"methodIdentifiers":{"SetAttestationTypeEVM(bytes32)":"21003bce","SetCurrentLowestUsedTimestamp(uint64)":"595b8487","SetCurrentSourceId(bytes32)":"72ea6f62","SetFeeBridge(uint256)":"02cd9d07","SetOppositeBridgeContractAddress(address)":"ba66d59b","SetOppositePixelBridgeContract(address)":"cad1699d","SetOppositeSourceId(bytes32)":"05cf4abd","SetOppostePixelBridgeToken(address)":"64e53547","SetPixelBridgeToken(address)":"1d112f43","SetRequiredConfirmation(uint16)":"323b52d7","SetStateConnectorAddress(address)":"298fc178","attestationTypeEVM()":"c1d693c6","checkIfRoundAttestationReady(uint64)":"94a19c8e","closedCheckHashForSecuityFromCollision(bytes32)":"bf11231c","convertUint256ToUint64(uint256)":"825747cb","currentLowestUsedTimestamp()":"701ca40e","currentSourseID()":"b84b3de4","depositNativeTokenForBridgeTransfer(uint256)":"8fdd5aad","depositPixelTokenForBridgeTransfer(uint256)":"254eaca8","deposits(address)":"fc7e286d","fee()":"ddca3f43","hashRequest((bytes32,bytes32,bytes32,(bytes32,uint16,bool,bool,uint32[])))":"f4b1e1d0","hashResponse((bytes32,bytes32,uint64,uint64,(bytes32,uint16,bool,bool,uint32[]),(uint256,uint256,address,bool,address,uint256,bytes,uint8,(uint32,address,bytes32[],bytes,bool)[])))":"84be1374","name()":"06fdde03","openCheckHashForSecuityFromCollision(bytes32)":"96ecb7e7","oppositeBridge()":"9ce0e1f3","oppositePixelBridgeContract()":"665905bd","oppositePixelTokenAddress()":"c0ef49b2","oppositeRequiredConfirmation()":"bb96ea2d","oppositeSourseID()":"1f045764","oppositepixelBridgeToken()":"6ff5ede3","owner()":"8da5cb5b","pixelBridgeToken()":"d2eff49c","pixelBridgeTokenAddress()":"2183f52d","renounceOwnership()":"715018a6","requestWithdraw(bool,bytes32,uint256,uint256,uint256,uint256)":"f9e6a6a4","stateConnector()":"025ecb32","thisChainID()":"35330885","totalBalanceNative()":"8ab935fe","transferOwnership(address)":"f2fde38b","verify(bytes32[],bytes32,bytes32,uint256)":"21fb335c","withdrawFromBridge(bool,bytes32[],uint256,uint256,bytes32,uint256,uint256,uint256,uint256)":"9b804024","withdrawNative(uint256,address)":"b8ca8dd8","withdrawToken(address,uint256,address)":"3ccdbb28"}}}}}