{
  "_format": "hh-sol-artifact-1",
  "contractName": "BridgePixel",
  "sourceName": "contracts/BridgePixel.sol",
  "abi": [
    {
      "inputs": [
        {
          "internalType": "string",
          "name": "_name",
          "type": "string"
        }
      ],
      "stateMutability": "nonpayable",
      "type": "constructor"
    },
    {
      "inputs": [
        {
          "internalType": "address",
          "name": "target",
          "type": "address"
        }
      ],
      "name": "AddressEmptyCode",
      "type": "error"
    },
    {
      "inputs": [
        {
          "internalType": "address",
          "name": "account",
          "type": "address"
        }
      ],
      "name": "AddressInsufficientBalance",
      "type": "error"
    },
    {
      "inputs": [],
      "name": "FailedInnerCall",
      "type": "error"
    },
    {
      "inputs": [
        {
          "internalType": "address",
          "name": "owner",
          "type": "address"
        }
      ],
      "name": "OwnableInvalidOwner",
      "type": "error"
    },
    {
      "inputs": [
        {
          "internalType": "address",
          "name": "account",
          "type": "address"
        }
      ],
      "name": "OwnableUnauthorizedAccount",
      "type": "error"
    },
    {
      "inputs": [],
      "name": "ReentrancyGuardReentrantCall",
      "type": "error"
    },
    {
      "inputs": [
        {
          "internalType": "address",
          "name": "token",
          "type": "address"
        }
      ],
      "name": "SafeERC20FailedOperation",
      "type": "error"
    },
    {
      "anonymous": false,
      "inputs": [
        {
          "indexed": true,
          "internalType": "address",
          "name": "_initiator",
          "type": "address"
        },
        {
          "indexed": false,
          "internalType": "uint256",
          "name": "_value",
          "type": "uint256"
        }
      ],
      "name": "NativeBridgeTrasnfer",
      "type": "event"
    },
    {
      "anonymous": false,
      "inputs": [
        {
          "indexed": true,
          "internalType": "address",
          "name": "previousOwner",
          "type": "address"
        },
        {
          "indexed": true,
          "internalType": "address",
          "name": "newOwner",
          "type": "address"
        }
      ],
      "name": "OwnershipTransferred",
      "type": "event"
    },
    {
      "stateMutability": "payable",
      "type": "fallback"
    },
    {
      "inputs": [
        {
          "internalType": "bytes32",
          "name": "_attestationType",
          "type": "bytes32"
        }
      ],
      "name": "SetAttestationTypeEVM",
      "outputs": [],
      "stateMutability": "nonpayable",
      "type": "function"
    },
    {
      "inputs": [
        {
          "internalType": "uint64",
          "name": "_currentLowestUsedTimestamp",
          "type": "uint64"
        }
      ],
      "name": "SetCurrentLowestUsedTimestamp",
      "outputs": [],
      "stateMutability": "nonpayable",
      "type": "function"
    },
    {
      "inputs": [
        {
          "internalType": "bytes32",
          "name": "_sourceId",
          "type": "bytes32"
        }
      ],
      "name": "SetCurrentSourceId",
      "outputs": [],
      "stateMutability": "nonpayable",
      "type": "function"
    },
    {
      "inputs": [
        {
          "internalType": "uint256",
          "name": "_price",
          "type": "uint256"
        }
      ],
      "name": "SetFeeBridge",
      "outputs": [],
      "stateMutability": "nonpayable",
      "type": "function"
    },
    {
      "inputs": [
        {
          "internalType": "address",
          "name": "_oppositeBridge",
          "type": "address"
        }
      ],
      "name": "SetOppositeBridgeContractAddress",
      "outputs": [],
      "stateMutability": "nonpayable",
      "type": "function"
    },
    {
      "inputs": [
        {
          "internalType": "address",
          "name": "_oppositePixelBridgeContract",
          "type": "address"
        }
      ],
      "name": "SetOppositePixelBridgeContract",
      "outputs": [],
      "stateMutability": "nonpayable",
      "type": "function"
    },
    {
      "inputs": [
        {
          "internalType": "bytes32",
          "name": "_sourceId",
          "type": "bytes32"
        }
      ],
      "name": "SetOppositeSourceId",
      "outputs": [],
      "stateMutability": "nonpayable",
      "type": "function"
    },
    {
      "inputs": [
        {
          "internalType": "address",
          "name": "_oppositePixelBridgeToken",
          "type": "address"
        }
      ],
      "name": "SetOppostePixelBridgeToken",
      "outputs": [],
      "stateMutability": "nonpayable",
      "type": "function"
    },
    {
      "inputs": [
        {
          "internalType": "address",
          "name": "_pixelBridgeToken",
          "type": "address"
        }
      ],
      "name": "SetPixelBridgeToken",
      "outputs": [],
      "stateMutability": "nonpayable",
      "type": "function"
    },
    {
      "inputs": [
        {
          "internalType": "uint16",
          "name": "_requiredConfirmation",
          "type": "uint16"
        }
      ],
      "name": "SetRequiredConfirmation",
      "outputs": [],
      "stateMutability": "nonpayable",
      "type": "function"
    },
    {
      "inputs": [
        {
          "internalType": "address",
          "name": "_stateConnector",
          "type": "address"
        }
      ],
      "name": "SetStateConnectorAddress",
      "outputs": [],
      "stateMutability": "nonpayable",
      "type": "function"
    },
    {
      "inputs": [],
      "name": "attestationTypeEVM",
      "outputs": [
        {
          "internalType": "bytes32",
          "name": "",
          "type": "bytes32"
        }
      ],
      "stateMutability": "view",
      "type": "function"
    },
    {
      "inputs": [
        {
          "internalType": "uint64",
          "name": "_submissionRoundID",
          "type": "uint64"
        }
      ],
      "name": "checkIfRoundAttestationReady",
      "outputs": [
        {
          "internalType": "bool",
          "name": "_readyStatus",
          "type": "bool"
        }
      ],
      "stateMutability": "view",
      "type": "function"
    },
    {
      "inputs": [
        {
          "internalType": "bytes32",
          "name": "",
          "type": "bytes32"
        }
      ],
      "name": "closedCheckHashForSecuityFromCollision",
      "outputs": [
        {
          "internalType": "bool",
          "name": "",
          "type": "bool"
        }
      ],
      "stateMutability": "view",
      "type": "function"
    },
    {
      "inputs": [
        {
          "internalType": "uint256",
          "name": "_value",
          "type": "uint256"
        }
      ],
      "name": "convertUint256ToUint64",
      "outputs": [
        {
          "internalType": "uint64",
          "name": "",
          "type": "uint64"
        }
      ],
      "stateMutability": "pure",
      "type": "function"
    },
    {
      "inputs": [],
      "name": "currentLowestUsedTimestamp",
      "outputs": [
        {
          "internalType": "uint64",
          "name": "",
          "type": "uint64"
        }
      ],
      "stateMutability": "view",
      "type": "function"
    },
    {
      "inputs": [],
      "name": "currentSourseID",
      "outputs": [
        {
          "internalType": "bytes32",
          "name": "",
          "type": "bytes32"
        }
      ],
      "stateMutability": "view",
      "type": "function"
    },
    {
      "inputs": [
        {
          "internalType": "uint256",
          "name": "_amount",
          "type": "uint256"
        }
      ],
      "name": "depositNativeTokenForBridgeTransfer",
      "outputs": [],
      "stateMutability": "payable",
      "type": "function"
    },
    {
      "inputs": [
        {
          "internalType": "uint256",
          "name": "_amount",
          "type": "uint256"
        }
      ],
      "name": "depositPixelTokenForBridgeTransfer",
      "outputs": [],
      "stateMutability": "payable",
      "type": "function"
    },
    {
      "inputs": [
        {
          "internalType": "address",
          "name": "",
          "type": "address"
        }
      ],
      "name": "deposits",
      "outputs": [
        {
          "internalType": "address",
          "name": "",
          "type": "address"
        }
      ],
      "stateMutability": "view",
      "type": "function"
    },
    {
      "inputs": [],
      "name": "fee",
      "outputs": [
        {
          "internalType": "uint256",
          "name": "",
          "type": "uint256"
        }
      ],
      "stateMutability": "view",
      "type": "function"
    },
    {
      "inputs": [
        {
          "components": [
            {
              "internalType": "bytes32",
              "name": "attestationType",
              "type": "bytes32"
            },
            {
              "internalType": "bytes32",
              "name": "sourceId",
              "type": "bytes32"
            },
            {
              "internalType": "bytes32",
              "name": "messageIntegrityCode",
              "type": "bytes32"
            },
            {
              "components": [
                {
                  "internalType": "bytes32",
                  "name": "transactionHash",
                  "type": "bytes32"
                },
                {
                  "internalType": "uint16",
                  "name": "requiredConfirmations",
                  "type": "uint16"
                },
                {
                  "internalType": "bool",
                  "name": "provideInput",
                  "type": "bool"
                },
                {
                  "internalType": "bool",
                  "name": "listEvents",
                  "type": "bool"
                },
                {
                  "internalType": "uint32[]",
                  "name": "logIndices",
                  "type": "uint32[]"
                }
              ],
              "internalType": "struct BridgePixel.RequestBody",
              "name": "requestBody",
              "type": "tuple"
            }
          ],
          "internalType": "struct BridgePixel.Request",
          "name": "_request",
          "type": "tuple"
        }
      ],
      "name": "hashRequest",
      "outputs": [
        {
          "internalType": "bytes32",
          "name": "",
          "type": "bytes32"
        }
      ],
      "stateMutability": "pure",
      "type": "function"
    },
    {
      "inputs": [
        {
          "components": [
            {
              "internalType": "bytes32",
              "name": "attestationType",
              "type": "bytes32"
            },
            {
              "internalType": "bytes32",
              "name": "sourceId",
              "type": "bytes32"
            },
            {
              "internalType": "uint64",
              "name": "votingRound",
              "type": "uint64"
            },
            {
              "internalType": "uint64",
              "name": "lowestUsedTimestamp",
              "type": "uint64"
            },
            {
              "components": [
                {
                  "internalType": "bytes32",
                  "name": "transactionHash",
                  "type": "bytes32"
                },
                {
                  "internalType": "uint16",
                  "name": "requiredConfirmations",
                  "type": "uint16"
                },
                {
                  "internalType": "bool",
                  "name": "provideInput",
                  "type": "bool"
                },
                {
                  "internalType": "bool",
                  "name": "listEvents",
                  "type": "bool"
                },
                {
                  "internalType": "uint32[]",
                  "name": "logIndices",
                  "type": "uint32[]"
                }
              ],
              "internalType": "struct BridgePixel.RequestBody",
              "name": "requestBody",
              "type": "tuple"
            },
            {
              "components": [
                {
                  "internalType": "uint256",
                  "name": "blockNumber",
                  "type": "uint256"
                },
                {
                  "internalType": "uint256",
                  "name": "timestamp",
                  "type": "uint256"
                },
                {
                  "internalType": "address",
                  "name": "sourceAddress",
                  "type": "address"
                },
                {
                  "internalType": "bool",
                  "name": "isDeployment",
                  "type": "bool"
                },
                {
                  "internalType": "address",
                  "name": "receivingAddress",
                  "type": "address"
                },
                {
                  "internalType": "uint256",
                  "name": "value",
                  "type": "uint256"
                },
                {
                  "internalType": "bytes",
                  "name": "input",
                  "type": "bytes"
                },
                {
                  "internalType": "uint8",
                  "name": "status",
                  "type": "uint8"
                },
                {
                  "components": [
                    {
                      "internalType": "uint32",
                      "name": "logIndex",
                      "type": "uint32"
                    },
                    {
                      "internalType": "address",
                      "name": "emitterAddress",
                      "type": "address"
                    },
                    {
                      "internalType": "bytes32[]",
                      "name": "topics",
                      "type": "bytes32[]"
                    },
                    {
                      "internalType": "bytes",
                      "name": "data",
                      "type": "bytes"
                    },
                    {
                      "internalType": "bool",
                      "name": "removed",
                      "type": "bool"
                    }
                  ],
                  "internalType": "struct BridgePixel.Event[]",
                  "name": "events",
                  "type": "tuple[]"
                }
              ],
              "internalType": "struct BridgePixel.ResponseBody",
              "name": "responseBody",
              "type": "tuple"
            }
          ],
          "internalType": "struct BridgePixel.Response",
          "name": "_response",
          "type": "tuple"
        }
      ],
      "name": "hashResponse",
      "outputs": [
        {
          "internalType": "bytes32",
          "name": "",
          "type": "bytes32"
        }
      ],
      "stateMutability": "pure",
      "type": "function"
    },
    {
      "inputs": [],
      "name": "name",
      "outputs": [
        {
          "internalType": "string",
          "name": "",
          "type": "string"
        }
      ],
      "stateMutability": "view",
      "type": "function"
    },
    {
      "inputs": [
        {
          "internalType": "bytes32",
          "name": "",
          "type": "bytes32"
        }
      ],
      "name": "openCheckHashForSecuityFromCollision",
      "outputs": [
        {
          "internalType": "bool",
          "name": "",
          "type": "bool"
        }
      ],
      "stateMutability": "view",
      "type": "function"
    },
    {
      "inputs": [],
      "name": "oppositeBridge",
      "outputs": [
        {
          "internalType": "address",
          "name": "",
          "type": "address"
        }
      ],
      "stateMutability": "view",
      "type": "function"
    },
    {
      "inputs": [],
      "name": "oppositePixelBridgeContract",
      "outputs": [
        {
          "internalType": "address",
          "name": "",
          "type": "address"
        }
      ],
      "stateMutability": "view",
      "type": "function"
    },
    {
      "inputs": [],
      "name": "oppositePixelTokenAddress",
      "outputs": [
        {
          "internalType": "address",
          "name": "",
          "type": "address"
        }
      ],
      "stateMutability": "view",
      "type": "function"
    },
    {
      "inputs": [],
      "name": "oppositeRequiredConfirmation",
      "outputs": [
        {
          "internalType": "uint16",
          "name": "",
          "type": "uint16"
        }
      ],
      "stateMutability": "view",
      "type": "function"
    },
    {
      "inputs": [],
      "name": "oppositeSourseID",
      "outputs": [
        {
          "internalType": "bytes32",
          "name": "",
          "type": "bytes32"
        }
      ],
      "stateMutability": "view",
      "type": "function"
    },
    {
      "inputs": [],
      "name": "oppositepixelBridgeToken",
      "outputs": [
        {
          "internalType": "contract iBridgePixelToken",
          "name": "",
          "type": "address"
        }
      ],
      "stateMutability": "view",
      "type": "function"
    },
    {
      "inputs": [],
      "name": "owner",
      "outputs": [
        {
          "internalType": "address",
          "name": "",
          "type": "address"
        }
      ],
      "stateMutability": "view",
      "type": "function"
    },
    {
      "inputs": [],
      "name": "pixelBridgeToken",
      "outputs": [
        {
          "internalType": "contract iBridgePixelToken",
          "name": "",
          "type": "address"
        }
      ],
      "stateMutability": "view",
      "type": "function"
    },
    {
      "inputs": [],
      "name": "pixelBridgeTokenAddress",
      "outputs": [
        {
          "internalType": "address",
          "name": "",
          "type": "address"
        }
      ],
      "stateMutability": "view",
      "type": "function"
    },
    {
      "inputs": [],
      "name": "renounceOwnership",
      "outputs": [],
      "stateMutability": "nonpayable",
      "type": "function"
    },
    {
      "inputs": [
        {
          "internalType": "bool",
          "name": "isNative",
          "type": "bool"
        },
        {
          "internalType": "bytes32",
          "name": "_txHash",
          "type": "bytes32"
        },
        {
          "internalType": "uint256",
          "name": "_blockNumber",
          "type": "uint256"
        },
        {
          "internalType": "uint256",
          "name": "_timestamp",
          "type": "uint256"
        },
        {
          "internalType": "uint256",
          "name": "_valueTotal",
          "type": "uint256"
        },
        {
          "internalType": "uint256",
          "name": "_valueToWithdraw",
          "type": "uint256"
        }
      ],
      "name": "requestWithdraw",
      "outputs": [],
      "stateMutability": "payable",
      "type": "function"
    },
    {
      "inputs": [],
      "name": "stateConnector",
      "outputs": [
        {
          "internalType": "address",
          "name": "",
          "type": "address"
        }
      ],
      "stateMutability": "view",
      "type": "function"
    },
    {
      "inputs": [],
      "name": "thisChainID",
      "outputs": [
        {
          "internalType": "uint256",
          "name": "",
          "type": "uint256"
        }
      ],
      "stateMutability": "view",
      "type": "function"
    },
    {
      "inputs": [],
      "name": "totalBalanceNative",
      "outputs": [
        {
          "internalType": "uint256",
          "name": "",
          "type": "uint256"
        }
      ],
      "stateMutability": "view",
      "type": "function"
    },
    {
      "inputs": [
        {
          "internalType": "address",
          "name": "newOwner",
          "type": "address"
        }
      ],
      "name": "transferOwnership",
      "outputs": [],
      "stateMutability": "nonpayable",
      "type": "function"
    },
    {
      "inputs": [
        {
          "internalType": "bytes32[]",
          "name": "proof",
          "type": "bytes32[]"
        },
        {
          "internalType": "bytes32",
          "name": "root",
          "type": "bytes32"
        },
        {
          "internalType": "bytes32",
          "name": "leaf",
          "type": "bytes32"
        },
        {
          "internalType": "uint256",
          "name": "index",
          "type": "uint256"
        }
      ],
      "name": "verify",
      "outputs": [
        {
          "internalType": "bool",
          "name": "",
          "type": "bool"
        }
      ],
      "stateMutability": "pure",
      "type": "function"
    },
    {
      "inputs": [
        {
          "internalType": "bool",
          "name": "isNative",
          "type": "bool"
        },
        {
          "internalType": "bytes32[]",
          "name": "_proof",
          "type": "bytes32[]"
        },
        {
          "internalType": "uint256",
          "name": "_index",
          "type": "uint256"
        },
        {
          "internalType": "uint256",
          "name": "_submissionRoundID",
          "type": "uint256"
        },
        {
          "internalType": "bytes32",
          "name": "_txHash",
          "type": "bytes32"
        },
        {
          "internalType": "uint256",
          "name": "_blockNumber",
          "type": "uint256"
        },
        {
          "internalType": "uint256",
          "name": "_timestamp",
          "type": "uint256"
        },
        {
          "internalType": "uint256",
          "name": "_valueTotal",
          "type": "uint256"
        },
        {
          "internalType": "uint256",
          "name": "_valueToWithdraw",
          "type": "uint256"
        }
      ],
      "name": "withdrawFromBridge",
      "outputs": [],
      "stateMutability": "payable",
      "type": "function"
    },
    {
      "inputs": [
        {
          "internalType": "uint256",
          "name": "msgValue",
          "type": "uint256"
        },
        {
          "internalType": "address",
          "name": "to",
          "type": "address"
        }
      ],
      "name": "withdrawNative",
      "outputs": [],
      "stateMutability": "payable",
      "type": "function"
    },
    {
      "inputs": [
        {
          "internalType": "address",
          "name": "token",
          "type": "address"
        },
        {
          "internalType": "uint256",
          "name": "amount",
          "type": "uint256"
        },
        {
          "internalType": "address",
          "name": "to",
          "type": "address"
        }
      ],
      "name": "withdrawToken",
      "outputs": [],
      "stateMutability": "nonpayable",
      "type": "function"
    },
    {
      "stateMutability": "payable",
      "type": "receive"
    }
  ],
  "bytecode": "0x60806040523480156200001157600080fd5b506040516200593838038062005938833981810160405281019062000037919062000336565b33600073ffffffffffffffffffffffffffffffffffffffff168173ffffffffffffffffffffffffffffffffffffffff1603620000ad5760006040517f1e4fbdf7000000000000000000000000000000000000000000000000000000008152600401620000a49190620003cc565b60405180910390fd5b620000be81620000df60201b60201c565b50600180819055508060029081620000d7919062000634565b50506200071b565b60008060009054906101000a900473ffffffffffffffffffffffffffffffffffffffff169050816000806101000a81548173ffffffffffffffffffffffffffffffffffffffff021916908373ffffffffffffffffffffffffffffffffffffffff1602179055508173ffffffffffffffffffffffffffffffffffffffff168173ffffffffffffffffffffffffffffffffffffffff167f8be0079c531659141344cd1fd0a4f28419497f9722a3daafe3b4186f6b6457e060405160405180910390a35050565b6000604051905090565b600080fd5b600080fd5b600080fd5b600080fd5b6000601f19601f8301169050919050565b7f4e487b7100000000000000000000000000000000000000000000000000000000600052604160045260246000fd5b6200020c82620001c1565b810181811067ffffffffffffffff821117156200022e576200022d620001d2565b5b80604052505050565b600062000243620001a3565b905062000251828262000201565b919050565b600067ffffffffffffffff821115620002745762000273620001d2565b5b6200027f82620001c1565b9050602081019050919050565b60005b83811015620002ac5780820151818401526020810190506200028f565b60008484015250505050565b6000620002cf620002c98462000256565b62000237565b905082815260208101848484011115620002ee57620002ed620001bc565b5b620002fb8482856200028c565b509392505050565b600082601f8301126200031b576200031a620001b7565b5b81516200032d848260208601620002b8565b91505092915050565b6000602082840312156200034f576200034e620001ad565b5b600082015167ffffffffffffffff81111562000370576200036f620001b2565b5b6200037e8482850162000303565b91505092915050565b600073ffffffffffffffffffffffffffffffffffffffff82169050919050565b6000620003b48262000387565b9050919050565b620003c681620003a7565b82525050565b6000602082019050620003e36000830184620003bb565b92915050565b600081519050919050565b7f4e487b7100000000000000000000000000000000000000000000000000000000600052602260045260246000fd5b600060028204905060018216806200043c57607f821691505b602082108103620004525762000451620003f4565b5b50919050565b60008190508160005260206000209050919050565b60006020601f8301049050919050565b600082821b905092915050565b600060088302620004bc7fffffffffffffffffffffffffffffffffffffffffffffffffffffffffffffffff826200047d565b620004c886836200047d565b95508019841693508086168417925050509392505050565b6000819050919050565b6000819050919050565b6000620005156200050f6200050984620004e0565b620004ea565b620004e0565b9050919050565b6000819050919050565b6200053183620004f4565b6200054962000540826200051c565b8484546200048a565b825550505050565b600090565b6200056062000551565b6200056d81848462000526565b505050565b5b8181101562000595576200058960008262000556565b60018101905062000573565b5050565b601f821115620005e457620005ae8162000458565b620005b9846200046d565b81016020851015620005c9578190505b620005e1620005d8856200046d565b83018262000572565b50505b505050565b600082821c905092915050565b60006200060960001984600802620005e9565b1980831691505092915050565b6000620006248383620005f6565b9150826002028217905092915050565b6200063f82620003e9565b67ffffffffffffffff8111156200065b576200065a620001d2565b5b62000667825462000423565b6200067482828562000599565b600060209050601f831160018114620006ac576000841562000697578287015190505b620006a3858262000616565b86555062000713565b601f198416620006bc8662000458565b60005b82811015620006e657848901518255600182019150602085019450602081019050620006bf565b8683101562000706578489015162000702601f891682620005f6565b8355505b6001600288020188555050505b505050505050565b61520d806200072b6000396000f3fe60806040526004361061026b5760003560e01c806384be137411610144578063bb96ea2d116100b6578063d2eff49c1161007a578063d2eff49c146108da578063ddca3f4314610905578063f2fde38b14610930578063f4b1e1d014610959578063f9e6a6a414610996578063fc7e286d146109b257610272565b8063bb96ea2d146107f3578063bf11231c1461081e578063c0ef49b21461085b578063c1d693c614610886578063cad1699d146108b157610272565b806396ecb7e71161010857806396ecb7e7146106ff5780639b8040241461073c5780639ce0e1f314610758578063b84b3de414610783578063b8ca8dd8146107ae578063ba66d59b146107ca57610272565b806384be1374146106135780638ab935fe146106505780638da5cb5b1461067b5780638fdd5aad146106a657806394a19c8e146106c257610272565b8063323b52d7116101dd578063665905bd116101a1578063665905bd146105155780636ff5ede314610540578063701ca40e1461056b578063715018a61461059657806372ea6f62146105ad578063825747cb146105d657610272565b8063323b52d714610446578063353308851461046f5780633ccdbb281461049a578063595b8487146104c357806364e53547146104ec57610272565b80631f0457641161022f5780631f0457641461034557806321003bce146103705780632183f52d1461039957806321fb335c146103c4578063254eaca814610401578063298fc1781461041d57610272565b8063025ecb321461027457806302cd9d071461029f57806305cf4abd146102c857806306fdde03146102f15780631d112f431461031c57610272565b3661027257005b005b34801561028057600080fd5b506102896109ef565b6040516102969190612e5e565b60405180910390f35b3480156102ab57600080fd5b506102c660048036038101906102c19190612ec3565b610a15565b005b3480156102d457600080fd5b506102ef60048036038101906102ea9190612f26565b610a27565b005b3480156102fd57600080fd5b50610306610a39565b6040516103139190612fe3565b60405180910390f35b34801561032857600080fd5b50610343600480360381019061033e9190613031565b610ac7565b005b34801561035157600080fd5b5061035a610b54565b604051610367919061306d565b60405180910390f35b34801561037c57600080fd5b5061039760048036038101906103929190612f26565b610b5a565b005b3480156103a557600080fd5b506103ae610b6c565b6040516103bb9190612e5e565b60405180910390f35b3480156103d057600080fd5b506103eb60048036038101906103e691906131d0565b610b92565b6040516103f8919061326e565b60405180910390f35b61041b60048036038101906104169190612ec3565b610c65565b005b34801561042957600080fd5b50610444600480360381019061043f9190613031565b610e43565b005b34801561045257600080fd5b5061046d600480360381019061046891906132c3565b610e8f565b005b34801561047b57600080fd5b50610484610eb7565b60405161049191906132ff565b60405180910390f35b3480156104a657600080fd5b506104c160048036038101906104bc919061331a565b610ebd565b005b3480156104cf57600080fd5b506104ea60048036038101906104e591906133ad565b610ed5565b005b3480156104f857600080fd5b50610513600480360381019061050e9190613031565b610f09565b005b34801561052157600080fd5b5061052a610f96565b6040516105379190612e5e565b60405180910390f35b34801561054c57600080fd5b50610555610fbc565b6040516105629190613439565b60405180910390f35b34801561057757600080fd5b50610580610fe2565b60405161058d9190613463565b60405180910390f35b3480156105a257600080fd5b506105ab610ffc565b005b3480156105b957600080fd5b506105d460048036038101906105cf9190612f26565b611010565b005b3480156105e257600080fd5b506105fd60048036038101906105f89190612ec3565b611022565b60405161060a9190613463565b60405180910390f35b34801561061f57600080fd5b5061063a60048036038101906106359190613ade565b611079565b604051610647919061306d565b60405180910390f35b34801561065c57600080fd5b506106656110db565b60405161067291906132ff565b60405180910390f35b34801561068757600080fd5b506106906110e1565b60405161069d9190612e5e565b60405180910390f35b6106c060048036038101906106bb9190612ec3565b61110a565b005b3480156106ce57600080fd5b506106e960048036038101906106e491906133ad565b61121f565b6040516106f6919061326e565b60405180910390f35b34801561070b57600080fd5b5061072660048036038101906107219190612f26565b6112db565b604051610733919061326e565b60405180910390f35b61075660048036038101906107519190613b27565b6112fb565b005b34801561076457600080fd5b5061076d611590565b60405161077a9190612e5e565b60405180910390f35b34801561078f57600080fd5b506107986115b6565b6040516107a5919061306d565b60405180910390f35b6107c860048036038101906107c39190613c0d565b6115bc565b005b3480156107d657600080fd5b506107f160048036038101906107ec9190613031565b61169f565b005b3480156107ff57600080fd5b506108086116eb565b6040516108159190613c5c565b60405180910390f35b34801561082a57600080fd5b5061084560048036038101906108409190612f26565b6116ff565b604051610852919061326e565b60405180910390f35b34801561086757600080fd5b5061087061171f565b60405161087d9190612e5e565b60405180910390f35b34801561089257600080fd5b5061089b611745565b6040516108a8919061306d565b60405180910390f35b3480156108bd57600080fd5b506108d860048036038101906108d39190613031565b61174b565b005b3480156108e657600080fd5b506108ef611797565b6040516108fc9190613439565b60405180910390f35b34801561091157600080fd5b5061091a6117bd565b60405161092791906132ff565b60405180910390f35b34801561093c57600080fd5b5061095760048036038101906109529190613031565b6117c3565b005b34801561096557600080fd5b50610980600480360381019061097b9190613d0b565b611849565b60405161098d919061306d565b60405180910390f35b6109b060048036038101906109ab9190613d54565b611897565b005b3480156109be57600080fd5b506109d960048036038101906109d49190613031565b61204d565b6040516109e69190612e5e565b60405180910390f35b600f60009054906101000a900473ffffffffffffffffffffffffffffffffffffffff1681565b610a1d612080565b8060118190555050565b610a2f612080565b80600a8190555050565b60028054610a4690613e10565b80601f0160208091040260200160405190810160405280929190818152602001828054610a7290613e10565b8015610abf5780601f10610a9457610100808354040283529160200191610abf565b820191906000526020600020905b815481529060010190602001808311610aa257829003601f168201915b505050505081565b610acf612080565b80600460006101000a81548173ffffffffffffffffffffffffffffffffffffffff021916908373ffffffffffffffffffffffffffffffffffffffff16021790555080600560006101000a81548173ffffffffffffffffffffffffffffffffffffffff021916908373ffffffffffffffffffffffffffffffffffffffff16021790555050565b600a5481565b610b62612080565b8060098190555050565b600460009054906101000a900473ffffffffffffffffffffffffffffffffffffffff1681565b60008083905060005b8651811015610c56576000878281518110610bb957610bb8613e41565b5b602002602001015190506000600286610bd29190613e9f565b03610c07578281604051602001610bea929190613ef1565b604051602081830303815290604052805190602001209250610c33565b8083604051602001610c1a929190613ef1565b6040516020818303038152906040528051906020012092505b600285610c409190613f4c565b9450508080610c4e90613f7d565b915050610b9b565b50848114915050949350505050565b610c6d612107565b60008061271083601154610c819190613fc5565b610c8b9190613e9f565b03610c995760009050610c9e565b600190505b60008161271084601154610cb29190613fc5565b610cbc9190613f4c565b610cc69190614007565b905060008111610d0b576040517f08c379a0000000000000000000000000000000000000000000000000000000008152600401610d0290614087565b60405180910390fd5b3373ffffffffffffffffffffffffffffffffffffffff167fe515410dffdf5490351286176f64882b88706ff8412d9a5248380c3b0a0b005e8285610d4f91906140a7565b604051610d5c91906132ff565b60405180910390a2610d9c600460009054906101000a900473ffffffffffffffffffffffffffffffffffffffff16308386610d9791906140a7565b61214d565b600460009054906101000a900473ffffffffffffffffffffffffffffffffffffffff1673ffffffffffffffffffffffffffffffffffffffff16639dc29fac308386610de791906140a7565b6040518363ffffffff1660e01b8152600401610e049291906140db565b600060405180830381600087803b158015610e1e57600080fd5b505af1158015610e32573d6000803e3d6000fd5b505050505050610e406121cc565b50565b610e4b612080565b80600f60006101000a81548173ffffffffffffffffffffffffffffffffffffffff021916908373ffffffffffffffffffffffffffffffffffffffff16021790555050565b610e97612080565b80600c60006101000a81548161ffff021916908361ffff16021790555050565b60035481565b610ec5612080565b610ed083828461214d565b505050565b610edd612080565b80600c60026101000a81548167ffffffffffffffff021916908367ffffffffffffffff16021790555050565b610f11612080565b80600660006101000a81548173ffffffffffffffffffffffffffffffffffffffff021916908373ffffffffffffffffffffffffffffffffffffffff16021790555080600760006101000a81548173ffffffffffffffffffffffffffffffffffffffff021916908373ffffffffffffffffffffffffffffffffffffffff16021790555050565b600860009054906101000a900473ffffffffffffffffffffffffffffffffffffffff1681565b600760009054906101000a900473ffffffffffffffffffffffffffffffffffffffff1681565b600c60029054906101000a900467ffffffffffffffff1681565b611004612080565b61100e60006121d5565b565b611018612080565b80600b8190555050565b600067ffffffffffffffff8016821115611071576040517f08c379a000000000000000000000000000000000000000000000000000000000815260040161106890614150565b60405180910390fd5b819050919050565b6000816000015182602001518360400151846060015161109c8660800151612299565b6110a98760a001516122e5565b6040516020016110be969594939291906141a6565b604051602081830303815290604052805190602001209050919050565b60125481565b60008060009054906101000a900473ffffffffffffffffffffffffffffffffffffffff16905090565b611112612107565b600080612710836011546111269190613fc5565b6111309190613e9f565b0361113e5760009050611143565b600190505b600081612710846011546111579190613fc5565b6111619190613f4c565b61116b9190614007565b905080833461117a91906140a7565b10156111bb576040517f08c379a00000000000000000000000000000000000000000000000000000000081526004016111b290614087565b60405180910390fd5b600081116111fe576040517f08c379a00000000000000000000000000000000000000000000000000000000081526004016111f590614087565b60405180910390fd5b8260125461120c9190614007565b601281905550505061121c6121cc565b50565b600080600f60009054906101000a900473ffffffffffffffffffffffffffffffffffffffff1673ffffffffffffffffffffffffffffffffffffffff1663dd8621576040518163ffffffff1660e01b8152600401602060405180830381865afa15801561128f573d6000803e3d6000fd5b505050506040513d601f19601f820116820180604052508101906112b3919061422b565b90508267ffffffffffffffff168110156112d057600091506112d5565b600191505b50919050565b600d6020528060005260406000206000915054906101000a900460ff1681565b611303612107565b611311898686868686612352565b6000600f60009054906101000a900473ffffffffffffffffffffffffffffffffffffffff1673ffffffffffffffffffffffffffffffffffffffff16633c70b357886040518263ffffffff1660e01b815260040161136e91906132ff565b602060405180830381865afa15801561138b573d6000803e3d6000fd5b505050506040513d601f19601f820116820180604052508101906113af919061426d565b90506113c28a8a8a8a8a8a8a8a8a6125b2565b60006113ea8a838c8c815181106113dc576113db613e41565b5b60200260200101518c610b92565b90506001151581151514611433576040517f08c379a000000000000000000000000000000000000000000000000000000000815260040161142a906142e6565b60405180910390fd5b8a156114cd57600460009054906101000a900473ffffffffffffffffffffffffffffffffffffffff1673ffffffffffffffffffffffffffffffffffffffff166340c10f1933856040518363ffffffff1660e01b81526004016114969291906140db565b600060405180830381600087803b1580156114b057600080fd5b505af11580156114c4573d6000803e3d6000fd5b5050505061157b565b60003373ffffffffffffffffffffffffffffffffffffffff16846040516114f390614337565b60006040518083038185875af1925050503d8060008114611530576040519150601f19603f3d011682016040523d82523d6000602084013e611535565b606091505b5050905080611579576040517f08c379a000000000000000000000000000000000000000000000000000000000815260040161157090614398565b60405180910390fd5b505b50506115856121cc565b505050505050505050565b601060009054906101000a900473ffffffffffffffffffffffffffffffffffffffff1681565b600b5481565b6115c4612080565b6115cc612107565b601254476115da91906140a7565b8211156115e657600080fd5b60008173ffffffffffffffffffffffffffffffffffffffff168360405161160c90614337565b60006040518083038185875af1925050503d8060008114611649576040519150601f19603f3d011682016040523d82523d6000602084013e61164e565b606091505b5050905080611692576040517f08c379a000000000000000000000000000000000000000000000000000000000815260040161168990614398565b60405180910390fd5b5061169b6121cc565b5050565b6116a7612080565b80601060006101000a81548173ffffffffffffffffffffffffffffffffffffffff021916908373ffffffffffffffffffffffffffffffffffffffff16021790555050565b600c60009054906101000a900461ffff1681565b600e6020528060005260406000206000915054906101000a900460ff1681565b600660009054906101000a900473ffffffffffffffffffffffffffffffffffffffff1681565b60095481565b611753612080565b80600860006101000a81548173ffffffffffffffffffffffffffffffffffffffff021916908373ffffffffffffffffffffffffffffffffffffffff16021790555050565b600560009054906101000a900473ffffffffffffffffffffffffffffffffffffffff1681565b60115481565b6117cb612080565b600073ffffffffffffffffffffffffffffffffffffffff168173ffffffffffffffffffffffffffffffffffffffff160361183d5760006040517f1e4fbdf70000000000000000000000000000000000000000000000000000000081526004016118349190612e5e565b60405180910390fd5b611846816121d5565b50565b60008160000151826020015183604001516118678560600151612299565b60405160200161187a94939291906143b8565b604051602081830303815290604052805190602001209050919050565b61189f612107565b6000866040516020016118b2919061444e565b60405160208183030381529060405280519060200120866040516020016118d99190614469565b604051602081830303815290604052805190602001208660405160200161190091906144a5565b604051602081830303815290604052805190602001208660405160200161192791906144a5565b604051602081830303815290604052805190602001208660405160200161194e91906144a5565b604051602081830303815290604052805190602001208660405160200161197591906144a5565b604051602081830303815290604052805190602001203360405160200161199c9190614508565b604051602081830303815290604052805190602001206040516020016119c89796959493929190614523565b60405160208183030381529060405280519060200120905060001515600d600083815260200190815260200160002060009054906101000a900460ff16151514611a47576040517f08c379a0000000000000000000000000000000000000000000000000000000008152600401611a3e906145f0565b60405180910390fd5b60011515600d600083815260200190815260200160002060009054906101000a9050505060001515600e600083815260200190815260200160002060009054906101000a900460ff16151514611ad2576040517f08c379a0000000000000000000000000000000000000000000000000000000008152600401611ac990614682565b60405180910390fd5b606080600080600167ffffffffffffffff811115611af357611af261308d565b5b604051908082528060200260200182016040528015611b215781602001602082028036833780820191505090505b5090503373ffffffffffffffffffffffffffffffffffffffff1660001b81600081518110611b5257611b51613e41565b5b6020026020010181815250508a15611c105760009150600067ffffffffffffffff811115611b8357611b8261308d565b5b604051908082528060200260200182016040528015611bb15781602001602082028036833780820191505090505b509350600067ffffffffffffffff811115611bcf57611bce61308d565b5b604051908082528060200260200182016040528015611c0857816020015b611bf5612dd0565b815260200190600190039081611bed5790505b509250611d95565b60019150600167ffffffffffffffff811115611c2f57611c2e61308d565b5b604051908082528060200260200182016040528015611c5d5781602001602082028036833780820191505090505b509350600084600081518110611c7657611c75613e41565b5b602002602001019063ffffffff16908163ffffffff1681525050600167ffffffffffffffff811115611cab57611caa61308d565b5b604051908082528060200260200182016040528015611ce457816020015b611cd1612dd0565b815260200190600190039081611cc95790505b50925060006040518060a00160405280600063ffffffff168152602001600860009054906101000a900473ffffffffffffffffffffffffffffffffffffffff1673ffffffffffffffffffffffffffffffffffffffff16815260200183815260200188604051602001611d5691906144a5565b60405160208183030381529060405281526020016000151581525090508084600081518110611d8857611d87613e41565b5b6020026020010181905250505b60006040518060a001604052808c8152602001600c60009054906101000a900461ffff1661ffff168152602001600115158152602001841515815260200186815250905060006040518061012001604052808c81526020018b81526020013373ffffffffffffffffffffffffffffffffffffffff168152602001600015158152602001600860009054906101000a900473ffffffffffffffffffffffffffffffffffffffff1673ffffffffffffffffffffffffffffffffffffffff1681526020018a815260200189604051602001611e6d91906144a5565b6040516020818303038152906040528152602001600160ff16815260200186815250905060006040518060c001604052806009548152602001600a548152602001600067ffffffffffffffff168152602001600c60029054906101000a900467ffffffffffffffff1667ffffffffffffffff168152602001848152602001838152509050600081604051602001611f049190614c2a565b604051602081830303815290604052805190602001209050600060405180608001604052806009548152602001600a548152602001838152602001868152509050600081600001518260200151836060015160000151846060015160200151856060015160400151866060015160600151876060015160800151604051602001611f949796959493929190614cce565b6040516020818303038152906040529050600f60009054906101000a900473ffffffffffffffffffffffffffffffffffffffff1673ffffffffffffffffffffffffffffffffffffffff1663f64b6fda826040518263ffffffff1660e01b81526004016120009190614d8e565b600060405180830381600087803b15801561201a57600080fd5b505af115801561202e573d6000803e3d6000fd5b5050505050505050505050505050506120456121cc565b505050505050565b60136020528060005260406000206000915054906101000a900473ffffffffffffffffffffffffffffffffffffffff1681565b612088612a4e565b73ffffffffffffffffffffffffffffffffffffffff166120a66110e1565b73ffffffffffffffffffffffffffffffffffffffff1614612105576120c9612a4e565b6040517f118cdaa70000000000000000000000000000000000000000000000000000000081526004016120fc9190612e5e565b60405180910390fd5b565b600260015403612143576040517f3ee5aeb500000000000000000000000000000000000000000000000000000000815260040160405180910390fd5b6002600181905550565b6121c7838473ffffffffffffffffffffffffffffffffffffffff1663a9059cbb85856040516024016121809291906140db565b604051602081830303815290604052915060e01b6020820180517bffffffffffffffffffffffffffffffffffffffffffffffffffffffff8381831617835250505050612a56565b505050565b60018081905550565b60008060009054906101000a900473ffffffffffffffffffffffffffffffffffffffff169050816000806101000a81548173ffffffffffffffffffffffffffffffffffffffff021916908373ffffffffffffffffffffffffffffffffffffffff1602179055508173ffffffffffffffffffffffffffffffffffffffff168173ffffffffffffffffffffffffffffffffffffffff167f8be0079c531659141344cd1fd0a4f28419497f9722a3daafe3b4186f6b6457e060405160405180910390a35050565b6000816000015182602001518360400151846060015185608001516040516020016122c8959493929190614e76565b604051602081830303815290604052805190602001209050919050565b6000816000015182602001518360400151846060015185608001518660a001518760c001518860e0015161231d8a6101000151612aed565b60405160200161233599989796959493929190614f19565b604051602081830303815290604052805190602001209050919050565b600086604051602001612365919061444e565b604051602081830303815290604052805190602001208660405160200161238c9190614469565b60405160208183030381529060405280519060200120866040516020016123b391906144a5565b60405160208183030381529060405280519060200120866040516020016123da91906144a5565b604051602081830303815290604052805190602001208660405160200161240191906144a5565b604051602081830303815290604052805190602001208660405160200161242891906144a5565b604051602081830303815290604052805190602001203360405160200161244f9190614508565b6040516020818303038152906040528051906020012060405160200161247b9796959493929190614523565b60405160208183030381529060405280519060200120905060011515600d600083815260200190815260200160002060009054906101000a900460ff161515146124fa576040517f08c379a00000000000000000000000000000000000000000000000000000000081526004016124f1906145f0565b60405180910390fd5b60011515600d600083815260200190815260200160002060009054906101000a9050505060001515600e600083815260200190815260200160002060009054906101000a900460ff16151514612585576040517f08c379a000000000000000000000000000000000000000000000000000000000815260040161257c90614682565b60405180910390fd5b60011515600e600083815260200190815260200160002060009054906101000a9050505050505050505050565b606080600080600167ffffffffffffffff8111156125d3576125d261308d565b5b6040519080825280602002602001820160405280156126015781602001602082028036833780820191505090505b5090503373ffffffffffffffffffffffffffffffffffffffff1660001b8160008151811061263257612631613e41565b5b6020026020010181815250508c156126f05760009150600067ffffffffffffffff8111156126635761266261308d565b5b6040519080825280602002602001820160405280156126915781602001602082028036833780820191505090505b509350600067ffffffffffffffff8111156126af576126ae61308d565b5b6040519080825280602002602001820160405280156126e857816020015b6126d5612dd0565b8152602001906001900390816126cd5790505b509250612875565b60019150600167ffffffffffffffff81111561270f5761270e61308d565b5b60405190808252806020026020018201604052801561273d5781602001602082028036833780820191505090505b50935060008460008151811061275657612755613e41565b5b602002602001019063ffffffff16908163ffffffff1681525050600167ffffffffffffffff81111561278b5761278a61308d565b5b6040519080825280602002602001820160405280156127c457816020015b6127b1612dd0565b8152602001906001900390816127a95790505b50925060006040518060a00160405280600063ffffffff168152602001600860009054906101000a900473ffffffffffffffffffffffffffffffffffffffff1673ffffffffffffffffffffffffffffffffffffffff1681526020018381526020018760405160200161283691906144a5565b6040516020818303038152906040528152602001600015158152509050808460008151811061286857612867613e41565b5b6020026020010181905250505b60006040518060a001604052808b8152602001600c60009054906101000a900461ffff1661ffff168152602001600115158152602001841515815260200186815250905060006040518061012001604052808b81526020018a81526020013373ffffffffffffffffffffffffffffffffffffffff168152602001600015158152602001600860009054906101000a900473ffffffffffffffffffffffffffffffffffffffff1673ffffffffffffffffffffffffffffffffffffffff1681526020018981526020018860405160200161294d91906144a5565b6040516020818303038152906040528152602001600160ff16815260200186815250905060006040518060c001604052806009548152602001600a5481526020016129978f611022565b67ffffffffffffffff168152602001600c60029054906101000a900467ffffffffffffffff1667ffffffffffffffff1681526020018481526020018381525090508e8e815181106129eb576129ea613e41565b5b60200260200101516129fc82611079565b14612a3c576040517f08c379a0000000000000000000000000000000000000000000000000000000008152600401612a339061502a565b60405180910390fd5b50505050505050505050505050505050565b600033905090565b6000612a81828473ffffffffffffffffffffffffffffffffffffffff16612bcd90919063ffffffff16565b90506000815114158015612aa6575080806020019051810190612aa4919061505f565b155b15612ae857826040517f5274afe7000000000000000000000000000000000000000000000000000000008152600401612adf9190612e5e565b60405180910390fd5b505050565b600080825167ffffffffffffffff811115612b0b57612b0a61308d565b5b604051908082528060200260200182016040528015612b395781602001602082028036833780820191505090505b50905060005b8351811015612b9d57612b6b848281518110612b5e57612b5d613e41565b5b6020026020010151612be3565b828281518110612b7e57612b7d613e41565b5b6020026020010181815250508080612b9590613f7d565b915050612b3f565b5080604051602001612baf919061511c565b60405160208183030381529060405280519060200120915050919050565b6060612bdb83836000612c2f565b905092915050565b600081600001518260200151836040015184606001518560800151604051602001612c12959493929190615169565b604051602081830303815290604052805190602001209050919050565b606081471015612c7657306040517fcd786059000000000000000000000000000000000000000000000000000000008152600401612c6d9190612e5e565b60405180910390fd5b6000808573ffffffffffffffffffffffffffffffffffffffff168486604051612c9f91906151c0565b60006040518083038185875af1925050503d8060008114612cdc576040519150601f19603f3d011682016040523d82523d6000602084013e612ce1565b606091505b5091509150612cf1868383612cfc565b925050509392505050565b606082612d1157612d0c82612d8b565b612d83565b60008251148015612d39575060008473ffffffffffffffffffffffffffffffffffffffff163b145b15612d7b57836040517f9996b315000000000000000000000000000000000000000000000000000000008152600401612d729190612e5e565b60405180910390fd5b819050612d84565b5b9392505050565b600081511115612d9e5780518082602001fd5b6040517f1425ea4200000000000000000000000000000000000000000000000000000000815260040160405180910390fd5b6040518060a00160405280600063ffffffff168152602001600073ffffffffffffffffffffffffffffffffffffffff16815260200160608152602001606081526020016000151581525090565b600073ffffffffffffffffffffffffffffffffffffffff82169050919050565b6000612e4882612e1d565b9050919050565b612e5881612e3d565b82525050565b6000602082019050612e736000830184612e4f565b92915050565b6000604051905090565b600080fd5b600080fd5b6000819050919050565b612ea081612e8d565b8114612eab57600080fd5b50565b600081359050612ebd81612e97565b92915050565b600060208284031215612ed957612ed8612e83565b5b6000612ee784828501612eae565b91505092915050565b6000819050919050565b612f0381612ef0565b8114612f0e57600080fd5b50565b600081359050612f2081612efa565b92915050565b600060208284031215612f3c57612f3b612e83565b5b6000612f4a84828501612f11565b91505092915050565b600081519050919050565b600082825260208201905092915050565b60005b83811015612f8d578082015181840152602081019050612f72565b60008484015250505050565b6000601f19601f8301169050919050565b6000612fb582612f53565b612fbf8185612f5e565b9350612fcf818560208601612f6f565b612fd881612f99565b840191505092915050565b60006020820190508181036000830152612ffd8184612faa565b905092915050565b61300e81612e3d565b811461301957600080fd5b50565b60008135905061302b81613005565b92915050565b60006020828403121561304757613046612e83565b5b60006130558482850161301c565b91505092915050565b61306781612ef0565b82525050565b6000602082019050613082600083018461305e565b92915050565b600080fd5b7f4e487b7100000000000000000000000000000000000000000000000000000000600052604160045260246000fd5b6130c582612f99565b810181811067ffffffffffffffff821117156130e4576130e361308d565b5b80604052505050565b60006130f7612e79565b905061310382826130bc565b919050565b600067ffffffffffffffff8211156131235761312261308d565b5b602082029050602081019050919050565b600080fd5b600061314c61314784613108565b6130ed565b9050808382526020820190506020840283018581111561316f5761316e613134565b5b835b8181101561319857806131848882612f11565b845260208401935050602081019050613171565b5050509392505050565b600082601f8301126131b7576131b6613088565b5b81356131c7848260208601613139565b91505092915050565b600080600080608085870312156131ea576131e9612e83565b5b600085013567ffffffffffffffff81111561320857613207612e88565b5b613214878288016131a2565b945050602061322587828801612f11565b935050604061323687828801612f11565b925050606061324787828801612eae565b91505092959194509250565b60008115159050919050565b61326881613253565b82525050565b6000602082019050613283600083018461325f565b92915050565b600061ffff82169050919050565b6132a081613289565b81146132ab57600080fd5b50565b6000813590506132bd81613297565b92915050565b6000602082840312156132d9576132d8612e83565b5b60006132e7848285016132ae565b91505092915050565b6132f981612e8d565b82525050565b600060208201905061331460008301846132f0565b92915050565b60008060006060848603121561333357613332612e83565b5b60006133418682870161301c565b935050602061335286828701612eae565b92505060406133638682870161301c565b9150509250925092565b600067ffffffffffffffff82169050919050565b61338a8161336d565b811461339557600080fd5b50565b6000813590506133a781613381565b92915050565b6000602082840312156133c3576133c2612e83565b5b60006133d184828501613398565b91505092915050565b6000819050919050565b60006133ff6133fa6133f584612e1d565b6133da565b612e1d565b9050919050565b6000613411826133e4565b9050919050565b600061342382613406565b9050919050565b61343381613418565b82525050565b600060208201905061344e600083018461342a565b92915050565b61345d8161336d565b82525050565b60006020820190506134786000830184613454565b92915050565b600080fd5b600080fd5b61349181613253565b811461349c57600080fd5b50565b6000813590506134ae81613488565b92915050565b600067ffffffffffffffff8211156134cf576134ce61308d565b5b602082029050602081019050919050565b600063ffffffff82169050919050565b6134f9816134e0565b811461350457600080fd5b50565b600081359050613516816134f0565b92915050565b600061352f61352a846134b4565b6130ed565b9050808382526020820190506020840283018581111561355257613551613134565b5b835b8181101561357b57806135678882613507565b845260208401935050602081019050613554565b5050509392505050565b600082601f83011261359a57613599613088565b5b81356135aa84826020860161351c565b91505092915050565b600060a082840312156135c9576135c861347e565b5b6135d360a06130ed565b905060006135e384828501612f11565b60008301525060206135f7848285016132ae565b602083015250604061360b8482850161349f565b604083015250606061361f8482850161349f565b606083015250608082013567ffffffffffffffff81111561364357613642613483565b5b61364f84828501613585565b60808301525092915050565b600080fd5b600067ffffffffffffffff82111561367b5761367a61308d565b5b61368482612f99565b9050602081019050919050565b82818337600083830152505050565b60006136b36136ae84613660565b6130ed565b9050828152602081018484840111156136cf576136ce61365b565b5b6136da848285613691565b509392505050565b600082601f8301126136f7576136f6613088565b5b81356137078482602086016136a0565b91505092915050565b600060ff82169050919050565b61372681613710565b811461373157600080fd5b50565b6000813590506137438161371d565b92915050565b600067ffffffffffffffff8211156137645761376361308d565b5b602082029050602081019050919050565b600060a0828403121561378b5761378a61347e565b5b61379560a06130ed565b905060006137a584828501613507565b60008301525060206137b98482850161301c565b602083015250604082013567ffffffffffffffff8111156137dd576137dc613483565b5b6137e9848285016131a2565b604083015250606082013567ffffffffffffffff81111561380d5761380c613483565b5b613819848285016136e2565b606083015250608061382d8482850161349f565b60808301525092915050565b600061384c61384784613749565b6130ed565b9050808382526020820190506020840283018581111561386f5761386e613134565b5b835b818110156138b657803567ffffffffffffffff81111561389457613893613088565b5b8086016138a18982613775565b85526020850194505050602081019050613871565b5050509392505050565b600082601f8301126138d5576138d4613088565b5b81356138e5848260208601613839565b91505092915050565b600061012082840312156139055761390461347e565b5b6139106101206130ed565b9050600061392084828501612eae565b600083015250602061393484828501612eae565b60208301525060406139488482850161301c565b604083015250606061395c8482850161349f565b60608301525060806139708482850161301c565b60808301525060a061398484828501612eae565b60a08301525060c082013567ffffffffffffffff8111156139a8576139a7613483565b5b6139b4848285016136e2565b60c08301525060e06139c884828501613734565b60e08301525061010082013567ffffffffffffffff8111156139ed576139ec613483565b5b6139f9848285016138c0565b6101008301525092915050565b600060c08284031215613a1c57613a1b61347e565b5b613a2660c06130ed565b90506000613a3684828501612f11565b6000830152506020613a4a84828501612f11565b6020830152506040613a5e84828501613398565b6040830152506060613a7284828501613398565b606083015250608082013567ffffffffffffffff811115613a9657613a95613483565b5b613aa2848285016135b3565b60808301525060a082013567ffffffffffffffff811115613ac657613ac5613483565b5b613ad2848285016138ee565b60a08301525092915050565b600060208284031215613af457613af3612e83565b5b600082013567ffffffffffffffff811115613b1257613b11612e88565b5b613b1e84828501613a06565b91505092915050565b60008060008060008060008060006101208a8c031215613b4a57613b49612e83565b5b6000613b588c828d0161349f565b99505060208a013567ffffffffffffffff811115613b7957613b78612e88565b5b613b858c828d016131a2565b9850506040613b968c828d01612eae565b9750506060613ba78c828d01612eae565b9650506080613bb88c828d01612f11565b95505060a0613bc98c828d01612eae565b94505060c0613bda8c828d01612eae565b93505060e0613beb8c828d01612eae565b925050610100613bfd8c828d01612eae565b9150509295985092959850929598565b60008060408385031215613c2457613c23612e83565b5b6000613c3285828601612eae565b9250506020613c438582860161301c565b9150509250929050565b613c5681613289565b82525050565b6000602082019050613c716000830184613c4d565b92915050565b600060808284031215613c8d57613c8c61347e565b5b613c9760806130ed565b90506000613ca784828501612f11565b6000830152506020613cbb84828501612f11565b6020830152506040613ccf84828501612f11565b604083015250606082013567ffffffffffffffff811115613cf357613cf2613483565b5b613cff848285016135b3565b60608301525092915050565b600060208284031215613d2157613d20612e83565b5b600082013567ffffffffffffffff811115613d3f57613d3e612e88565b5b613d4b84828501613c77565b91505092915050565b60008060008060008060c08789031215613d7157613d70612e83565b5b6000613d7f89828a0161349f565b9650506020613d9089828a01612f11565b9550506040613da189828a01612eae565b9450506060613db289828a01612eae565b9350506080613dc389828a01612eae565b92505060a0613dd489828a01612eae565b9150509295509295509295565b7f4e487b7100000000000000000000000000000000000000000000000000000000600052602260045260246000fd5b60006002820490506001821680613e2857607f821691505b602082108103613e3b57613e3a613de1565b5b50919050565b7f4e487b7100000000000000000000000000000000000000000000000000000000600052603260045260246000fd5b7f4e487b7100000000000000000000000000000000000000000000000000000000600052601260045260246000fd5b6000613eaa82612e8d565b9150613eb583612e8d565b925082613ec557613ec4613e70565b5b828206905092915050565b6000819050919050565b613eeb613ee682612ef0565b613ed0565b82525050565b6000613efd8285613eda565b602082019150613f0d8284613eda565b6020820191508190509392505050565b7f4e487b7100000000000000000000000000000000000000000000000000000000600052601160045260246000fd5b6000613f5782612e8d565b9150613f6283612e8d565b925082613f7257613f71613e70565b5b828204905092915050565b6000613f8882612e8d565b91507fffffffffffffffffffffffffffffffffffffffffffffffffffffffffffffffff8203613fba57613fb9613f1d565b5b600182019050919050565b6000613fd082612e8d565b9150613fdb83612e8d565b9250828202613fe981612e8d565b9150828204841483151761400057613fff613f1d565b5b5092915050565b600061401282612e8d565b915061401d83612e8d565b925082820190508082111561403557614034613f1d565b5b92915050565b7f6e6f7420656e6f75676820666565000000000000000000000000000000000000600082015250565b6000614071600e83612f5e565b915061407c8261403b565b602082019050919050565b600060208201905081810360008301526140a081614064565b9050919050565b60006140b282612e8d565b91506140bd83612e8d565b92508282039050818111156140d5576140d4613f1d565b5b92915050565b60006040820190506140f06000830185612e4f565b6140fd60208301846132f0565b9392505050565b7f56616c756520657863656564732075696e7436342072616e6765000000000000600082015250565b600061413a601a83612f5e565b915061414582614104565b602082019050919050565b600060208201905081810360008301526141698161412d565b9050919050565b60008160c01b9050919050565b600061418882614170565b9050919050565b6141a061419b8261336d565b61417d565b82525050565b60006141b28289613eda565b6020820191506141c28288613eda565b6020820191506141d2828761418f565b6008820191506141e2828661418f565b6008820191506141f28285613eda565b6020820191506142028284613eda565b602082019150819050979650505050505050565b60008151905061422581612e97565b92915050565b60006020828403121561424157614240612e83565b5b600061424f84828501614216565b91505092915050565b60008151905061426781612efa565b92915050565b60006020828403121561428357614282612e83565b5b600061429184828501614258565b91505092915050565b7f7472616e73616374696f6e206973206e6f742070726f6f766564000000000000600082015250565b60006142d0601a83612f5e565b91506142db8261429a565b602082019050919050565b600060208201905081810360008301526142ff816142c3565b9050919050565b600081905092915050565b50565b6000614321600083614306565b915061432c82614311565b600082019050919050565b600061434282614314565b9150819050919050565b7f4661696c656420746f2073656e64204574686572000000000000000000000000600082015250565b6000614382601483612f5e565b915061438d8261434c565b602082019050919050565b600060208201905081810360008301526143b181614375565b9050919050565b60006143c48287613eda565b6020820191506143d48286613eda565b6020820191506143e48285613eda565b6020820191506143f48284613eda565b60208201915081905095945050505050565b60008160f81b9050919050565b600061441e82614406565b9050919050565b600061443082614413565b9050919050565b61444861444382613253565b614425565b82525050565b600061445a8284614437565b60018201915081905092915050565b60006144758284613eda565b60208201915081905092915050565b6000819050919050565b61449f61449a82612e8d565b614484565b82525050565b60006144b1828461448e565b60208201915081905092915050565b60008160601b9050919050565b60006144d8826144c0565b9050919050565b60006144ea826144cd565b9050919050565b6145026144fd82612e3d565b6144df565b82525050565b600061451482846144f1565b60148201915081905092915050565b600061452f828a613eda565b60208201915061453f8289613eda565b60208201915061454f8288613eda565b60208201915061455f8287613eda565b60208201915061456f8286613eda565b60208201915061457f8285613eda565b60208201915061458f8284613eda565b60208201915081905098975050505050505050565b7f746865206461746120697320616c726561647920757365640000000000000000600082015250565b60006145da601883612f5e565b91506145e5826145a4565b602082019050919050565b60006020820190508181036000830152614609816145cd565b9050919050565b7f746865206461746120697320616c7265616479207573656420616e642077697460008201527f68646177616c2068617070656e64000000000000000000000000000000000000602082015250565b600061466c602e83612f5e565b915061467782614610565b604082019050919050565b6000602082019050818103600083015261469b8161465f565b9050919050565b6146ab81612ef0565b82525050565b6146ba8161336d565b82525050565b6146c981613289565b82525050565b6146d881613253565b82525050565b600081519050919050565b600082825260208201905092915050565b6000819050602082019050919050565b614713816134e0565b82525050565b6000614725838361470a565b60208301905092915050565b6000602082019050919050565b6000614749826146de565b61475381856146e9565b935061475e836146fa565b8060005b8381101561478f5781516147768882614719565b975061478183614731565b925050600181019050614762565b5085935050505092915050565b600060a0830160008301516147b460008601826146a2565b5060208301516147c760208601826146c0565b5060408301516147da60408601826146cf565b5060608301516147ed60608601826146cf565b5060808301518482036080860152614805828261473e565b9150508091505092915050565b61481b81612e8d565b82525050565b61482a81612e3d565b82525050565b600081519050919050565b600082825260208201905092915050565b600061485782614830565b614861818561483b565b9350614871818560208601612f6f565b61487a81612f99565b840191505092915050565b61488e81613710565b82525050565b600081519050919050565b600082825260208201905092915050565b6000819050602082019050919050565b600081519050919050565b600082825260208201905092915050565b6000819050602082019050919050565b60006148f883836146a2565b60208301905092915050565b6000602082019050919050565b600061491c826148c0565b61492681856148cb565b9350614931836148dc565b8060005b8381101561496257815161494988826148ec565b975061495483614904565b925050600181019050614935565b5085935050505092915050565b600060a083016000830151614987600086018261470a565b50602083015161499a6020860182614821565b50604083015184820360408601526149b28282614911565b915050606083015184820360608601526149cc828261484c565b91505060808301516149e160808601826146cf565b508091505092915050565b60006149f8838361496f565b905092915050565b6000602082019050919050565b6000614a1882614894565b614a22818561489f565b935083602082028501614a34856148b0565b8060005b85811015614a705784840389528151614a5185826149ec565b9450614a5c83614a00565b925060208a01995050600181019050614a38565b50829750879550505050505092915050565b600061012083016000830151614a9b6000860182614812565b506020830151614aae6020860182614812565b506040830151614ac16040860182614821565b506060830151614ad460608601826146cf565b506080830151614ae76080860182614821565b5060a0830151614afa60a0860182614812565b5060c083015184820360c0860152614b12828261484c565b91505060e0830151614b2760e0860182614885565b50610100830151848203610100860152614b418282614a0d565b9150508091505092915050565b600060c083016000830151614b6660008601826146a2565b506020830151614b7960208601826146a2565b506040830151614b8c60408601826146b1565b506060830151614b9f60608601826146b1565b5060808301518482036080860152614bb7828261479c565b91505060a083015184820360a0860152614bd18282614a82565b9150508091505092915050565b7f466c617265000000000000000000000000000000000000000000000000000000600082015250565b6000614c14600583612f5e565b9150614c1f82614bde565b602082019050919050565b60006040820190508181036000830152614c448184614b4e565b90508181036020830152614c5781614c07565b905092915050565b600082825260208201905092915050565b6000614c7b826146de565b614c858185614c5f565b9350614c90836146fa565b8060005b83811015614cc1578151614ca88882614719565b9750614cb383614731565b925050600181019050614c94565b5085935050505092915050565b600060e082019050614ce3600083018a61305e565b614cf0602083018961305e565b614cfd604083018861305e565b614d0a6060830187613c4d565b614d17608083018661325f565b614d2460a083018561325f565b81810360c0830152614d368184614c70565b905098975050505050505050565b600082825260208201905092915050565b6000614d6082614830565b614d6a8185614d44565b9350614d7a818560208601612f6f565b614d8381612f99565b840191505092915050565b60006020820190508181036000830152614da88184614d55565b905092915050565b60008160f01b9050919050565b6000614dc882614db0565b9050919050565b614de0614ddb82613289565b614dbd565b82525050565b600081905092915050565b614dfa816134e0565b82525050565b6000614e0c8383614df1565b60208301905092915050565b6000614e23826146de565b614e2d8185614de6565b9350614e38836146fa565b8060005b83811015614e69578151614e508882614e00565b9750614e5b83614731565b925050600181019050614e3c565b5085935050505092915050565b6000614e828288613eda565b602082019150614e928287614dcf565b600282019150614ea28286614437565b600182019150614eb28285614437565b600182019150614ec28284614e18565b91508190509695505050505050565b6000614edc82614830565b614ee68185614306565b9350614ef6818560208601612f6f565b80840191505092915050565b614f13614f0e82613710565b614413565b82525050565b6000614f25828c61448e565b602082019150614f35828b61448e565b602082019150614f45828a6144f1565b601482019150614f558289614437565b600182019150614f6582886144f1565b601482019150614f75828761448e565b602082019150614f858286614ed1565b9150614f918285614f02565b600182019150614fa18284613eda565b6020820191508190509a9950505050505050505050565b7f6c656166206973206e6f7420657175616c20746f207265616c20726573706f6e60008201527f7365000000000000000000000000000000000000000000000000000000000000602082015250565b6000615014602283612f5e565b915061501f82614fb8565b604082019050919050565b6000602082019050818103600083015261504381615007565b9050919050565b60008151905061505981613488565b92915050565b60006020828403121561507557615074612e83565b5b60006150838482850161504a565b91505092915050565b600081905092915050565b6150a081612ef0565b82525050565b60006150b28383615097565b60208301905092915050565b60006150c9826148c0565b6150d3818561508c565b93506150de836148dc565b8060005b8381101561510f5781516150f688826150a6565b975061510183614904565b9250506001810190506150e2565b5085935050505092915050565b600061512882846150be565b915081905092915050565b60008160e01b9050919050565b600061514b82615133565b9050919050565b61516361515e826134e0565b615140565b82525050565b60006151758288615152565b60048201915061518582876144f1565b60148201915061519582866150be565b91506151a18285614ed1565b91506151ad8284614437565b6001820191508190509695505050505050565b60006151cc8284614ed1565b91508190509291505056fea2646970667358221220ef3bfc2afc5635f8e846de1716373f947fcf2f064d920eeba96982f60ed6d5b864736f6c63430008140033",
  "linkReferences": {},
  "deployedLinkReferences": {}
}